{
  "contractName": "Brevetto",
  "abi": [
    {
      "inputs": [],
      "stateMutability": "nonpayable",
      "type": "constructor"
    },
    {
      "inputs": [
        {
          "internalType": "uint256",
          "name": "_date",
          "type": "uint256"
        }
      ],
      "name": "setCreationTime",
      "outputs": [],
      "stateMutability": "nonpayable",
      "type": "function"
    },
    {
      "inputs": [],
      "name": "getCreationTime",
      "outputs": [
        {
          "internalType": "uint256",
          "name": "",
          "type": "uint256"
        }
      ],
      "stateMutability": "view",
      "type": "function",
      "constant": true
    },
    {
      "inputs": [],
      "name": "setBalance",
      "outputs": [],
      "stateMutability": "payable",
      "type": "function",
      "payable": true
    },
    {
      "inputs": [],
      "name": "getBalance",
      "outputs": [
        {
          "internalType": "uint256",
          "name": "",
          "type": "uint256"
        }
      ],
      "stateMutability": "view",
      "type": "function",
      "constant": true
    },
    {
      "inputs": [],
      "name": "getVoterAddresses",
      "outputs": [
        {
          "internalType": "address[]",
          "name": "",
          "type": "address[]"
        }
      ],
      "stateMutability": "view",
      "type": "function",
      "constant": true
    },
    {
      "inputs": [],
      "name": "getVotes",
      "outputs": [
        {
          "internalType": "address[]",
          "name": "",
          "type": "address[]"
        },
        {
          "internalType": "string[]",
          "name": "",
          "type": "string[]"
        }
      ],
      "stateMutability": "view",
      "type": "function",
      "constant": true
    },
    {
      "inputs": [
        {
          "internalType": "string",
          "name": "_vote",
          "type": "string"
        },
        {
          "internalType": "uint256",
          "name": "time",
          "type": "uint256"
        }
      ],
      "name": "addVoter",
      "outputs": [],
      "stateMutability": "payable",
      "type": "function",
      "payable": true
    },
    {
      "inputs": [],
      "name": "getId",
      "outputs": [
        {
          "internalType": "string",
          "name": "",
          "type": "string"
        }
      ],
      "stateMutability": "view",
      "type": "function",
      "constant": true
    },
    {
      "inputs": [
        {
          "internalType": "string",
          "name": "_id",
          "type": "string"
        }
      ],
      "name": "setId",
      "outputs": [],
      "stateMutability": "nonpayable",
      "type": "function"
    },
    {
      "inputs": [],
      "name": "getName",
      "outputs": [
        {
          "internalType": "string",
          "name": "",
          "type": "string"
        }
      ],
      "stateMutability": "view",
      "type": "function",
      "constant": true
    },
    {
      "inputs": [
        {
          "internalType": "string",
          "name": "_name",
          "type": "string"
        }
      ],
      "name": "setName",
      "outputs": [],
      "stateMutability": "nonpayable",
      "type": "function"
    },
    {
      "inputs": [],
      "name": "getUser",
      "outputs": [
        {
          "internalType": "address",
          "name": "",
          "type": "address"
        }
      ],
      "stateMutability": "view",
      "type": "function",
      "constant": true
    },
    {
      "inputs": [
        {
          "internalType": "address",
          "name": "_user",
          "type": "address"
        }
      ],
      "name": "setUser",
      "outputs": [],
      "stateMutability": "nonpayable",
      "type": "function"
    },
    {
      "inputs": [],
      "name": "getState",
      "outputs": [
        {
          "internalType": "string",
          "name": "",
          "type": "string"
        }
      ],
      "stateMutability": "view",
      "type": "function",
      "constant": true
    },
    {
      "inputs": [
        {
          "internalType": "string",
          "name": "_state",
          "type": "string"
        }
      ],
      "name": "setState",
      "outputs": [],
      "stateMutability": "nonpayable",
      "type": "function"
    },
    {
      "inputs": [
        {
          "internalType": "uint256",
          "name": "time",
          "type": "uint256"
        }
      ],
      "name": "rewardWinners",
      "outputs": [],
      "stateMutability": "payable",
      "type": "function",
      "payable": true
    },
    {
      "inputs": [
        {
          "internalType": "uint256",
          "name": "time",
          "type": "uint256"
        }
      ],
      "name": "checkExpiration",
      "outputs": [
        {
          "internalType": "bool",
          "name": "",
          "type": "bool"
        }
      ],
      "stateMutability": "nonpayable",
      "type": "function"
    }
  ],
  "bytecode": "0x608060405234801561001057600080fd5b5061227f806100206000396000f3fe6080604052600436106100fe5760003560e01c806368794b8711610095578063858ced3511610064578063858ced35146102e657806387e4396c1461030f578063c47f002714610338578063d2abaa5814610361578063e6519a351461037d576100fe565b806368794b871461022c5780636d2be2dd14610255578063723931ca1461027e578063832880e7146102bb576100fe565b80631865c57d116100d15780631865c57d146101b05780631a61746e146101db57806332e2d7f9146101e55780635d1ca63114610201576100fe565b80630a16e30b146101035780630dc960151461012e57806312065fe01461015a57806317d7de7c14610185575b600080fd5b34801561010f57600080fd5b506101186103a8565b6040516101259190611604565b60405180910390f35b34801561013a57600080fd5b50610143610436565b604051610151929190611778565b60405180910390f35b34801561016657600080fd5b5061016f610673565b60405161017c91906117c8565b60405180910390f35b34801561019157600080fd5b5061019a61067d565b6040516101a7919061182d565b60405180910390f35b3480156101bc57600080fd5b506101c561070f565b6040516101d2919061182d565b60405180910390f35b6101e36107a1565b005b6101ff60048036038101906101fa919061188f565b6107f4565b005b34801561020d57600080fd5b50610216610d80565b604051610223919061182d565b60405180910390f35b34801561023857600080fd5b50610253600480360381019061024e91906119f1565b610e12565b005b34801561026157600080fd5b5061027c6004803603810190610277919061188f565b610eda565b005b34801561028a57600080fd5b506102a560048036038101906102a0919061188f565b610ee4565b6040516102b29190611a55565b60405180910390f35b3480156102c757600080fd5b506102d0610f0f565b6040516102dd9190611a7f565b60405180910390f35b3480156102f257600080fd5b5061030d60048036038101906103089190611ac6565b610f39565b005b34801561031b57600080fd5b50610336600480360381019061033191906119f1565b610f7d565b005b34801561034457600080fd5b5061035f600480360381019061035a91906119f1565b610f90565b005b61037b60048036038101906103769190611af3565b610fa3565b005b34801561038957600080fd5b506103926111b6565b60405161039f91906117c8565b60405180910390f35b6060600680548060200260200160405190810160405280929190818152602001828054801561042c57602002820191906000526020600020905b8160009054906101000a900473ffffffffffffffffffffffffffffffffffffffff1673ffffffffffffffffffffffffffffffffffffffff16815260200190600101908083116103e2575b5050505050905090565b6060806000600680549050905060008167ffffffffffffffff81111561045f5761045e6118c6565b5b60405190808252806020026020018201604052801561049257816020015b606081526020019060019003908161047d5790505b50905060005b828110156105dd576000600682815481106104b6576104b5611b4f565b5b9060005260206000200160009054906101000a900473ffffffffffffffffffffffffffffffffffffffff169050600560008273ffffffffffffffffffffffffffffffffffffffff1673ffffffffffffffffffffffffffffffffffffffff168152602001908152602001600020805461052d90611bad565b80601f016020809104026020016040519081016040528092919081815260200182805461055990611bad565b80156105a65780601f1061057b576101008083540402835291602001916105a6565b820191906000526020600020905b81548152906001019060200180831161058957829003601f168201915b50505050508383815181106105be576105bd611b4f565b5b60200260200101819052505080806105d590611c0d565b915050610498565b506006818180548060200260200160405190810160405280929190818152602001828054801561066257602002820191906000526020600020905b8160009054906101000a900473ffffffffffffffffffffffffffffffffffffffff1673ffffffffffffffffffffffffffffffffffffffff1681526020019060010190808311610618575b505050505091509350935050509091565b6000600454905090565b60606001805461068c90611bad565b80601f01602080910402602001604051908101604052809291908181526020018280546106b890611bad565b80156107055780601f106106da57610100808354040283529160200191610705565b820191906000526020600020905b8154815290600101906020018083116106e857829003601f168201915b5050505050905090565b60606003805461071e90611bad565b80601f016020809104026020016040519081016040528092919081815260200182805461074a90611bad565b80156107975780601f1061076c57610100808354040283529160200191610797565b820191906000526020600020905b81548152906001019060200180831161077a57829003601f168201915b5050505050905090565b6729a2241af62c000034146107eb576040517f08c379a00000000000000000000000000000000000000000000000000000000081526004016107e290611cc7565b60405180910390fd5b34600481905550565b60405160200161080390611d3e565b6040516020818303038152906040528051906020012061082161070f565b6040516020016108319190611d84565b604051602081830303815290604052805190602001201461085157600080fd5b61ea60600754826108629190611d9b565b10156108a3576040517f08c379a000000000000000000000000000000000000000000000000000000000815260040161089a90611e1b565b60405180910390fd5b6000806108ae6111c0565b915091506040516020016108c190611e87565b60405160208183030381529060405280519060200120826040516020016108e89190611d84565b6040516020818303038152906040528051906020012003610b185760005b600680549050811015610b12576000600560006006848154811061092d5761092c611b4f565b5b9060005260206000200160009054906101000a900473ffffffffffffffffffffffffffffffffffffffff1673ffffffffffffffffffffffffffffffffffffffff1673ffffffffffffffffffffffffffffffffffffffff168152602001908152602001600020805461099d90611bad565b80601f01602080910402602001604051908101604052809291908181526020018280546109c990611bad565b8015610a165780601f106109eb57610100808354040283529160200191610a16565b820191906000526020600020905b8154815290600101906020018083116109f957829003601f168201915b5050505050905083604051602001610a2e9190611d84565b6040516020818303038152906040528051906020012081604051602001610a559190611d84565b6040516020818303038152906040528051906020012003610afe5760068281548110610a8457610a83611b4f565b5b9060005260206000200160009054906101000a900473ffffffffffffffffffffffffffffffffffffffff1673ffffffffffffffffffffffffffffffffffffffff166108fc670429d069189e00009081150290604051600060405180830381858888f19350505050158015610afc573d6000803e3d6000fd5b505b508080610b0a90611c0d565b915050610906565b50610d7b565b604051602001610b2790611ee8565b6040516020818303038152906040528051906020012082604051602001610b4e9190611d84565b6040516020818303038152906040528051906020012003610d7a5760005b600680549050811015610d785760006005600060068481548110610b9357610b92611b4f565b5b9060005260206000200160009054906101000a900473ffffffffffffffffffffffffffffffffffffffff1673ffffffffffffffffffffffffffffffffffffffff1673ffffffffffffffffffffffffffffffffffffffff1681526020019081526020016000208054610c0390611bad565b80601f0160208091040260200160405190810160405280929190818152602001828054610c2f90611bad565b8015610c7c5780601f10610c5157610100808354040283529160200191610c7c565b820191906000526020600020905b815481529060010190602001808311610c5f57829003601f168201915b5050505050905083604051602001610c949190611d84565b6040516020818303038152906040528051906020012081604051602001610cbb9190611d84565b6040516020818303038152906040528051906020012003610d645760068281548110610cea57610ce9611b4f565b5b9060005260206000200160009054906101000a900473ffffffffffffffffffffffffffffffffffffffff1673ffffffffffffffffffffffffffffffffffffffff166108fc67120a871cc00200009081150290604051600060405180830381858888f19350505050158015610d62573d6000803e3d6000fd5b505b508080610d7090611c0d565b915050610b6c565b505b5b505050565b606060008054610d8f90611bad565b80601f0160208091040260200160405190810160405280929190818152602001828054610dbb90611bad565b8015610e085780601f10610ddd57610100808354040283529160200191610e08565b820191906000526020600020905b815481529060010190602001808311610deb57829003601f168201915b5050505050905090565b604051602001610e2190611d3e565b604051602081830303815290604052805190602001206003604051602001610e499190611f95565b6040516020818303038152906040528051906020012003610e75578060039081610e739190612143565b505b604051602001610e8490611d3e565b6040516020818303038152906040528051906020012081604051602001610eab9190611d84565b6040516020818303038152906040528051906020012003610ed7578060039081610ed59190612143565b505b50565b8060078190555050565b600061ea6060075483610ef79190611d9b565b10610f055760009050610f0a565b600190505b919050565b6000600260009054906101000a900473ffffffffffffffffffffffffffffffffffffffff16905090565b80600260006101000a81548173ffffffffffffffffffffffffffffffffffffffff021916908373ffffffffffffffffffffffffffffffffffffffff16021790555050565b8060009081610f8c9190612143565b5050565b8060019081610f9f9190612143565b5050565b61ea6060075482610fb49190611d9b565b1115610ff5576040517f08c379a0000000000000000000000000000000000000000000000000000000008152600401610fec90611e1b565b60405180910390fd5b6000600560003373ffffffffffffffffffffffffffffffffffffffff1673ffffffffffffffffffffffffffffffffffffffff168152602001908152602001600020805461104190611bad565b90501461104d57600080fd5b600260009054906101000a900473ffffffffffffffffffffffffffffffffffffffff1673ffffffffffffffffffffffffffffffffffffffff163373ffffffffffffffffffffffffffffffffffffffff16036110a757600080fd5b6040516020016110b690611ee8565b60405160208183030381529060405280519060200120826040516020016110dd9190611d84565b604051602081830303815290604052805190602001200361110257611101346114e4565b5b6006339080600181540180825580915050600190039060005260206000200160009091909190916101000a81548173ffffffffffffffffffffffffffffffffffffffff021916908373ffffffffffffffffffffffffffffffffffffffff16021790555081600560003373ffffffffffffffffffffffffffffffffffffffff1673ffffffffffffffffffffffffffffffffffffffff16815260200190815260200160002090816111b19190612143565b505050565b6000600754905090565b6060600080600680549050116111d557600080fd5b60008060005b6006805490508110156113cb576000600560006006848154811061120257611201611b4f565b5b9060005260206000200160009054906101000a900473ffffffffffffffffffffffffffffffffffffffff1673ffffffffffffffffffffffffffffffffffffffff1673ffffffffffffffffffffffffffffffffffffffff168152602001908152602001600020805461127290611bad565b80601f016020809104026020016040519081016040528092919081815260200182805461129e90611bad565b80156112eb5780601f106112c0576101008083540402835291602001916112eb565b820191906000526020600020905b8154815290600101906020018083116112ce57829003601f168201915b5050505050905060405160200161130190611e87565b60405160208183030381529060405280519060200120816040516020016113289190611d84565b604051602081830303815290604052805190602001200361135657838061134e90611c0d565b9450506113b7565b60405160200161136590611ee8565b604051602081830303815290604052805190602001208160405160200161138c9190611d84565b60405160208183030381529060405280519060200120036113b65782806113b290611c0d565b9350505b5b5080806113c390611c0d565b9150506111db565b50808210611454576114116040518060400160405280600a81526020017f436f6e6665726d61746f00000000000000000000000000000000000000000000815250610e12565b816040518060400160405280600a81526020017f436f6e6665726d61746f00000000000000000000000000000000000000000000815250909350935050506114e0565b818111156114dd5761149a6040518060400160405280600981526020017f52696669757461746f0000000000000000000000000000000000000000000000815250610e12565b806040518060400160405280600981526020017f52696669757461746f0000000000000000000000000000000000000000000000815250909350935050506114e0565b50505b9091565b670de0b6b3a764000081146114f857600080fd5b806004600082825461150a9190612215565b9250508190555050565b600081519050919050565b600082825260208201905092915050565b6000819050602082019050919050565b600073ffffffffffffffffffffffffffffffffffffffff82169050919050565b600061156b82611540565b9050919050565b61157b81611560565b82525050565b600061158d8383611572565b60208301905092915050565b6000602082019050919050565b60006115b182611514565b6115bb818561151f565b93506115c683611530565b8060005b838110156115f75781516115de8882611581565b97506115e983611599565b9250506001810190506115ca565b5085935050505092915050565b6000602082019050818103600083015261161e81846115a6565b905092915050565b600081519050919050565b600082825260208201905092915050565b6000819050602082019050919050565b600081519050919050565b600082825260208201905092915050565b60005b8381101561168c578082015181840152602081019050611671565b60008484015250505050565b6000601f19601f8301169050919050565b60006116b482611652565b6116be818561165d565b93506116ce81856020860161166e565b6116d781611698565b840191505092915050565b60006116ee83836116a9565b905092915050565b6000602082019050919050565b600061170e82611626565b6117188185611631565b93508360208202850161172a85611642565b8060005b85811015611766578484038952815161174785826116e2565b9450611752836116f6565b925060208a0199505060018101905061172e565b50829750879550505050505092915050565b6000604082019050818103600083015261179281856115a6565b905081810360208301526117a68184611703565b90509392505050565b6000819050919050565b6117c2816117af565b82525050565b60006020820190506117dd60008301846117b9565b92915050565b600082825260208201905092915050565b60006117ff82611652565b61180981856117e3565b935061181981856020860161166e565b61182281611698565b840191505092915050565b6000602082019050818103600083015261184781846117f4565b905092915050565b6000604051905090565b600080fd5b600080fd5b61186c816117af565b811461187757600080fd5b50565b60008135905061188981611863565b92915050565b6000602082840312156118a5576118a4611859565b5b60006118b38482850161187a565b91505092915050565b600080fd5b600080fd5b7f4e487b7100000000000000000000000000000000000000000000000000000000600052604160045260246000fd5b6118fe82611698565b810181811067ffffffffffffffff8211171561191d5761191c6118c6565b5b80604052505050565b600061193061184f565b905061193c82826118f5565b919050565b600067ffffffffffffffff82111561195c5761195b6118c6565b5b61196582611698565b9050602081019050919050565b82818337600083830152505050565b600061199461198f84611941565b611926565b9050828152602081018484840111156119b0576119af6118c1565b5b6119bb848285611972565b509392505050565b600082601f8301126119d8576119d76118bc565b5b81356119e8848260208601611981565b91505092915050565b600060208284031215611a0757611a06611859565b5b600082013567ffffffffffffffff811115611a2557611a2461185e565b5b611a31848285016119c3565b91505092915050565b60008115159050919050565b611a4f81611a3a565b82525050565b6000602082019050611a6a6000830184611a46565b92915050565b611a7981611560565b82525050565b6000602082019050611a946000830184611a70565b92915050565b611aa381611560565b8114611aae57600080fd5b50565b600081359050611ac081611a9a565b92915050565b600060208284031215611adc57611adb611859565b5b6000611aea84828501611ab1565b91505092915050565b60008060408385031215611b0a57611b09611859565b5b600083013567ffffffffffffffff811115611b2857611b2761185e565b5b611b34858286016119c3565b9250506020611b458582860161187a565b9150509250929050565b7f4e487b7100000000000000000000000000000000000000000000000000000000600052603260045260246000fd5b7f4e487b7100000000000000000000000000000000000000000000000000000000600052602260045260246000fd5b60006002820490506001821680611bc557607f821691505b602082108103611bd857611bd7611b7e565b5b50919050565b7f4e487b7100000000000000000000000000000000000000000000000000000000600052601160045260246000fd5b6000611c18826117af565b91507fffffffffffffffffffffffffffffffffffffffffffffffffffffffffffffffff8203611c4a57611c49611bde565b5b600182019050919050565b7f496c2076616c6f72652064656c2073616c646f2064657665206573736572652060008201527f6573617474616d656e7465203320657468657200000000000000000000000000602082015250565b6000611cb16033836117e3565b9150611cbc82611c55565b604082019050919050565b60006020820190508181036000830152611ce081611ca4565b9050919050565b600081905092915050565b7f6174746573610000000000000000000000000000000000000000000000000000600082015250565b6000611d28600683611ce7565b9150611d3382611cf2565b600682019050919050565b6000611d4982611d1b565b9150819050919050565b6000611d5e82611652565b611d688185611ce7565b9350611d7881856020860161166e565b80840191505092915050565b6000611d908284611d53565b915081905092915050565b6000611da6826117af565b9150611db1836117af565b9250828203905081811115611dc957611dc8611bde565b5b92915050565b7f54656d706f207363616475746f00000000000000000000000000000000000000600082015250565b6000611e05600d836117e3565b9150611e1082611dcf565b602082019050919050565b60006020820190508181036000830152611e3481611df8565b9050919050565b7f436f6e6665726d61746f00000000000000000000000000000000000000000000600082015250565b6000611e71600a83611ce7565b9150611e7c82611e3b565b600a82019050919050565b6000611e9282611e64565b9150819050919050565b7f52696669757461746f0000000000000000000000000000000000000000000000600082015250565b6000611ed2600983611ce7565b9150611edd82611e9c565b600982019050919050565b6000611ef382611ec5565b9150819050919050565b60008190508160005260206000209050919050565b60008154611f1f81611bad565b611f298186611ce7565b94506001821660008114611f445760018114611f5957611f8c565b60ff1983168652811515820286019350611f8c565b611f6285611efd565b60005b83811015611f8457815481890152600182019150602081019050611f65565b838801955050505b50505092915050565b6000611fa18284611f12565b915081905092915050565b60006020601f8301049050919050565b600082821b905092915050565b600060088302611ff97fffffffffffffffffffffffffffffffffffffffffffffffffffffffffffffffff82611fbc565b6120038683611fbc565b95508019841693508086168417925050509392505050565b6000819050919050565b600061204061203b612036846117af565b61201b565b6117af565b9050919050565b6000819050919050565b61205a83612025565b61206e61206682612047565b848454611fc9565b825550505050565b600090565b612083612076565b61208e818484612051565b505050565b5b818110156120b2576120a760008261207b565b600181019050612094565b5050565b601f8211156120f7576120c881611efd565b6120d184611fac565b810160208510156120e0578190505b6120f46120ec85611fac565b830182612093565b50505b505050565b600082821c905092915050565b600061211a600019846008026120fc565b1980831691505092915050565b60006121338383612109565b9150826002028217905092915050565b61214c82611652565b67ffffffffffffffff811115612165576121646118c6565b5b61216f8254611bad565b61217a8282856120b6565b600060209050601f8311600181146121ad576000841561219b578287015190505b6121a58582612127565b86555061220d565b601f1984166121bb86611efd565b60005b828110156121e3578489015182556001820191506020850194506020810190506121be565b8683101561220057848901516121fc601f891682612109565b8355505b6001600288020188555050505b505050505050565b6000612220826117af565b915061222b836117af565b925082820190508082111561224357612242611bde565b5b9291505056fea26469706673582212202fb36119b9cb2d64e5b00ae391cbfa3ebe2a7a499c9f28b387caa6edc1e273e364736f6c63430008130033",
  "immutableReferences": {},
  "source": "pragma solidity >=0.4.20 <=0.8.19;\r\npragma experimental ABIEncoderV2;\r\n\r\ncontract Brevetto{\r\n    string private  id; //hash del documento\r\n    string private  name;\r\n    address private  user;\r\n    string private  state;\r\n    uint256 private balance;\r\n    mapping(address=>string) private vote;\r\n    address[] private voterAddresses;\r\n    uint256 creationTime;\r\n\r\n    constructor() {\r\n        \r\n    }\r\n\r\n    function setCreationTime(uint256 _date) public {\r\n        creationTime = _date;\r\n    }\r\n\r\n    function getCreationTime() public view returns(uint){\r\n        return creationTime;\r\n    }\r\n\r\n    function addBalance(uint et) private {\r\n        require(et == 1 ether);\r\n        balance += et;\r\n    }\r\n\r\n    function setBalance() public payable {\r\n        require(msg.value == 3 ether, \"Il valore del saldo deve essere esattamente 3 ether\");\r\n        balance = msg.value;\r\n    }\r\n\r\n    function getBalance() public view returns(uint256){\r\n        return balance;\r\n    }\r\n\r\n    function getVoterAddresses() public view returns (address[] memory){\r\n        return voterAddresses;\r\n    } \r\n\r\n    function getVotes() public view returns (address[] memory, string[] memory) {\r\n        uint256 votersCount = voterAddresses.length;\r\n        string[] memory votesList = new string[](votersCount);\r\n        for (uint256 i = 0; i < votersCount; i++) {\r\n            address voter = voterAddresses[i];\r\n            votesList[i] = vote[voter];\r\n        }\r\n        return (voterAddresses, votesList);\r\n    }\r\n\r\n    function addVoter(string memory _vote, uint256 time) public payable{\r\n        require((time - creationTime) <= 60000, \"Tempo scaduto\");\r\n        require(bytes(vote[msg.sender]).length == 0);\r\n        require(msg.sender != user);\r\n        if (keccak256(abi.encodePacked(_vote)) == keccak256(abi.encodePacked(\"Rifiutato\"))) {\r\n            addBalance(msg.value);\r\n        }\r\n        \r\n        voterAddresses.push(msg.sender);\r\n        vote[msg.sender] = _vote;\r\n    }\r\n\r\n    function getId() public view returns (string memory){\r\n        return id;\r\n    } \r\n\r\n    function setId(string memory _id) public{\r\n        id = _id;\r\n    }\r\n\r\n    function getName() public view returns (string memory){\r\n        return name;\r\n    }\r\n\r\n    function setName(string memory _name) public{\r\n        name = _name;\r\n    }\r\n\r\n    function getUser() public view returns (address){\r\n        return user;\r\n    }\r\n\r\n    function setUser(address _user) public{\r\n        user = _user;\r\n    } \r\n\r\n    function getState() public view returns (string memory){\r\n        return state;\r\n    }\r\n\r\n    function setState(string memory _state) public{\r\n        if(keccak256(abi.encodePacked(state)) == keccak256(abi.encodePacked(\"attesa\"))){\r\n            state = _state;\r\n        }\r\n\r\n        if(keccak256(abi.encodePacked(_state)) == keccak256(abi.encodePacked(\"attesa\"))){\r\n            state = _state;\r\n        }\r\n    }\r\n\r\n    function getWinner() private returns (string memory winnerType, uint winnerVotes) {\r\n        require(voterAddresses.length > 0);\r\n        uint confirmedVotes = 0;\r\n        uint rejectedVotes = 0;\r\n\r\n        for (uint i = 0; i < voterAddresses.length; i++) {\r\n            string memory voteType = vote[voterAddresses[i]];\r\n            if (keccak256(abi.encodePacked(voteType)) == keccak256(abi.encodePacked(\"Confermato\"))) {\r\n                confirmedVotes++;\r\n            } else if (keccak256(abi.encodePacked(voteType)) == keccak256(abi.encodePacked(\"Rifiutato\"))) {\r\n                rejectedVotes++;\r\n            }\r\n        }\r\n\r\n        if (confirmedVotes >= rejectedVotes) {\r\n            setState(\"Confermato\");\r\n            return (\"Confermato\", confirmedVotes);\r\n        } else if (rejectedVotes > confirmedVotes) {\r\n            setState(\"Rifiutato\");\r\n            return (\"Rifiutato\", rejectedVotes);\r\n        }\r\n    }\r\n\r\n\r\n    function rewardWinners(uint256 time) public payable{\r\n        require(keccak256(abi.encodePacked(getState())) == keccak256(abi.encodePacked(\"attesa\")));\r\n        require((time - creationTime) >= 60000, \"Tempo scaduto\");\r\n        (string memory winnerType, uint winnerVotes) = getWinner();\r\n        \r\n        if(keccak256(abi.encodePacked(winnerType)) == keccak256(abi.encodePacked(\"Confermato\"))){\r\n            \r\n            for (uint i = 0; i < voterAddresses.length; i++) {\r\n                string memory voteType = vote[voterAddresses[i]];\r\n                if (keccak256(abi.encodePacked(voteType)) == keccak256(abi.encodePacked(winnerType))) {\r\n                    payable(voterAddresses[i]).transfer(300000000000000000);\r\n                }\r\n            }\r\n        }else if(keccak256(abi.encodePacked(winnerType)) == keccak256(abi.encodePacked(\"Rifiutato\"))){\r\n            \r\n            for (uint i = 0; i < voterAddresses.length; i++) {\r\n                string memory voteType = vote[voterAddresses[i]];\r\n                if (keccak256(abi.encodePacked(voteType)) == keccak256(abi.encodePacked(winnerType))) {\r\n                    payable(voterAddresses[i]).transfer(1300000000000000000);\r\n                }\r\n            }\r\n        }\r\n    }\r\n\r\n    function checkExpiration(uint256 time) public returns(bool){\r\n        if((time - creationTime) >= 60000){\r\n            return false;\r\n        }\r\n        return true;\r\n    }\r\n\r\n    \r\n}",
  "sourcePath": "C:\\Users\\dario\\OneDrive\\Desktop\\Brevetti\\Brevetti_3.0\\contracts\\Brevetto.sol",
  "compiler": {
    "name": "solc",
    "version": "0.8.19+commit.7dd6d404.Emscripten.clang"
  },
  "schemaVersion": "3.4.16",
  "updatedAt": "2024-02-26T19:21:28.817Z",
  "networkType": "ethereum",
  "devdoc": {
    "kind": "dev",
    "methods": {},
    "version": 1
  },
  "userdoc": {
    "kind": "user",
    "methods": {},
    "version": 1
  }
}