{
  "contractName": "Brevetto",
  "abi": [
    {
      "inputs": [],
      "payable": false,
      "stateMutability": "nonpayable",
      "type": "constructor"
    },
    {
      "constant": false,
      "inputs": [
        {
          "internalType": "uint256",
          "name": "et",
          "type": "uint256"
        }
      ],
      "name": "setBalance",
      "outputs": [],
      "payable": true,
      "stateMutability": "payable",
      "type": "function"
    },
    {
      "constant": true,
      "inputs": [],
      "name": "getVoterAddresses",
      "outputs": [
        {
          "internalType": "address[]",
          "name": "",
          "type": "address[]"
        }
      ],
      "payable": false,
      "stateMutability": "view",
      "type": "function"
    },
    {
      "constant": true,
      "inputs": [],
      "name": "getVotes",
      "outputs": [
        {
          "internalType": "address[]",
          "name": "",
          "type": "address[]"
        },
        {
          "internalType": "string[]",
          "name": "",
          "type": "string[]"
        }
      ],
      "payable": false,
      "stateMutability": "view",
      "type": "function"
    },
    {
      "constant": false,
      "inputs": [
        {
          "internalType": "string",
          "name": "_vote",
          "type": "string"
        }
      ],
      "name": "addVoter",
      "outputs": [],
      "payable": true,
      "stateMutability": "payable",
      "type": "function"
    },
    {
      "constant": true,
      "inputs": [],
      "name": "getId",
      "outputs": [
        {
          "internalType": "string",
          "name": "",
          "type": "string"
        }
      ],
      "payable": false,
      "stateMutability": "view",
      "type": "function"
    },
    {
      "constant": false,
      "inputs": [
        {
          "internalType": "string",
          "name": "_id",
          "type": "string"
        }
      ],
      "name": "setId",
      "outputs": [],
      "payable": false,
      "stateMutability": "nonpayable",
      "type": "function"
    },
    {
      "constant": true,
      "inputs": [],
      "name": "getName",
      "outputs": [
        {
          "internalType": "string",
          "name": "",
          "type": "string"
        }
      ],
      "payable": false,
      "stateMutability": "view",
      "type": "function"
    },
    {
      "constant": false,
      "inputs": [
        {
          "internalType": "string",
          "name": "_name",
          "type": "string"
        }
      ],
      "name": "setName",
      "outputs": [],
      "payable": false,
      "stateMutability": "nonpayable",
      "type": "function"
    },
    {
      "constant": true,
      "inputs": [],
      "name": "getUser",
      "outputs": [
        {
          "internalType": "address",
          "name": "",
          "type": "address"
        }
      ],
      "payable": false,
      "stateMutability": "view",
      "type": "function"
    },
    {
      "constant": false,
      "inputs": [
        {
          "internalType": "address",
          "name": "_user",
          "type": "address"
        }
      ],
      "name": "setUser",
      "outputs": [],
      "payable": false,
      "stateMutability": "nonpayable",
      "type": "function"
    },
    {
      "constant": true,
      "inputs": [],
      "name": "getState",
      "outputs": [
        {
          "internalType": "string",
          "name": "",
          "type": "string"
        }
      ],
      "payable": false,
      "stateMutability": "view",
      "type": "function"
    },
    {
      "constant": false,
      "inputs": [
        {
          "internalType": "string",
          "name": "_state",
          "type": "string"
        }
      ],
      "name": "setState",
      "outputs": [],
      "payable": false,
      "stateMutability": "nonpayable",
      "type": "function"
    }
  ],
  "bytecode": "0x608060405234801561001057600080fd5b50476004819055506112eb806100276000396000f3fe6080604052600436106100a75760003560e01c8063832880e711610064578063832880e7146101ad578063858ced35146101d857806387e4396c14610201578063aca848921461022a578063c47f002714610246578063fb1669ca1461026f576100a7565b80630a16e30b146100ac5780630dc96015146100d757806317d7de7c146101035780631865c57d1461012e5780635d1ca6311461015957806368794b8714610184575b600080fd5b3480156100b857600080fd5b506100c161028b565b6040516100ce919061104d565b60405180910390f35b3480156100e357600080fd5b506100ec610319565b6040516100fa92919061106f565b60405180910390f35b34801561010f57600080fd5b5061011861053c565b60405161012591906110a6565b60405180910390f35b34801561013a57600080fd5b506101436105de565b60405161015091906110a6565b60405180910390f35b34801561016557600080fd5b5061016e610680565b60405161017b91906110a6565b60405180910390f35b34801561019057600080fd5b506101ab60048036036101a69190810190610c5d565b610722565b005b3480156101b957600080fd5b506101c261078c565b6040516101cf9190611032565b60405180910390f35b3480156101e457600080fd5b506101ff60048036036101fa9190810190610c34565b6107b6565b005b34801561020d57600080fd5b5061022860048036036102239190810190610ca2565b6107fa565b005b610244600480360361023f9190810190610ca2565b610814565b005b34801561025257600080fd5b5061026d60048036036102689190810190610ca2565b6109e8565b005b61028960048036036102849190810190610ce3565b610a02565b005b6060600680548060200260200160405190810160405280929190818152602001828054801561030f57602002820191906000526020600020905b8160009054906101000a900473ffffffffffffffffffffffffffffffffffffffff1673ffffffffffffffffffffffffffffffffffffffff16815260200190600101908083116102c5575b5050505050905090565b6060806000600680549050905060608160405190808252806020026020018201604052801561035c57816020015b60608152602001906001900390816103475790505b50905060008090505b828110156104a65760006006828154811061037c57fe5b9060005260206000200160009054906101000a900473ffffffffffffffffffffffffffffffffffffffff169050600560008273ffffffffffffffffffffffffffffffffffffffff1673ffffffffffffffffffffffffffffffffffffffff1681526020019081526020016000208054600181600116156101000203166002900480601f01602080910402602001604051908101604052809291908181526020018280546001816001161561010002031660029004801561047c5780601f106104515761010080835404028352916020019161047c565b820191906000526020600020905b81548152906001019060200180831161045f57829003601f168201915b505050505083838151811061048d57fe5b6020026020010181905250508080600101915050610365565b506006818180548060200260200160405190810160405280929190818152602001828054801561052b57602002820191906000526020600020905b8160009054906101000a900473ffffffffffffffffffffffffffffffffffffffff1673ffffffffffffffffffffffffffffffffffffffff16815260200190600101908083116104e1575b505050505091509350935050509091565b606060018054600181600116156101000203166002900480601f0160208091040260200160405190810160405280929190818152602001828054600181600116156101000203166002900480156105d45780601f106105a9576101008083540402835291602001916105d4565b820191906000526020600020905b8154815290600101906020018083116105b757829003601f168201915b5050505050905090565b606060038054600181600116156101000203166002900480601f0160208091040260200160405190810160405280929190818152602001828054600181600116156101000203166002900480156106765780601f1061064b57610100808354040283529160200191610676565b820191906000526020600020905b81548152906001019060200180831161065957829003601f168201915b5050505050905090565b606060008054600181600116156101000203166002900480601f0160208091040260200160405190810160405280929190818152602001828054600181600116156101000203166002900480156107185780601f106106ed57610100808354040283529160200191610718565b820191906000526020600020905b8154815290600101906020018083116106fb57829003601f168201915b5050505050905090565b6040516020016107319061101d565b6040516020818303038152906040528051906020012060036040516020016107599190610ff1565b60405160208183030381529060405280519060200120141561078857818160039190610786929190610a47565b505b5050565b6000600260009054906101000a900473ffffffffffffffffffffffffffffffffffffffff16905090565b80600260006101000a81548173ffffffffffffffffffffffffffffffffffffffff021916908373ffffffffffffffffffffffffffffffffffffffff16021790555050565b8060009080519060200190610810929190610ac7565b5050565b6000600560003373ffffffffffffffffffffffffffffffffffffffff1673ffffffffffffffffffffffffffffffffffffffff1681526020019081526020016000208054600181600116156101000203166002900490501461087457600080fd5b600260009054906101000a900473ffffffffffffffffffffffffffffffffffffffff1673ffffffffffffffffffffffffffffffffffffffff163373ffffffffffffffffffffffffffffffffffffffff1614156108cf57600080fd5b6040516020016108de90611008565b60405160208183030381529060405280519060200120816040516020016109059190610fda565b60405160208183030381529060405280519060200120141561092b5761092a34610a20565b5b60063390806001815401808255809150509060018203906000526020600020016000909192909190916101000a81548173ffffffffffffffffffffffffffffffffffffffff021916908373ffffffffffffffffffffffffffffffffffffffff1602179055505080600560003373ffffffffffffffffffffffffffffffffffffffff1673ffffffffffffffffffffffffffffffffffffffff16815260200190815260200160002090805190602001906109e4929190610ac7565b5050565b80600190805190602001906109fe929190610ac7565b5050565b6729a2241af62c00008114610a1657600080fd5b8060048190555050565b670de0b6b3a76400008114610a3457600080fd5b8060046000828254019250508190555050565b828054600181600116156101000203166002900490600052602060002090601f016020900481019282601f10610a8857803560ff1916838001178555610ab6565b82800160010185558215610ab6579182015b82811115610ab5578235825591602001919060010190610a9a565b5b509050610ac39190610b47565b5090565b828054600181600116156101000203166002900490600052602060002090601f016020900481019282601f10610b0857805160ff1916838001178555610b36565b82800160010185558215610b36579182015b82811115610b35578251825591602001919060010190610b1a565b5b509050610b439190610b47565b5090565b610b6991905b80821115610b65576000816000905550600101610b4d565b5090565b90565b600081359050610b7b8161127a565b92915050565b60008083601f840112610b9357600080fd5b8235905067ffffffffffffffff811115610bac57600080fd5b602083019150836001820283011115610bc457600080fd5b9250929050565b600082601f830112610bdc57600080fd5b8135610bef610bea826110f5565b6110c8565b91508082526020830160208301858383011115610c0b57600080fd5b610c16838284611227565b50505092915050565b600081359050610c2e81611291565b92915050565b600060208284031215610c4657600080fd5b6000610c5484828501610b6c565b91505092915050565b60008060208385031215610c7057600080fd5b600083013567ffffffffffffffff811115610c8a57600080fd5b610c9685828601610b81565b92509250509250929050565b600060208284031215610cb457600080fd5b600082013567ffffffffffffffff811115610cce57600080fd5b610cda84828501610bcb565b91505092915050565b600060208284031215610cf557600080fd5b6000610d0384828501610c1f565b91505092915050565b6000610d188383610d38565b60208301905092915050565b6000610d308383610e93565b905092915050565b610d41816111eb565b82525050565b610d50816111eb565b82525050565b6000610d6182611156565b610d6b818561119c565b9350610d7683611121565b8060005b83811015610da7578151610d8e8882610d0c565b9750610d9983611182565b925050600181019050610d7a565b5085935050505092915050565b6000610dbf82611161565b610dc981856111ad565b935083602082028501610ddb85611131565b8060005b85811015610e175784840389528151610df88582610d24565b9450610e038361118f565b925060208a01995050600181019050610ddf565b50829750879550505050505092915050565b6000610e3482611177565b610e3e81856111cf565b9350610e4e818560208601611236565b610e5781611269565b840191505092915050565b6000610e6d82611177565b610e7781856111e0565b9350610e87818560208601611236565b80840191505092915050565b6000610e9e8261116c565b610ea881856111be565b9350610eb8818560208601611236565b610ec181611269565b840191505092915050565b600081546001811660008114610ee95760018114610f0e57610f52565b607f6002830416610efa81876111e0565b955060ff1983168652808601935050610f52565b60028204610f1c81876111e0565b9550610f2785611141565b60005b82811015610f4957815481890152600182019150602081019050610f2a565b82880195505050505b505092915050565b6000610f676009836111e0565b91507f52696669757461746f00000000000000000000000000000000000000000000006000830152600982019050919050565b6000610fa76006836111e0565b91507f61747465736100000000000000000000000000000000000000000000000000006000830152600682019050919050565b6000610fe68284610e62565b915081905092915050565b6000610ffd8284610ecc565b915081905092915050565b600061101382610f5a565b9150819050919050565b600061102882610f9a565b9150819050919050565b60006020820190506110476000830184610d47565b92915050565b600060208201905081810360008301526110678184610d56565b905092915050565b600060408201905081810360008301526110898185610d56565b9050818103602083015261109d8184610db4565b90509392505050565b600060208201905081810360008301526110c08184610e29565b905092915050565b6000604051905081810181811067ffffffffffffffff821117156110eb57600080fd5b8060405250919050565b600067ffffffffffffffff82111561110c57600080fd5b601f19601f8301169050602081019050919050565b6000819050602082019050919050565b6000819050602082019050919050565b60008190508160005260206000209050919050565b600081519050919050565b600081519050919050565b600081519050919050565b600081519050919050565b6000602082019050919050565b6000602082019050919050565b600082825260208201905092915050565b600082825260208201905092915050565b600082825260208201905092915050565b600082825260208201905092915050565b600081905092915050565b60006111f6826111fd565b9050919050565b600073ffffffffffffffffffffffffffffffffffffffff82169050919050565b6000819050919050565b82818337600083830152505050565b60005b83811015611254578082015181840152602081019050611239565b83811115611263576000848401525b50505050565b6000601f19601f8301169050919050565b611283816111eb565b811461128e57600080fd5b50565b61129a8161121d565b81146112a557600080fd5b5056fea365627a7a723158209f4d926888412767686a3b37587e03fe2d51d6204871c1082c5dc49de4532d2b6c6578706572696d656e74616cf564736f6c63430005100040",
  "source": "// SPDX-License-Identifier: MIT\r\npragma solidity >=0.4.22 <0.8.22;\r\npragma experimental ABIEncoderV2;\r\n\r\ncontract Brevetto{\r\n    string private  id; //hash del documento\r\n    string private  name;\r\n    address private  user;\r\n    string private  state;\r\n    uint private balance;\r\n    mapping(address=>string) private vote;\r\n    address[] private voterAddresses;\r\n\r\n    \r\n    constructor() public {\r\n        balance = address(this).balance;\r\n    }\r\n\r\n    //function() external payable{}\r\n\r\n    \r\n\r\n    function addBalance(uint et) private {\r\n        require(et == 1 ether);\r\n        balance += et;\r\n    }\r\n\r\n    function setBalance(uint et) public payable{\r\n        require(et == 3 ether);\r\n        balance = et;\r\n    }\r\n\r\n    function getVoterAddresses() public view returns (address[] memory){\r\n        return voterAddresses;\r\n    } \r\n\r\n    function getVotes() public view returns (address[] memory, string[] memory) {\r\n        uint256 votersCount = voterAddresses.length;\r\n        string[] memory votesList = new string[](votersCount);\r\n        for (uint256 i = 0; i < votersCount; i++) {\r\n            address voter = voterAddresses[i];\r\n            votesList[i] = vote[voter];\r\n        }\r\n        return (voterAddresses, votesList);\r\n    }\r\n\r\n    function addVoter(string memory _vote) public payable{\r\n        require(bytes(vote[msg.sender]).length == 0);\r\n        require(msg.sender != user);\r\n        if (keccak256(abi.encodePacked(_vote)) == keccak256(abi.encodePacked(\"Rifiutato\"))) {\r\n            addBalance(msg.value);\r\n        }\r\n        voterAddresses.push(msg.sender);\r\n        vote[msg.sender] = _vote;\r\n    }\r\n    \r\n\r\n    function getId() public view returns (string memory){\r\n        return id;\r\n    } \r\n\r\n    function setId(string memory _id) public{\r\n        id = _id;\r\n    }\r\n\r\n    function getName() public view returns (string memory){\r\n        return name;\r\n    }\r\n\r\n    function setName(string memory _name) public{\r\n        name = _name;\r\n    }\r\n\r\n    function getUser() public view returns (address){\r\n        return user;\r\n    }\r\n\r\n    function setUser(address _user) public{\r\n        user = _user;\r\n    } \r\n\r\n\r\n    function getState() public view returns (string memory){\r\n        return state;\r\n    }\r\n\r\n    function setState(string calldata _state) external{\r\n        if(keccak256(abi.encodePacked(state)) == keccak256(abi.encodePacked(\"attesa\"))){\r\n            state = _state;\r\n        }\r\n    }\r\n}",
  "sourcePath": "C:\\Users\\dario\\OneDrive\\Desktop\\Brevetti\\Brevetti_3.0\\contracts\\Brevetto.sol",
  "compiler": {
    "name": "solc",
    "version": "0.5.16+commit.9c3226ce.Emscripten.clang"
  },
  "schemaVersion": "3.4.16",
  "updatedAt": "2024-02-20T22:12:34.877Z",
  "networkType": "ethereum",
  "devdoc": {
    "methods": {}
  },
  "userdoc": {
    "methods": {}
  }
}