{
  "contractName": "Brevetto",
  "abi": [
    {
      "inputs": [],
      "stateMutability": "nonpayable",
      "type": "constructor"
    },
    {
      "inputs": [],
      "name": "getCreationTime",
      "outputs": [
        {
          "internalType": "uint256",
          "name": "",
          "type": "uint256"
        }
      ],
      "stateMutability": "view",
      "type": "function",
      "constant": true
    },
    {
      "inputs": [],
      "name": "getExpiryTime",
      "outputs": [
        {
          "internalType": "uint256",
          "name": "",
          "type": "uint256"
        }
      ],
      "stateMutability": "view",
      "type": "function",
      "constant": true
    },
    {
      "inputs": [],
      "name": "setBalance",
      "outputs": [],
      "stateMutability": "payable",
      "type": "function",
      "payable": true
    },
    {
      "inputs": [],
      "name": "getBalance",
      "outputs": [
        {
          "internalType": "uint256",
          "name": "",
          "type": "uint256"
        }
      ],
      "stateMutability": "view",
      "type": "function",
      "constant": true
    },
    {
      "inputs": [],
      "name": "getVoterAddresses",
      "outputs": [
        {
          "internalType": "address[]",
          "name": "",
          "type": "address[]"
        }
      ],
      "stateMutability": "view",
      "type": "function",
      "constant": true
    },
    {
      "inputs": [],
      "name": "getVotes",
      "outputs": [
        {
          "internalType": "address[]",
          "name": "",
          "type": "address[]"
        },
        {
          "internalType": "string[]",
          "name": "",
          "type": "string[]"
        }
      ],
      "stateMutability": "view",
      "type": "function",
      "constant": true
    },
    {
      "inputs": [
        {
          "internalType": "string",
          "name": "_vote",
          "type": "string"
        }
      ],
      "name": "addVoter",
      "outputs": [],
      "stateMutability": "payable",
      "type": "function",
      "payable": true
    },
    {
      "inputs": [],
      "name": "getId",
      "outputs": [
        {
          "internalType": "string",
          "name": "",
          "type": "string"
        }
      ],
      "stateMutability": "view",
      "type": "function",
      "constant": true
    },
    {
      "inputs": [
        {
          "internalType": "string",
          "name": "_id",
          "type": "string"
        }
      ],
      "name": "setId",
      "outputs": [],
      "stateMutability": "nonpayable",
      "type": "function"
    },
    {
      "inputs": [],
      "name": "getName",
      "outputs": [
        {
          "internalType": "string",
          "name": "",
          "type": "string"
        }
      ],
      "stateMutability": "view",
      "type": "function",
      "constant": true
    },
    {
      "inputs": [
        {
          "internalType": "string",
          "name": "_name",
          "type": "string"
        }
      ],
      "name": "setName",
      "outputs": [],
      "stateMutability": "nonpayable",
      "type": "function"
    },
    {
      "inputs": [],
      "name": "getUser",
      "outputs": [
        {
          "internalType": "address",
          "name": "",
          "type": "address"
        }
      ],
      "stateMutability": "view",
      "type": "function",
      "constant": true
    },
    {
      "inputs": [
        {
          "internalType": "address",
          "name": "_user",
          "type": "address"
        }
      ],
      "name": "setUser",
      "outputs": [],
      "stateMutability": "nonpayable",
      "type": "function"
    },
    {
      "inputs": [],
      "name": "getState",
      "outputs": [
        {
          "internalType": "string",
          "name": "",
          "type": "string"
        }
      ],
      "stateMutability": "view",
      "type": "function",
      "constant": true
    },
    {
      "inputs": [
        {
          "internalType": "string",
          "name": "_state",
          "type": "string"
        }
      ],
      "name": "setState",
      "outputs": [],
      "stateMutability": "nonpayable",
      "type": "function"
    },
    {
      "inputs": [],
      "name": "rewardWinners",
      "outputs": [],
      "stateMutability": "payable",
      "type": "function",
      "payable": true
    }
  ],
  "bytecode": "0x6080604052602d60085534801561001557600080fd5b504260078190555061210d8061002c6000396000f3fe6080604052600436106100f35760003560e01c806368794b871161008a578063aca8489211610059578063aca84892146102d6578063c47f0027146102f2578063e6519a351461031b578063ff28d2da14610346576100f3565b806368794b8714610230578063832880e714610259578063858ced351461028457806387e4396c146102ad576100f3565b80631865c57d116100c65780631865c57d146101a55780631a61746e146101d057806325cb5bc0146101da5780635d1ca63114610205576100f3565b80630a16e30b146100f85780630dc960151461012357806312065fe01461014f57806317d7de7c1461017a575b600080fd5b34801561010457600080fd5b5061010d610350565b60405161011a919061157d565b60405180910390f35b34801561012f57600080fd5b506101386103de565b6040516101469291906116f1565b60405180910390f35b34801561015b57600080fd5b5061016461061b565b6040516101719190611741565b60405180910390f35b34801561018657600080fd5b5061018f610625565b60405161019c91906117a6565b60405180910390f35b3480156101b157600080fd5b506101ba6106b7565b6040516101c791906117a6565b60405180910390f35b6101d8610749565b005b3480156101e657600080fd5b506101ef61079c565b6040516101fc9190611741565b60405180910390f35b34801561021157600080fd5b5061021a6107a6565b60405161022791906117a6565b60405180910390f35b34801561023c57600080fd5b5061025760048036038101906102529190611911565b610838565b005b34801561026557600080fd5b5061026e610900565b60405161027b9190611969565b60405180910390f35b34801561029057600080fd5b506102ab60048036038101906102a691906119b0565b61092a565b005b3480156102b957600080fd5b506102d460048036038101906102cf9190611911565b61096e565b005b6102f060048036038101906102eb9190611911565b610981565b005b3480156102fe57600080fd5b5061031960048036038101906103149190611911565b610b92565b005b34801561032757600080fd5b50610330610ba5565b60405161033d9190611741565b60405180910390f35b61034e610baf565b005b606060068054806020026020016040519081016040528092919081815260200182805480156103d457602002820191906000526020600020905b8160009054906101000a900473ffffffffffffffffffffffffffffffffffffffff1673ffffffffffffffffffffffffffffffffffffffff168152602001906001019080831161038a575b5050505050905090565b6060806000600680549050905060008167ffffffffffffffff811115610407576104066117e6565b5b60405190808252806020026020018201604052801561043a57816020015b60608152602001906001900390816104255790505b50905060005b828110156105855760006006828154811061045e5761045d6119dd565b5b9060005260206000200160009054906101000a900473ffffffffffffffffffffffffffffffffffffffff169050600560008273ffffffffffffffffffffffffffffffffffffffff1673ffffffffffffffffffffffffffffffffffffffff16815260200190815260200160002080546104d590611a3b565b80601f016020809104026020016040519081016040528092919081815260200182805461050190611a3b565b801561054e5780601f106105235761010080835404028352916020019161054e565b820191906000526020600020905b81548152906001019060200180831161053157829003601f168201915b5050505050838381518110610566576105656119dd565b5b602002602001018190525050808061057d90611a9b565b915050610440565b506006818180548060200260200160405190810160405280929190818152602001828054801561060a57602002820191906000526020600020905b8160009054906101000a900473ffffffffffffffffffffffffffffffffffffffff1673ffffffffffffffffffffffffffffffffffffffff16815260200190600101908083116105c0575b505050505091509350935050509091565b6000600454905090565b60606001805461063490611a3b565b80601f016020809104026020016040519081016040528092919081815260200182805461066090611a3b565b80156106ad5780601f10610682576101008083540402835291602001916106ad565b820191906000526020600020905b81548152906001019060200180831161069057829003601f168201915b5050505050905090565b6060600380546106c690611a3b565b80601f01602080910402602001604051908101604052809291908181526020018280546106f290611a3b565b801561073f5780601f106107145761010080835404028352916020019161073f565b820191906000526020600020905b81548152906001019060200180831161072257829003601f168201915b5050505050905090565b6729a2241af62c00003414610793576040517f08c379a000000000000000000000000000000000000000000000000000000000815260040161078a90611b55565b60405180910390fd5b34600481905550565b6000600854905090565b6060600080546107b590611a3b565b80601f01602080910402602001604051908101604052809291908181526020018280546107e190611a3b565b801561082e5780601f106108035761010080835404028352916020019161082e565b820191906000526020600020905b81548152906001019060200180831161081157829003601f168201915b5050505050905090565b60405160200161084790611bcc565b60405160208183030381529060405280519060200120600360405160200161086f9190611c79565b604051602081830303815290604052805190602001200361089b5780600390816108999190611e27565b505b6040516020016108aa90611bcc565b60405160208183030381529060405280519060200120816040516020016108d19190611f2a565b60405160208183030381529060405280519060200120036108fd5780600390816108fb9190611e27565b505b50565b6000600260009054906101000a900473ffffffffffffffffffffffffffffffffffffffff16905090565b80600260006101000a81548173ffffffffffffffffffffffffffffffffffffffff021916908373ffffffffffffffffffffffffffffffffffffffff16021790555050565b806000908161097d9190611e27565b5050565b603c600754426109919190611f41565b11156109d2576040517f08c379a00000000000000000000000000000000000000000000000000000000081526004016109c990611fc1565b60405180910390fd5b6000600560003373ffffffffffffffffffffffffffffffffffffffff1673ffffffffffffffffffffffffffffffffffffffff1681526020019081526020016000208054610a1e90611a3b565b905014610a2a57600080fd5b600260009054906101000a900473ffffffffffffffffffffffffffffffffffffffff1673ffffffffffffffffffffffffffffffffffffffff163373ffffffffffffffffffffffffffffffffffffffff1603610a8457600080fd5b604051602001610a939061202d565b6040516020818303038152906040528051906020012081604051602001610aba9190611f2a565b6040516020818303038152906040528051906020012003610adf57610ade34611139565b5b6006339080600181540180825580915050600190039060005260206000200160009091909190916101000a81548173ffffffffffffffffffffffffffffffffffffffff021916908373ffffffffffffffffffffffffffffffffffffffff16021790555080600560003373ffffffffffffffffffffffffffffffffffffffff1673ffffffffffffffffffffffffffffffffffffffff1681526020019081526020016000209081610b8e9190611e27565b5050565b8060019081610ba19190611e27565b5050565b6000600754905090565b604051602001610bbe90611bcc565b60405160208183030381529060405280519060200120610bdc6106b7565b604051602001610bec9190611f2a565b6040516020818303038152906040528051906020012014610c0c57600080fd5b603c60075442610c1c9190611f41565b1015610c5d576040517f08c379a0000000000000000000000000000000000000000000000000000000008152600401610c5490611fc1565b60405180910390fd5b600080610c68611169565b91509150604051602001610c7b9061208e565b6040516020818303038152906040528051906020012082604051602001610ca29190611f2a565b6040516020818303038152906040528051906020012003610ed25760005b600680549050811015610ecc5760006005600060068481548110610ce757610ce66119dd565b5b9060005260206000200160009054906101000a900473ffffffffffffffffffffffffffffffffffffffff1673ffffffffffffffffffffffffffffffffffffffff1673ffffffffffffffffffffffffffffffffffffffff1681526020019081526020016000208054610d5790611a3b565b80601f0160208091040260200160405190810160405280929190818152602001828054610d8390611a3b565b8015610dd05780601f10610da557610100808354040283529160200191610dd0565b820191906000526020600020905b815481529060010190602001808311610db357829003601f168201915b5050505050905083604051602001610de89190611f2a565b6040516020818303038152906040528051906020012081604051602001610e0f9190611f2a565b6040516020818303038152906040528051906020012003610eb85760068281548110610e3e57610e3d6119dd565b5b9060005260206000200160009054906101000a900473ffffffffffffffffffffffffffffffffffffffff1673ffffffffffffffffffffffffffffffffffffffff166108fc670429d069189e00009081150290604051600060405180830381858888f19350505050158015610eb6573d6000803e3d6000fd5b505b508080610ec490611a9b565b915050610cc0565b50611135565b604051602001610ee19061202d565b6040516020818303038152906040528051906020012082604051602001610f089190611f2a565b60405160208183030381529060405280519060200120036111345760005b6006805490508110156111325760006005600060068481548110610f4d57610f4c6119dd565b5b9060005260206000200160009054906101000a900473ffffffffffffffffffffffffffffffffffffffff1673ffffffffffffffffffffffffffffffffffffffff1673ffffffffffffffffffffffffffffffffffffffff1681526020019081526020016000208054610fbd90611a3b565b80601f0160208091040260200160405190810160405280929190818152602001828054610fe990611a3b565b80156110365780601f1061100b57610100808354040283529160200191611036565b820191906000526020600020905b81548152906001019060200180831161101957829003601f168201915b505050505090508360405160200161104e9190611f2a565b60405160208183030381529060405280519060200120816040516020016110759190611f2a565b604051602081830303815290604052805190602001200361111e57600682815481106110a4576110a36119dd565b5b9060005260206000200160009054906101000a900473ffffffffffffffffffffffffffffffffffffffff1673ffffffffffffffffffffffffffffffffffffffff166108fc67120a871cc00200009081150290604051600060405180830381858888f1935050505015801561111c573d6000803e3d6000fd5b505b50808061112a90611a9b565b915050610f26565b505b5b5050565b670de0b6b3a7640000811461114d57600080fd5b806004600082825461115f91906120a3565b9250508190555050565b60606000806006805490501161117e57600080fd5b60008060005b60068054905081101561137457600060056000600684815481106111ab576111aa6119dd565b5b9060005260206000200160009054906101000a900473ffffffffffffffffffffffffffffffffffffffff1673ffffffffffffffffffffffffffffffffffffffff1673ffffffffffffffffffffffffffffffffffffffff168152602001908152602001600020805461121b90611a3b565b80601f016020809104026020016040519081016040528092919081815260200182805461124790611a3b565b80156112945780601f1061126957610100808354040283529160200191611294565b820191906000526020600020905b81548152906001019060200180831161127757829003601f168201915b505050505090506040516020016112aa9061208e565b60405160208183030381529060405280519060200120816040516020016112d19190611f2a565b60405160208183030381529060405280519060200120036112ff5783806112f790611a9b565b945050611360565b60405160200161130e9061202d565b60405160208183030381529060405280519060200120816040516020016113359190611f2a565b604051602081830303815290604052805190602001200361135f57828061135b90611a9b565b9350505b5b50808061136c90611a9b565b915050611184565b508082106113fd576113ba6040518060400160405280600a81526020017f436f6e6665726d61746f00000000000000000000000000000000000000000000815250610838565b816040518060400160405280600a81526020017f436f6e6665726d61746f0000000000000000000000000000000000000000000081525090935093505050611489565b81811115611486576114436040518060400160405280600981526020017f52696669757461746f0000000000000000000000000000000000000000000000815250610838565b806040518060400160405280600981526020017f52696669757461746f000000000000000000000000000000000000000000000081525090935093505050611489565b50505b9091565b600081519050919050565b600082825260208201905092915050565b6000819050602082019050919050565b600073ffffffffffffffffffffffffffffffffffffffff82169050919050565b60006114e4826114b9565b9050919050565b6114f4816114d9565b82525050565b600061150683836114eb565b60208301905092915050565b6000602082019050919050565b600061152a8261148d565b6115348185611498565b935061153f836114a9565b8060005b8381101561157057815161155788826114fa565b975061156283611512565b925050600181019050611543565b5085935050505092915050565b60006020820190508181036000830152611597818461151f565b905092915050565b600081519050919050565b600082825260208201905092915050565b6000819050602082019050919050565b600081519050919050565b600082825260208201905092915050565b60005b838110156116055780820151818401526020810190506115ea565b60008484015250505050565b6000601f19601f8301169050919050565b600061162d826115cb565b61163781856115d6565b93506116478185602086016115e7565b61165081611611565b840191505092915050565b60006116678383611622565b905092915050565b6000602082019050919050565b60006116878261159f565b61169181856115aa565b9350836020820285016116a3856115bb565b8060005b858110156116df57848403895281516116c0858261165b565b94506116cb8361166f565b925060208a019950506001810190506116a7565b50829750879550505050505092915050565b6000604082019050818103600083015261170b818561151f565b9050818103602083015261171f818461167c565b90509392505050565b6000819050919050565b61173b81611728565b82525050565b60006020820190506117566000830184611732565b92915050565b600082825260208201905092915050565b6000611778826115cb565b611782818561175c565b93506117928185602086016115e7565b61179b81611611565b840191505092915050565b600060208201905081810360008301526117c0818461176d565b905092915050565b6000604051905090565b600080fd5b600080fd5b600080fd5b600080fd5b7f4e487b7100000000000000000000000000000000000000000000000000000000600052604160045260246000fd5b61181e82611611565b810181811067ffffffffffffffff8211171561183d5761183c6117e6565b5b80604052505050565b60006118506117c8565b905061185c8282611815565b919050565b600067ffffffffffffffff82111561187c5761187b6117e6565b5b61188582611611565b9050602081019050919050565b82818337600083830152505050565b60006118b46118af84611861565b611846565b9050828152602081018484840111156118d0576118cf6117e1565b5b6118db848285611892565b509392505050565b600082601f8301126118f8576118f76117dc565b5b81356119088482602086016118a1565b91505092915050565b600060208284031215611927576119266117d2565b5b600082013567ffffffffffffffff811115611945576119446117d7565b5b611951848285016118e3565b91505092915050565b611963816114d9565b82525050565b600060208201905061197e600083018461195a565b92915050565b61198d816114d9565b811461199857600080fd5b50565b6000813590506119aa81611984565b92915050565b6000602082840312156119c6576119c56117d2565b5b60006119d48482850161199b565b91505092915050565b7f4e487b7100000000000000000000000000000000000000000000000000000000600052603260045260246000fd5b7f4e487b7100000000000000000000000000000000000000000000000000000000600052602260045260246000fd5b60006002820490506001821680611a5357607f821691505b602082108103611a6657611a65611a0c565b5b50919050565b7f4e487b7100000000000000000000000000000000000000000000000000000000600052601160045260246000fd5b6000611aa682611728565b91507fffffffffffffffffffffffffffffffffffffffffffffffffffffffffffffffff8203611ad857611ad7611a6c565b5b600182019050919050565b7f496c2076616c6f72652064656c2073616c646f2064657665206573736572652060008201527f6573617474616d656e7465203320657468657200000000000000000000000000602082015250565b6000611b3f60338361175c565b9150611b4a82611ae3565b604082019050919050565b60006020820190508181036000830152611b6e81611b32565b9050919050565b600081905092915050565b7f6174746573610000000000000000000000000000000000000000000000000000600082015250565b6000611bb6600683611b75565b9150611bc182611b80565b600682019050919050565b6000611bd782611ba9565b9150819050919050565b60008190508160005260206000209050919050565b60008154611c0381611a3b565b611c0d8186611b75565b94506001821660008114611c285760018114611c3d57611c70565b60ff1983168652811515820286019350611c70565b611c4685611be1565b60005b83811015611c6857815481890152600182019150602081019050611c49565b838801955050505b50505092915050565b6000611c858284611bf6565b915081905092915050565b60006020601f8301049050919050565b600082821b905092915050565b600060088302611cdd7fffffffffffffffffffffffffffffffffffffffffffffffffffffffffffffffff82611ca0565b611ce78683611ca0565b95508019841693508086168417925050509392505050565b6000819050919050565b6000611d24611d1f611d1a84611728565b611cff565b611728565b9050919050565b6000819050919050565b611d3e83611d09565b611d52611d4a82611d2b565b848454611cad565b825550505050565b600090565b611d67611d5a565b611d72818484611d35565b505050565b5b81811015611d9657611d8b600082611d5f565b600181019050611d78565b5050565b601f821115611ddb57611dac81611be1565b611db584611c90565b81016020851015611dc4578190505b611dd8611dd085611c90565b830182611d77565b50505b505050565b600082821c905092915050565b6000611dfe60001984600802611de0565b1980831691505092915050565b6000611e178383611ded565b9150826002028217905092915050565b611e30826115cb565b67ffffffffffffffff811115611e4957611e486117e6565b5b611e538254611a3b565b611e5e828285611d9a565b600060209050601f831160018114611e915760008415611e7f578287015190505b611e898582611e0b565b865550611ef1565b601f198416611e9f86611be1565b60005b82811015611ec757848901518255600182019150602085019450602081019050611ea2565b86831015611ee45784890151611ee0601f891682611ded565b8355505b6001600288020188555050505b505050505050565b6000611f04826115cb565b611f0e8185611b75565b9350611f1e8185602086016115e7565b80840191505092915050565b6000611f368284611ef9565b915081905092915050565b6000611f4c82611728565b9150611f5783611728565b9250828203905081811115611f6f57611f6e611a6c565b5b92915050565b7f54656d706f207363616475746f00000000000000000000000000000000000000600082015250565b6000611fab600d8361175c565b9150611fb682611f75565b602082019050919050565b60006020820190508181036000830152611fda81611f9e565b9050919050565b7f52696669757461746f0000000000000000000000000000000000000000000000600082015250565b6000612017600983611b75565b915061202282611fe1565b600982019050919050565b60006120388261200a565b9150819050919050565b7f436f6e6665726d61746f00000000000000000000000000000000000000000000600082015250565b6000612078600a83611b75565b915061208382612042565b600a82019050919050565b60006120998261206b565b9150819050919050565b60006120ae82611728565b91506120b983611728565b92508282019050808211156120d1576120d0611a6c565b5b9291505056fea26469706673582212200f66c05e98b96d14609818464d7133d1acee956fedda9eb6d95cf8acbc9d37b664736f6c63430008130033",
  "immutableReferences": {},
  "source": "pragma solidity >=0.4.20 <=0.8.19;\r\npragma experimental ABIEncoderV2;\r\n\r\ncontract Brevetto{\r\n    string private  id; //hash del documento\r\n    string private  name;\r\n    address private  user;\r\n    string private  state;\r\n    uint256 private balance;\r\n    mapping(address=>string) private vote;\r\n    address[] private voterAddresses;\r\n    uint creationTime;\r\n    uint expiryTime = 45;\r\n\r\n    constructor() {\r\n        creationTime = block.timestamp;\r\n        //expiryTime = 45;\r\n    }\r\n\r\n    function getCreationTime() public view returns(uint){\r\n        return creationTime;\r\n    }\r\n    \r\n    function getExpiryTime() public view returns(uint){\r\n        return expiryTime;\r\n    }\r\n\r\n    function addBalance(uint et) private {\r\n        require(et == 1 ether);\r\n        balance += et;\r\n    }\r\n\r\n    function setBalance() public payable {\r\n        require(msg.value == 3 ether, \"Il valore del saldo deve essere esattamente 3 ether\");\r\n        balance = msg.value;\r\n    }\r\n\r\n    function getBalance() public view returns(uint256){\r\n        return balance;\r\n    }\r\n\r\n    function getVoterAddresses() public view returns (address[] memory){\r\n        return voterAddresses;\r\n    } \r\n\r\n    function getVotes() public view returns (address[] memory, string[] memory) {\r\n        uint256 votersCount = voterAddresses.length;\r\n        string[] memory votesList = new string[](votersCount);\r\n        for (uint256 i = 0; i < votersCount; i++) {\r\n            address voter = voterAddresses[i];\r\n            votesList[i] = vote[voter];\r\n        }\r\n        return (voterAddresses, votesList);\r\n    }\r\n\r\n    function addVoter(string memory _vote) public payable{\r\n        require((block.timestamp - creationTime) <= 60, \"Tempo scaduto\");\r\n        require(bytes(vote[msg.sender]).length == 0);\r\n        require(msg.sender != user);\r\n        if (keccak256(abi.encodePacked(_vote)) == keccak256(abi.encodePacked(\"Rifiutato\"))) {\r\n            addBalance(msg.value);\r\n        }\r\n        \r\n        voterAddresses.push(msg.sender);\r\n        vote[msg.sender] = _vote;\r\n    }\r\n\r\n    function getId() public view returns (string memory){\r\n        return id;\r\n    } \r\n\r\n    function setId(string memory _id) public{\r\n        id = _id;\r\n    }\r\n\r\n    function getName() public view returns (string memory){\r\n        return name;\r\n    }\r\n\r\n    function setName(string memory _name) public{\r\n        name = _name;\r\n    }\r\n\r\n    function getUser() public view returns (address){\r\n        return user;\r\n    }\r\n\r\n    function setUser(address _user) public{\r\n        user = _user;\r\n    } \r\n\r\n    function getState() public view returns (string memory){\r\n        return state;\r\n    }\r\n\r\n    function setState(string memory _state) public{\r\n        if(keccak256(abi.encodePacked(state)) == keccak256(abi.encodePacked(\"attesa\"))){\r\n            state = _state;\r\n        }\r\n\r\n        if(keccak256(abi.encodePacked(_state)) == keccak256(abi.encodePacked(\"attesa\"))){\r\n            state = _state;\r\n        }\r\n    }\r\n\r\n    function getWinner() private returns (string memory winnerType, uint winnerVotes) {\r\n        require(voterAddresses.length > 0);\r\n        uint confirmedVotes = 0;\r\n        uint rejectedVotes = 0;\r\n\r\n        for (uint i = 0; i < voterAddresses.length; i++) {\r\n            string memory voteType = vote[voterAddresses[i]];\r\n            if (keccak256(abi.encodePacked(voteType)) == keccak256(abi.encodePacked(\"Confermato\"))) {\r\n                confirmedVotes++;\r\n            } else if (keccak256(abi.encodePacked(voteType)) == keccak256(abi.encodePacked(\"Rifiutato\"))) {\r\n                rejectedVotes++;\r\n            }\r\n        }\r\n\r\n        if (confirmedVotes >= rejectedVotes) {\r\n            setState(\"Confermato\");\r\n            return (\"Confermato\", confirmedVotes);\r\n        } else if (rejectedVotes > confirmedVotes) {\r\n            setState(\"Rifiutato\");\r\n            return (\"Rifiutato\", rejectedVotes);\r\n        }\r\n    }\r\n\r\n\r\n    function rewardWinners() public payable{\r\n        require(keccak256(abi.encodePacked(getState())) == keccak256(abi.encodePacked(\"attesa\")));\r\n        require((block.timestamp - creationTime) >= 60, \"Tempo scaduto\");\r\n        (string memory winnerType, uint winnerVotes) = getWinner();\r\n        \r\n        if(keccak256(abi.encodePacked(winnerType)) == keccak256(abi.encodePacked(\"Confermato\"))){\r\n            \r\n            for (uint i = 0; i < voterAddresses.length; i++) {\r\n                string memory voteType = vote[voterAddresses[i]];\r\n                if (keccak256(abi.encodePacked(voteType)) == keccak256(abi.encodePacked(winnerType))) {\r\n                    payable(voterAddresses[i]).transfer(300000000000000000);\r\n                }\r\n            }\r\n        }else if(keccak256(abi.encodePacked(winnerType)) == keccak256(abi.encodePacked(\"Rifiutato\"))){\r\n            \r\n            for (uint i = 0; i < voterAddresses.length; i++) {\r\n                string memory voteType = vote[voterAddresses[i]];\r\n                if (keccak256(abi.encodePacked(voteType)) == keccak256(abi.encodePacked(winnerType))) {\r\n                    payable(voterAddresses[i]).transfer(1300000000000000000);\r\n                }\r\n            }\r\n        }\r\n    }\r\n}",
  "sourcePath": "C:\\Users\\dario\\OneDrive\\Desktop\\Brevetti\\Brevetti_3.0\\contracts\\Brevetto.sol",
  "compiler": {
    "name": "solc",
    "version": "0.8.19+commit.7dd6d404.Emscripten.clang"
  },
  "schemaVersion": "3.4.16",
  "updatedAt": "2024-02-25T19:23:41.286Z",
  "networkType": "ethereum",
  "devdoc": {
    "kind": "dev",
    "methods": {},
    "version": 1
  },
  "userdoc": {
    "kind": "user",
    "methods": {},
    "version": 1
  }
}