{
  "contractName": "Brevetto",
  "abi": [
    {
      "inputs": [],
      "stateMutability": "nonpayable",
      "type": "constructor"
    },
    {
      "inputs": [],
      "name": "setBalance",
      "outputs": [],
      "stateMutability": "payable",
      "type": "function",
      "payable": true
    },
    {
      "inputs": [],
      "name": "getVoterAddresses",
      "outputs": [
        {
          "internalType": "address[]",
          "name": "",
          "type": "address[]"
        }
      ],
      "stateMutability": "view",
      "type": "function",
      "constant": true
    },
    {
      "inputs": [],
      "name": "getVotes",
      "outputs": [
        {
          "internalType": "address[]",
          "name": "",
          "type": "address[]"
        },
        {
          "internalType": "string[]",
          "name": "",
          "type": "string[]"
        }
      ],
      "stateMutability": "view",
      "type": "function",
      "constant": true
    },
    {
      "inputs": [
        {
          "internalType": "string",
          "name": "_vote",
          "type": "string"
        }
      ],
      "name": "addVoter",
      "outputs": [],
      "stateMutability": "payable",
      "type": "function",
      "payable": true
    },
    {
      "inputs": [],
      "name": "getId",
      "outputs": [
        {
          "internalType": "string",
          "name": "",
          "type": "string"
        }
      ],
      "stateMutability": "view",
      "type": "function",
      "constant": true
    },
    {
      "inputs": [
        {
          "internalType": "string",
          "name": "_id",
          "type": "string"
        }
      ],
      "name": "setId",
      "outputs": [],
      "stateMutability": "nonpayable",
      "type": "function"
    },
    {
      "inputs": [],
      "name": "getName",
      "outputs": [
        {
          "internalType": "string",
          "name": "",
          "type": "string"
        }
      ],
      "stateMutability": "view",
      "type": "function",
      "constant": true
    },
    {
      "inputs": [
        {
          "internalType": "string",
          "name": "_name",
          "type": "string"
        }
      ],
      "name": "setName",
      "outputs": [],
      "stateMutability": "nonpayable",
      "type": "function"
    },
    {
      "inputs": [],
      "name": "getUser",
      "outputs": [
        {
          "internalType": "address",
          "name": "",
          "type": "address"
        }
      ],
      "stateMutability": "view",
      "type": "function",
      "constant": true
    },
    {
      "inputs": [
        {
          "internalType": "address",
          "name": "_user",
          "type": "address"
        }
      ],
      "name": "setUser",
      "outputs": [],
      "stateMutability": "nonpayable",
      "type": "function"
    },
    {
      "inputs": [],
      "name": "getState",
      "outputs": [
        {
          "internalType": "string",
          "name": "",
          "type": "string"
        }
      ],
      "stateMutability": "view",
      "type": "function",
      "constant": true
    },
    {
      "inputs": [
        {
          "internalType": "string",
          "name": "_state",
          "type": "string"
        }
      ],
      "name": "setState",
      "outputs": [],
      "stateMutability": "nonpayable",
      "type": "function"
    },
    {
      "inputs": [],
      "name": "rewardWinners",
      "outputs": [],
      "stateMutability": "payable",
      "type": "function",
      "payable": true
    },
    {
      "inputs": [],
      "name": "getBalance",
      "outputs": [
        {
          "internalType": "uint256",
          "name": "",
          "type": "uint256"
        }
      ],
      "stateMutability": "view",
      "type": "function",
      "constant": true
    }
  ],
  "bytecode": "0x6080604052600060045534801561001557600080fd5b5061216e806100256000396000f3fe6080604052600436106100dd5760003560e01c806368794b871161007f57806387e4396c1161005957806387e4396c1461026c578063aca8489214610295578063c47f0027146102b1578063ff28d2da146102da576100dd565b806368794b87146101ef578063832880e714610218578063858ced3514610243576100dd565b806317d7de7c116100bb57806317d7de7c146101645780631865c57d1461018f5780631a61746e146101ba5780635d1ca631146101c4576100dd565b80630a16e30b146100e25780630dc960151461010d57806312065fe014610139575b600080fd5b3480156100ee57600080fd5b506100f76102e4565b6040516101049190611516565b60405180910390f35b34801561011957600080fd5b50610122610372565b60405161013092919061168a565b60405180910390f35b34801561014557600080fd5b5061014e6105af565b60405161015b91906116da565b60405180910390f35b34801561017057600080fd5b506101796105b7565b604051610186919061173f565b60405180910390f35b34801561019b57600080fd5b506101a4610649565b6040516101b1919061173f565b60405180910390f35b6101c26106db565b005b3480156101d057600080fd5b506101d961072e565b6040516101e6919061173f565b60405180910390f35b3480156101fb57600080fd5b50610216600480360381019061021191906118aa565b6107c0565b005b34801561022457600080fd5b5061022d610888565b60405161023a9190611902565b60405180910390f35b34801561024f57600080fd5b5061026a60048036038101906102659190611949565b6108b2565b005b34801561027857600080fd5b50610293600480360381019061028e91906118aa565b6108f6565b005b6102af60048036038101906102aa91906118aa565b610909565b005b3480156102bd57600080fd5b506102d860048036038101906102d391906118aa565b610ac9565b005b6102e2610adc565b005b6060600680548060200260200160405190810160405280929190818152602001828054801561036857602002820191906000526020600020905b8160009054906101000a900473ffffffffffffffffffffffffffffffffffffffff1673ffffffffffffffffffffffffffffffffffffffff168152602001906001019080831161031e575b5050505050905090565b6060806000600680549050905060008167ffffffffffffffff81111561039b5761039a61177f565b5b6040519080825280602002602001820160405280156103ce57816020015b60608152602001906001900390816103b95790505b50905060005b82811015610519576000600682815481106103f2576103f1611976565b5b9060005260206000200160009054906101000a900473ffffffffffffffffffffffffffffffffffffffff169050600560008273ffffffffffffffffffffffffffffffffffffffff1673ffffffffffffffffffffffffffffffffffffffff1681526020019081526020016000208054610469906119d4565b80601f0160208091040260200160405190810160405280929190818152602001828054610495906119d4565b80156104e25780601f106104b7576101008083540402835291602001916104e2565b820191906000526020600020905b8154815290600101906020018083116104c557829003601f168201915b50505050508383815181106104fa576104f9611976565b5b602002602001018190525050808061051190611a34565b9150506103d4565b506006818180548060200260200160405190810160405280929190818152602001828054801561059e57602002820191906000526020600020905b8160009054906101000a900473ffffffffffffffffffffffffffffffffffffffff1673ffffffffffffffffffffffffffffffffffffffff1681526020019060010190808311610554575b505050505091509350935050509091565b600047905090565b6060600180546105c6906119d4565b80601f01602080910402602001604051908101604052809291908181526020018280546105f2906119d4565b801561063f5780601f106106145761010080835404028352916020019161063f565b820191906000526020600020905b81548152906001019060200180831161062257829003601f168201915b5050505050905090565b606060038054610658906119d4565b80601f0160208091040260200160405190810160405280929190818152602001828054610684906119d4565b80156106d15780601f106106a6576101008083540402835291602001916106d1565b820191906000526020600020905b8154815290600101906020018083116106b457829003601f168201915b5050505050905090565b6729a2241af62c00003414610725576040517f08c379a000000000000000000000000000000000000000000000000000000000815260040161071c90611aee565b60405180910390fd5b34600481905550565b60606000805461073d906119d4565b80601f0160208091040260200160405190810160405280929190818152602001828054610769906119d4565b80156107b65780601f1061078b576101008083540402835291602001916107b6565b820191906000526020600020905b81548152906001019060200180831161079957829003601f168201915b5050505050905090565b6040516020016107cf90611b65565b6040516020818303038152906040528051906020012060036040516020016107f79190611c12565b60405160208183030381529060405280519060200120036108235780600390816108219190611dc0565b505b60405160200161083290611b65565b60405160208183030381529060405280519060200120816040516020016108599190611ec3565b60405160208183030381529060405280519060200120036108855780600390816108839190611dc0565b505b50565b6000600260009054906101000a900473ffffffffffffffffffffffffffffffffffffffff16905090565b80600260006101000a81548173ffffffffffffffffffffffffffffffffffffffff021916908373ffffffffffffffffffffffffffffffffffffffff16021790555050565b80600090816109059190611dc0565b5050565b6000600560003373ffffffffffffffffffffffffffffffffffffffff1673ffffffffffffffffffffffffffffffffffffffff1681526020019081526020016000208054610955906119d4565b90501461096157600080fd5b600260009054906101000a900473ffffffffffffffffffffffffffffffffffffffff1673ffffffffffffffffffffffffffffffffffffffff163373ffffffffffffffffffffffffffffffffffffffff16036109bb57600080fd5b6040516020016109ca90611f26565b60405160208183030381529060405280519060200120816040516020016109f19190611ec3565b6040516020818303038152906040528051906020012003610a1657610a15346110d2565b5b6006339080600181540180825580915050600190039060005260206000200160009091909190916101000a81548173ffffffffffffffffffffffffffffffffffffffff021916908373ffffffffffffffffffffffffffffffffffffffff16021790555080600560003373ffffffffffffffffffffffffffffffffffffffff1673ffffffffffffffffffffffffffffffffffffffff1681526020019081526020016000209081610ac59190611dc0565b5050565b8060019081610ad89190611dc0565b5050565b600080610ae7611102565b91509150604051602001610afa90611f87565b6040516020818303038152906040528051906020012082604051602001610b219190611ec3565b6040516020818303038152906040528051906020012003610dd85760005b600680549050811015610dd25760006005600060068481548110610b6657610b65611976565b5b9060005260206000200160009054906101000a900473ffffffffffffffffffffffffffffffffffffffff1673ffffffffffffffffffffffffffffffffffffffff1673ffffffffffffffffffffffffffffffffffffffff1681526020019081526020016000208054610bd6906119d4565b80601f0160208091040260200160405190810160405280929190818152602001828054610c02906119d4565b8015610c4f5780601f10610c2457610100808354040283529160200191610c4f565b820191906000526020600020905b815481529060010190602001808311610c3257829003601f168201915b5050505050905083604051602001610c679190611ec3565b6040516020818303038152906040528051906020012081604051602001610c8e9190611ec3565b6040516020818303038152906040528051906020012003610dbe57600083600454610cb99190611fcb565b90506000670de0b6b3a764000082610cd19190611ffc565b9050610cdb6105af565b811115610d1d576040517f08c379a0000000000000000000000000000000000000000000000000000000008152600401610d14906120b0565b60405180910390fd5b8060046000828254610d2f91906120d0565b9250508190555060068481548110610d4a57610d49611976565b5b9060005260206000200160009054906101000a900473ffffffffffffffffffffffffffffffffffffffff1673ffffffffffffffffffffffffffffffffffffffff166108fc829081150290604051600060405180830381858888f19350505050158015610dba573d6000803e3d6000fd5b5050505b508080610dca90611a34565b915050610b3f565b506110ce565b604051602001610de790611f26565b6040516020818303038152906040528051906020012082604051602001610e0e9190611ec3565b60405160208183030381529060405280519060200120036110cd5760005b6006805490508110156110cb5760006005600060068481548110610e5357610e52611976565b5b9060005260206000200160009054906101000a900473ffffffffffffffffffffffffffffffffffffffff1673ffffffffffffffffffffffffffffffffffffffff1673ffffffffffffffffffffffffffffffffffffffff1681526020019081526020016000208054610ec3906119d4565b80601f0160208091040260200160405190810160405280929190818152602001828054610eef906119d4565b8015610f3c5780601f10610f1157610100808354040283529160200191610f3c565b820191906000526020600020905b815481529060010190602001808311610f1f57829003601f168201915b5050505050905083604051602001610f549190611ec3565b6040516020818303038152906040528051906020012081604051602001610f7b9190611ec3565b60405160208183030381529060405280519060200120036110b757600083600454610fa69190611fcb565b90506000670de0b6b3a7640000600183610fc09190612104565b610fca9190611ffc565b9050610fd46105af565b811115611016576040517f08c379a000000000000000000000000000000000000000000000000000000000815260040161100d906120b0565b60405180910390fd5b806004600082825461102891906120d0565b925050819055506006848154811061104357611042611976565b5b9060005260206000200160009054906101000a900473ffffffffffffffffffffffffffffffffffffffff1673ffffffffffffffffffffffffffffffffffffffff166108fc829081150290604051600060405180830381858888f193505050501580156110b3573d6000803e3d6000fd5b5050505b5080806110c390611a34565b915050610e2c565b505b5b5050565b670de0b6b3a764000081146110e657600080fd5b80600460008282546110f89190612104565b9250508190555050565b60606000806006805490501161111757600080fd5b60008060005b60068054905081101561130d576000600560006006848154811061114457611143611976565b5b9060005260206000200160009054906101000a900473ffffffffffffffffffffffffffffffffffffffff1673ffffffffffffffffffffffffffffffffffffffff1673ffffffffffffffffffffffffffffffffffffffff16815260200190815260200160002080546111b4906119d4565b80601f01602080910402602001604051908101604052809291908181526020018280546111e0906119d4565b801561122d5780601f106112025761010080835404028352916020019161122d565b820191906000526020600020905b81548152906001019060200180831161121057829003601f168201915b5050505050905060405160200161124390611f87565b604051602081830303815290604052805190602001208160405160200161126a9190611ec3565b604051602081830303815290604052805190602001200361129857838061129090611a34565b9450506112f9565b6040516020016112a790611f26565b60405160208183030381529060405280519060200120816040516020016112ce9190611ec3565b60405160208183030381529060405280519060200120036112f85782806112f490611a34565b9350505b5b50808061130590611a34565b91505061111d565b50808210611396576113536040518060400160405280600a81526020017f436f6e6665726d61746f000000000000000000000000000000000000000000008152506107c0565b816040518060400160405280600a81526020017f436f6e6665726d61746f0000000000000000000000000000000000000000000081525090935093505050611422565b8181111561141f576113dc6040518060400160405280600981526020017f52696669757461746f00000000000000000000000000000000000000000000008152506107c0565b806040518060400160405280600981526020017f52696669757461746f000000000000000000000000000000000000000000000081525090935093505050611422565b50505b9091565b600081519050919050565b600082825260208201905092915050565b6000819050602082019050919050565b600073ffffffffffffffffffffffffffffffffffffffff82169050919050565b600061147d82611452565b9050919050565b61148d81611472565b82525050565b600061149f8383611484565b60208301905092915050565b6000602082019050919050565b60006114c382611426565b6114cd8185611431565b93506114d883611442565b8060005b838110156115095781516114f08882611493565b97506114fb836114ab565b9250506001810190506114dc565b5085935050505092915050565b6000602082019050818103600083015261153081846114b8565b905092915050565b600081519050919050565b600082825260208201905092915050565b6000819050602082019050919050565b600081519050919050565b600082825260208201905092915050565b60005b8381101561159e578082015181840152602081019050611583565b60008484015250505050565b6000601f19601f8301169050919050565b60006115c682611564565b6115d0818561156f565b93506115e0818560208601611580565b6115e9816115aa565b840191505092915050565b600061160083836115bb565b905092915050565b6000602082019050919050565b600061162082611538565b61162a8185611543565b93508360208202850161163c85611554565b8060005b85811015611678578484038952815161165985826115f4565b945061166483611608565b925060208a01995050600181019050611640565b50829750879550505050505092915050565b600060408201905081810360008301526116a481856114b8565b905081810360208301526116b88184611615565b90509392505050565b6000819050919050565b6116d4816116c1565b82525050565b60006020820190506116ef60008301846116cb565b92915050565b600082825260208201905092915050565b600061171182611564565b61171b81856116f5565b935061172b818560208601611580565b611734816115aa565b840191505092915050565b600060208201905081810360008301526117598184611706565b905092915050565b6000604051905090565b600080fd5b600080fd5b600080fd5b600080fd5b7f4e487b7100000000000000000000000000000000000000000000000000000000600052604160045260246000fd5b6117b7826115aa565b810181811067ffffffffffffffff821117156117d6576117d561177f565b5b80604052505050565b60006117e9611761565b90506117f582826117ae565b919050565b600067ffffffffffffffff8211156118155761181461177f565b5b61181e826115aa565b9050602081019050919050565b82818337600083830152505050565b600061184d611848846117fa565b6117df565b9050828152602081018484840111156118695761186861177a565b5b61187484828561182b565b509392505050565b600082601f83011261189157611890611775565b5b81356118a184826020860161183a565b91505092915050565b6000602082840312156118c0576118bf61176b565b5b600082013567ffffffffffffffff8111156118de576118dd611770565b5b6118ea8482850161187c565b91505092915050565b6118fc81611472565b82525050565b600060208201905061191760008301846118f3565b92915050565b61192681611472565b811461193157600080fd5b50565b6000813590506119438161191d565b92915050565b60006020828403121561195f5761195e61176b565b5b600061196d84828501611934565b91505092915050565b7f4e487b7100000000000000000000000000000000000000000000000000000000600052603260045260246000fd5b7f4e487b7100000000000000000000000000000000000000000000000000000000600052602260045260246000fd5b600060028204905060018216806119ec57607f821691505b6020821081036119ff576119fe6119a5565b5b50919050565b7f4e487b7100000000000000000000000000000000000000000000000000000000600052601160045260246000fd5b6000611a3f826116c1565b91507fffffffffffffffffffffffffffffffffffffffffffffffffffffffffffffffff8203611a7157611a70611a05565b5b600182019050919050565b7f496c2076616c6f72652064656c2073616c646f2064657665206573736572652060008201527f6573617474616d656e7465203320657468657200000000000000000000000000602082015250565b6000611ad86033836116f5565b9150611ae382611a7c565b604082019050919050565b60006020820190508181036000830152611b0781611acb565b9050919050565b600081905092915050565b7f6174746573610000000000000000000000000000000000000000000000000000600082015250565b6000611b4f600683611b0e565b9150611b5a82611b19565b600682019050919050565b6000611b7082611b42565b9150819050919050565b60008190508160005260206000209050919050565b60008154611b9c816119d4565b611ba68186611b0e565b94506001821660008114611bc15760018114611bd657611c09565b60ff1983168652811515820286019350611c09565b611bdf85611b7a565b60005b83811015611c0157815481890152600182019150602081019050611be2565b838801955050505b50505092915050565b6000611c1e8284611b8f565b915081905092915050565b60006020601f8301049050919050565b600082821b905092915050565b600060088302611c767fffffffffffffffffffffffffffffffffffffffffffffffffffffffffffffffff82611c39565b611c808683611c39565b95508019841693508086168417925050509392505050565b6000819050919050565b6000611cbd611cb8611cb3846116c1565b611c98565b6116c1565b9050919050565b6000819050919050565b611cd783611ca2565b611ceb611ce382611cc4565b848454611c46565b825550505050565b600090565b611d00611cf3565b611d0b818484611cce565b505050565b5b81811015611d2f57611d24600082611cf8565b600181019050611d11565b5050565b601f821115611d7457611d4581611b7a565b611d4e84611c29565b81016020851015611d5d578190505b611d71611d6985611c29565b830182611d10565b50505b505050565b600082821c905092915050565b6000611d9760001984600802611d79565b1980831691505092915050565b6000611db08383611d86565b9150826002028217905092915050565b611dc982611564565b67ffffffffffffffff811115611de257611de161177f565b5b611dec82546119d4565b611df7828285611d33565b600060209050601f831160018114611e2a5760008415611e18578287015190505b611e228582611da4565b865550611e8a565b601f198416611e3886611b7a565b60005b82811015611e6057848901518255600182019150602085019450602081019050611e3b565b86831015611e7d5784890151611e79601f891682611d86565b8355505b6001600288020188555050505b505050505050565b6000611e9d82611564565b611ea78185611b0e565b9350611eb7818560208601611580565b80840191505092915050565b6000611ecf8284611e92565b915081905092915050565b7f52696669757461746f0000000000000000000000000000000000000000000000600082015250565b6000611f10600983611b0e565b9150611f1b82611eda565b600982019050919050565b6000611f3182611f03565b9150819050919050565b7f436f6e6665726d61746f00000000000000000000000000000000000000000000600082015250565b6000611f71600a83611b0e565b9150611f7c82611f3b565b600a82019050919050565b6000611f9282611f64565b9150819050919050565b7f4e487b7100000000000000000000000000000000000000000000000000000000600052601260045260246000fd5b6000611fd6826116c1565b9150611fe1836116c1565b925082611ff157611ff0611f9c565b5b828204905092915050565b6000612007826116c1565b9150612012836116c1565b9250828202612020816116c1565b9150828204841483151761203757612036611a05565b5b5092915050565b7f466f6e646920696e73756666696369656e7469206e656c20636f6e747261747460008201527f6f00000000000000000000000000000000000000000000000000000000000000602082015250565b600061209a6021836116f5565b91506120a58261203e565b604082019050919050565b600060208201905081810360008301526120c98161208d565b9050919050565b60006120db826116c1565b91506120e6836116c1565b92508282039050818111156120fe576120fd611a05565b5b92915050565b600061210f826116c1565b915061211a836116c1565b925082820190508082111561213257612131611a05565b5b9291505056fea2646970667358221220ecc7de917fa153b3a5862e66cb4edf2e821f73009e0cc5685c0c7a45839de49464736f6c63430008130033",
  "immutableReferences": {},
  "source": "// SPDX-License-Identifier: MIT\r\npragma solidity >=0.4.20 <=0.8.19;\r\npragma experimental ABIEncoderV2;\r\n\r\ncontract Brevetto{\r\n    string private  id; //hash del documento\r\n    string private  name;\r\n    address private  user;\r\n    string private  state;\r\n    uint private balance=0;\r\n    mapping(address=>string) private vote;\r\n    address[] private voterAddresses ;\r\n\r\n    constructor() {\r\n    }\r\n\r\n    function addBalance(uint et) private {\r\n        require(et == 1 ether);\r\n        balance += et;\r\n    }\r\n\r\n    function setBalance() public payable {\r\n        require(msg.value == 3 ether, \"Il valore del saldo deve essere esattamente 3 ether\");\r\n        balance = msg.value;\r\n    }\r\n\r\n    function getVoterAddresses() public view returns (address[] memory){\r\n        return voterAddresses;\r\n    } \r\n\r\n    function getVotes() public view returns (address[] memory, string[] memory) {\r\n        uint256 votersCount = voterAddresses.length;\r\n        string[] memory votesList = new string[](votersCount);\r\n        for (uint256 i = 0; i < votersCount; i++) {\r\n            address voter = voterAddresses[i];\r\n            votesList[i] = vote[voter];\r\n        }\r\n        return (voterAddresses, votesList);\r\n    }\r\n\r\n    function addVoter(string memory _vote) public payable{\r\n        require(bytes(vote[msg.sender]).length == 0);\r\n        require(msg.sender != user);\r\n        if (keccak256(abi.encodePacked(_vote)) == keccak256(abi.encodePacked(\"Rifiutato\"))) {\r\n            addBalance(msg.value);\r\n        }\r\n        \r\n        voterAddresses.push(msg.sender);\r\n        vote[msg.sender] = _vote;\r\n    }\r\n\r\n    function getId() public view returns (string memory){\r\n        return id;\r\n    } \r\n\r\n    function setId(string memory _id) public{\r\n        id = _id;\r\n    }\r\n\r\n    function getName() public view returns (string memory){\r\n        return name;\r\n    }\r\n\r\n    function setName(string memory _name) public{\r\n        name = _name;\r\n    }\r\n\r\n    function getUser() public view returns (address){\r\n        return user;\r\n    }\r\n\r\n    function setUser(address _user) public{\r\n        user = _user;\r\n    } \r\n\r\n\r\n    function getState() public view returns (string memory){\r\n        return state;\r\n    }\r\n\r\n    function setState(string memory _state) public{\r\n        if(keccak256(abi.encodePacked(state)) == keccak256(abi.encodePacked(\"attesa\"))){\r\n            state = _state;\r\n        }\r\n\r\n        if(keccak256(abi.encodePacked(_state)) == keccak256(abi.encodePacked(\"attesa\"))){\r\n            state = _state;\r\n        }\r\n    }\r\n\r\n\r\n    function getWinner() private returns (string memory winnerType, uint winnerVotes) {\r\n        require(voterAddresses.length > 0);\r\n        uint confirmedVotes = 0;\r\n        uint rejectedVotes = 0;\r\n\r\n        for (uint i = 0; i < voterAddresses.length; i++) {\r\n            string memory voteType = vote[voterAddresses[i]];\r\n            if (keccak256(abi.encodePacked(voteType)) == keccak256(abi.encodePacked(\"Confermato\"))) {\r\n                confirmedVotes++;\r\n            } else if (keccak256(abi.encodePacked(voteType)) == keccak256(abi.encodePacked(\"Rifiutato\"))) {\r\n                rejectedVotes++;\r\n            }\r\n        }\r\n\r\n        if (confirmedVotes >= rejectedVotes) {\r\n            setState(\"Confermato\");\r\n            return (\"Confermato\", confirmedVotes);\r\n        } else if (rejectedVotes > confirmedVotes) {\r\n            setState(\"Rifiutato\");\r\n            return (\"Rifiutato\", rejectedVotes);\r\n        }\r\n    }\r\n\r\n\r\n    function rewardWinners() public payable{\r\n\r\n        (string memory winnerType, uint winnerVotes) = getWinner();\r\n        if(keccak256(abi.encodePacked(winnerType)) == keccak256(abi.encodePacked(\"Confermato\"))){\r\n            \r\n            for (uint i = 0; i < voterAddresses.length; i++) {\r\n                string memory voteType = vote[voterAddresses[i]];\r\n                if (keccak256(abi.encodePacked(voteType)) == keccak256(abi.encodePacked(winnerType))) {\r\n                    uint amountPerVote = balance/winnerVotes;\r\n                    uint amountToSend = amountPerVote * 1 ether; // Converti il valore in wei\r\n                    require(amountToSend <= getBalance(), \"Fondi insufficienti nel contratto\");\r\n                    balance -= amountToSend;\r\n                    payable(voterAddresses[i]).transfer(amountToSend);\r\n                }\r\n            }\r\n        }else if(keccak256(abi.encodePacked(winnerType)) == keccak256(abi.encodePacked(\"Rifiutato\"))){\r\n            for (uint i = 0; i < voterAddresses.length; i++) {\r\n                string memory voteType = vote[voterAddresses[i]];\r\n                if (keccak256(abi.encodePacked(voteType)) == keccak256(abi.encodePacked(winnerType))) {\r\n                    uint amountPerVote = balance/winnerVotes;\r\n                    uint amountToSend = (amountPerVote + 1) * 1 ether; // Converti il valore in wei\r\n                    require(amountToSend <= getBalance(), \"Fondi insufficienti nel contratto\");\r\n                    balance -= amountToSend;\r\n                    payable(voterAddresses[i]).transfer(amountToSend);\r\n                }\r\n            }\r\n        }\r\n    }\r\n\r\n    function getBalance() public view returns(uint){\r\n        return address(this).balance;\r\n    }\r\n}",
  "sourcePath": "C:\\Users\\dario\\OneDrive\\Desktop\\Brevetti\\Brevetti_3.0\\contracts\\Brevetto.sol",
  "compiler": {
    "name": "solc",
    "version": "0.8.19+commit.7dd6d404.Emscripten.clang"
  },
  "schemaVersion": "3.4.16",
  "updatedAt": "2024-02-21T22:21:02.662Z",
  "networkType": "ethereum",
  "devdoc": {
    "kind": "dev",
    "methods": {},
    "version": 1
  },
  "userdoc": {
    "kind": "user",
    "methods": {},
    "version": 1
  }
}