{
  "contractName": "Brevetto",
  "abi": [
    {
      "inputs": [],
      "payable": false,
      "stateMutability": "nonpayable",
      "type": "constructor"
    },
    {
      "anonymous": false,
      "inputs": [
        {
          "indexed": false,
          "internalType": "uint256",
          "name": "balance",
          "type": "uint256"
        }
      ],
      "name": "LogBalance",
      "type": "event"
    },
    {
      "constant": false,
      "inputs": [
        {
          "internalType": "uint256",
          "name": "et",
          "type": "uint256"
        }
      ],
      "name": "setBalance",
      "outputs": [],
      "payable": true,
      "stateMutability": "payable",
      "type": "function"
    },
    {
      "constant": true,
      "inputs": [],
      "name": "getVoterAddresses",
      "outputs": [
        {
          "internalType": "address[]",
          "name": "",
          "type": "address[]"
        }
      ],
      "payable": false,
      "stateMutability": "view",
      "type": "function"
    },
    {
      "constant": true,
      "inputs": [],
      "name": "getVotes",
      "outputs": [
        {
          "internalType": "address[]",
          "name": "",
          "type": "address[]"
        },
        {
          "internalType": "string[]",
          "name": "",
          "type": "string[]"
        }
      ],
      "payable": false,
      "stateMutability": "view",
      "type": "function"
    },
    {
      "constant": false,
      "inputs": [
        {
          "internalType": "string",
          "name": "_vote",
          "type": "string"
        }
      ],
      "name": "addVoter",
      "outputs": [],
      "payable": true,
      "stateMutability": "payable",
      "type": "function"
    },
    {
      "constant": true,
      "inputs": [],
      "name": "getId",
      "outputs": [
        {
          "internalType": "string",
          "name": "",
          "type": "string"
        }
      ],
      "payable": false,
      "stateMutability": "view",
      "type": "function"
    },
    {
      "constant": false,
      "inputs": [
        {
          "internalType": "string",
          "name": "_id",
          "type": "string"
        }
      ],
      "name": "setId",
      "outputs": [],
      "payable": false,
      "stateMutability": "nonpayable",
      "type": "function"
    },
    {
      "constant": true,
      "inputs": [],
      "name": "getName",
      "outputs": [
        {
          "internalType": "string",
          "name": "",
          "type": "string"
        }
      ],
      "payable": false,
      "stateMutability": "view",
      "type": "function"
    },
    {
      "constant": false,
      "inputs": [
        {
          "internalType": "string",
          "name": "_name",
          "type": "string"
        }
      ],
      "name": "setName",
      "outputs": [],
      "payable": false,
      "stateMutability": "nonpayable",
      "type": "function"
    },
    {
      "constant": true,
      "inputs": [],
      "name": "getUser",
      "outputs": [
        {
          "internalType": "address",
          "name": "",
          "type": "address"
        }
      ],
      "payable": false,
      "stateMutability": "view",
      "type": "function"
    },
    {
      "constant": false,
      "inputs": [
        {
          "internalType": "address",
          "name": "_user",
          "type": "address"
        }
      ],
      "name": "setUser",
      "outputs": [],
      "payable": false,
      "stateMutability": "nonpayable",
      "type": "function"
    },
    {
      "constant": true,
      "inputs": [],
      "name": "getState",
      "outputs": [
        {
          "internalType": "string",
          "name": "",
          "type": "string"
        }
      ],
      "payable": false,
      "stateMutability": "view",
      "type": "function"
    },
    {
      "constant": false,
      "inputs": [
        {
          "internalType": "string",
          "name": "_state",
          "type": "string"
        }
      ],
      "name": "setState",
      "outputs": [],
      "payable": false,
      "stateMutability": "nonpayable",
      "type": "function"
    },
    {
      "constant": false,
      "inputs": [],
      "name": "getWinner",
      "outputs": [
        {
          "internalType": "string",
          "name": "winnerType",
          "type": "string"
        },
        {
          "internalType": "uint256",
          "name": "winnerVotes",
          "type": "uint256"
        }
      ],
      "payable": false,
      "stateMutability": "nonpayable",
      "type": "function"
    },
    {
      "constant": false,
      "inputs": [],
      "name": "rewardWinners",
      "outputs": [],
      "payable": false,
      "stateMutability": "nonpayable",
      "type": "function"
    }
  ],
  "bytecode": "0x608060405234801561001057600080fd5b5047600481905550611b4a806100276000396000f3fe6080604052600436106100dd5760003560e01c8063858ced351161007f578063aca8489211610059578063aca848921461028c578063c47f0027146102a8578063fb1669ca146102d1578063ff28d2da146102ed576100dd565b8063858ced351461020e57806387e4396c146102375780638e7ea5b214610260576100dd565b80631865c57d116100bb5780631865c57d146101645780635d1ca6311461018f57806368794b87146101ba578063832880e7146101e3576100dd565b80630a16e30b146100e25780630dc960151461010d57806317d7de7c14610139575b600080fd5b3480156100ee57600080fd5b506100f7610304565b6040516101049190611821565b60405180910390f35b34801561011957600080fd5b50610122610392565b604051610130929190611843565b60405180910390f35b34801561014557600080fd5b5061014e6105b5565b60405161015b919061187a565b60405180910390f35b34801561017057600080fd5b50610179610657565b604051610186919061187a565b60405180910390f35b34801561019b57600080fd5b506101a46106f9565b6040516101b1919061187a565b60405180910390f35b3480156101c657600080fd5b506101e160048036036101dc919081019061136c565b61079b565b005b3480156101ef57600080fd5b506101f8610873565b6040516102059190611806565b60405180910390f35b34801561021a57600080fd5b5061023560048036036102309190810190611343565b61089d565b005b34801561024357600080fd5b5061025e6004803603610259919081019061136c565b6108e1565b005b34801561026c57600080fd5b506102756108fb565b60405161028392919061189c565b60405180910390f35b6102a660048036036102a1919081019061136c565b610c22565b005b3480156102b457600080fd5b506102cf60048036036102ca919081019061136c565b610df6565b005b6102eb60048036036102e691908101906113ad565b610e10565b005b3480156102f957600080fd5b50610302610e2e565b005b6060600680548060200260200160405190810160405280929190818152602001828054801561038857602002820191906000526020600020905b8160009054906101000a900473ffffffffffffffffffffffffffffffffffffffff1673ffffffffffffffffffffffffffffffffffffffff168152602001906001019080831161033e575b5050505050905090565b606080600060068054905090506060816040519080825280602002602001820160405280156103d557816020015b60608152602001906001900390816103c05790505b50905060008090505b8281101561051f576000600682815481106103f557fe5b9060005260206000200160009054906101000a900473ffffffffffffffffffffffffffffffffffffffff169050600560008273ffffffffffffffffffffffffffffffffffffffff1673ffffffffffffffffffffffffffffffffffffffff1681526020019081526020016000208054600181600116156101000203166002900480601f0160208091040260200160405190810160405280929190818152602001828054600181600116156101000203166002900480156104f55780601f106104ca576101008083540402835291602001916104f5565b820191906000526020600020905b8154815290600101906020018083116104d857829003601f168201915b505050505083838151811061050657fe5b60200260200101819052505080806001019150506103de565b50600681818054806020026020016040519081016040528092919081815260200182805480156105a457602002820191906000526020600020905b8160009054906101000a900473ffffffffffffffffffffffffffffffffffffffff1673ffffffffffffffffffffffffffffffffffffffff168152602001906001019080831161055a575b505050505091509350935050509091565b606060018054600181600116156101000203166002900480601f01602080910402602001604051908101604052809291908181526020018280546001816001161561010002031660029004801561064d5780601f106106225761010080835404028352916020019161064d565b820191906000526020600020905b81548152906001019060200180831161063057829003601f168201915b5050505050905090565b606060038054600181600116156101000203166002900480601f0160208091040260200160405190810160405280929190818152602001828054600181600116156101000203166002900480156106ef5780601f106106c4576101008083540402835291602001916106ef565b820191906000526020600020905b8154815290600101906020018083116106d257829003601f168201915b5050505050905090565b606060008054600181600116156101000203166002900480601f0160208091040260200160405190810160405280929190818152602001828054600181600116156101000203166002900480156107915780601f1061076657610100808354040283529160200191610791565b820191906000526020600020905b81548152906001019060200180831161077457829003601f168201915b5050505050905090565b6040516020016107aa906117f1565b6040516020818303038152906040528051906020012060036040516020016107d291906117b0565b604051602081830303815290604052805190602001201415610806578060039080519060200190610804929190611220565b505b604051602001610815906117f1565b604051602081830303815290604052805190602001208160405160200161083c9190611799565b60405160208183030381529060405280519060200120141561087057806003908051906020019061086e929190611220565b505b50565b6000600260009054906101000a900473ffffffffffffffffffffffffffffffffffffffff16905090565b80600260006101000a81548173ffffffffffffffffffffffffffffffffffffffff021916908373ffffffffffffffffffffffffffffffffffffffff16021790555050565b80600090805190602001906108f7929190611220565b5050565b60606000806006805490501161091057600080fd5b6000809050600080905060008090505b600680549050811015610b09576060600560006006848154811061094057fe5b9060005260206000200160009054906101000a900473ffffffffffffffffffffffffffffffffffffffff1673ffffffffffffffffffffffffffffffffffffffff1673ffffffffffffffffffffffffffffffffffffffff1681526020019081526020016000208054600181600116156101000203166002900480601f016020809104026020016040519081016040528092919081815260200182805460018160011615610100020316600290048015610a395780601f10610a0e57610100808354040283529160200191610a39565b820191906000526020600020905b815481529060010190602001808311610a1c57829003601f168201915b50505050509050604051602001610a4f906117dc565b6040516020818303038152906040528051906020012081604051602001610a769190611799565b604051602081830303815290604052805190602001201415610a9f578380600101945050610afb565b604051602001610aae906117c7565b6040516020818303038152906040528051906020012081604051602001610ad59190611799565b604051602081830303815290604052805190602001201415610afa5782806001019350505b5b508080600101915050610920565b50808210610b9257610b4f6040518060400160405280600a81526020017f436f6e6665726d61746f0000000000000000000000000000000000000000000081525061079b565b816040518060400160405280600a81526020017f436f6e6665726d61746f0000000000000000000000000000000000000000000081525090935093505050610c1e565b81811115610c1b57610bd86040518060400160405280600981526020017f52696669757461746f000000000000000000000000000000000000000000000081525061079b565b806040518060400160405280600981526020017f52696669757461746f000000000000000000000000000000000000000000000081525090935093505050610c1e565b50505b9091565b6000600560003373ffffffffffffffffffffffffffffffffffffffff1673ffffffffffffffffffffffffffffffffffffffff16815260200190815260200160002080546001816001161561010002031660029004905014610c8257600080fd5b600260009054906101000a900473ffffffffffffffffffffffffffffffffffffffff1673ffffffffffffffffffffffffffffffffffffffff163373ffffffffffffffffffffffffffffffffffffffff161415610cdd57600080fd5b604051602001610cec906117c7565b6040516020818303038152906040528051906020012081604051602001610d139190611799565b604051602081830303815290604052805190602001201415610d3957610d38346111f9565b5b60063390806001815401808255809150509060018203906000526020600020016000909192909190916101000a81548173ffffffffffffffffffffffffffffffffffffffff021916908373ffffffffffffffffffffffffffffffffffffffff1602179055505080600560003373ffffffffffffffffffffffffffffffffffffffff1673ffffffffffffffffffffffffffffffffffffffff1681526020019081526020016000209080519060200190610df2929190611220565b5050565b8060019080519060200190610e0c929190611220565b5050565b6729a2241af62c00008114610e2457600080fd5b8060048190555050565b7f8d9fc242eead7aebf4b509c32519beb6e2975a572c06310f797da4bd7f1ffab6600454604051610e5f919061190c565b60405180910390a160606000610e736108fb565b915091506000809050604051602001610e8b906117dc565b6040516020818303038152906040528051906020012083604051602001610eb29190611799565b604051602081830303815290604052805190602001201415610ee1578160045481610ed957fe5b049050610f46565b604051602001610ef0906117c7565b6040516020818303038152906040528051906020012083604051602001610f179190611799565b604051602081830303815290604052805190602001201415610f455760018260045481610f4057fe5b040190505b5b60008111610f89576040517f08c379a0000000000000000000000000000000000000000000000000000000008152600401610f80906118ec565b60405180910390fd5b8181026004541015610fd0576040517f08c379a0000000000000000000000000000000000000000000000000000000008152600401610fc7906118cc565b60405180910390fd5b60008090505b6006805490508110156111e15760606005600060068481548110610ff657fe5b9060005260206000200160009054906101000a900473ffffffffffffffffffffffffffffffffffffffff1673ffffffffffffffffffffffffffffffffffffffff1673ffffffffffffffffffffffffffffffffffffffff1681526020019081526020016000208054600181600116156101000203166002900480601f0160208091040260200160405190810160405280929190818152602001828054600181600116156101000203166002900480156110ef5780601f106110c4576101008083540402835291602001916110ef565b820191906000526020600020905b8154815290600101906020018083116110d257829003601f168201915b50505050509050846040516020016111079190611799565b604051602081830303815290604052805190602001208160405160200161112e9190611799565b6040516020818303038152906040528051906020012014156111d3576006828154811061115757fe5b9060005260206000200160009054906101000a900473ffffffffffffffffffffffffffffffffffffffff1673ffffffffffffffffffffffffffffffffffffffff166108fc670de0b6b3a764000085029081150290604051600060405180830381858888f193505050501580156111d1573d6000803e3d6000fd5b505b508080600101915050610fd6565b50818102600460008282540392505081905550505050565b670de0b6b3a7640000811461120d57600080fd5b8060046000828254019250508190555050565b828054600181600116156101000203166002900490600052602060002090601f016020900481019282601f1061126157805160ff191683800117855561128f565b8280016001018555821561128f579182015b8281111561128e578251825591602001919060010190611273565b5b50905061129c91906112a0565b5090565b6112c291905b808211156112be5760008160009055506001016112a6565b5090565b90565b6000813590506112d481611ad9565b92915050565b600082601f8301126112eb57600080fd5b81356112fe6112f982611954565b611927565b9150808252602083016020830185838301111561131a57600080fd5b611325838284611a86565b50505092915050565b60008135905061133d81611af0565b92915050565b60006020828403121561135557600080fd5b6000611363848285016112c5565b91505092915050565b60006020828403121561137e57600080fd5b600082013567ffffffffffffffff81111561139857600080fd5b6113a4848285016112da565b91505092915050565b6000602082840312156113bf57600080fd5b60006113cd8482850161132e565b91505092915050565b60006113e28383611402565b60208301905092915050565b60006113fa838361155d565b905092915050565b61140b81611a4a565b82525050565b61141a81611a4a565b82525050565b600061142b826119b5565b61143581856119fb565b935061144083611980565b8060005b8381101561147157815161145888826113d6565b9750611463836119e1565b925050600181019050611444565b5085935050505092915050565b6000611489826119c0565b6114938185611a0c565b9350836020820285016114a585611990565b8060005b858110156114e157848403895281516114c285826113ee565b94506114cd836119ee565b925060208a019950506001810190506114a9565b50829750879550505050505092915050565b60006114fe826119d6565b6115088185611a2e565b9350611518818560208601611a95565b61152181611ac8565b840191505092915050565b6000611537826119d6565b6115418185611a3f565b9350611551818560208601611a95565b80840191505092915050565b6000611568826119cb565b6115728185611a1d565b9350611582818560208601611a95565b61158b81611ac8565b840191505092915050565b6000815460018116600081146115b357600181146115d85761161c565b607f60028304166115c48187611a3f565b955060ff198316865280860193505061161c565b600282046115e68187611a3f565b95506115f1856119a0565b60005b82811015611613578154818901526001820191506020810190506115f4565b82880195505050505b505092915050565b6000611631602183611a2e565b91507f466f6e646920696e73756666696369656e7469206e656c20636f6e747261747460008301527f6f000000000000000000000000000000000000000000000000000000000000006020830152604082019050919050565b6000611697600983611a3f565b91507f52696669757461746f00000000000000000000000000000000000000000000006000830152600982019050919050565b60006116d7601c83611a2e565b91507f4e657373756e20696d706f72746f2064612074726173666572697265000000006000830152602082019050919050565b6000611717600a83611a3f565b91507f436f6e6665726d61746f000000000000000000000000000000000000000000006000830152600a82019050919050565b6000611757600683611a3f565b91507f61747465736100000000000000000000000000000000000000000000000000006000830152600682019050919050565b61179381611a7c565b82525050565b60006117a5828461152c565b915081905092915050565b60006117bc8284611596565b915081905092915050565b60006117d28261168a565b9150819050919050565b60006117e78261170a565b9150819050919050565b60006117fc8261174a565b9150819050919050565b600060208201905061181b6000830184611411565b92915050565b6000602082019050818103600083015261183b8184611420565b905092915050565b6000604082019050818103600083015261185d8185611420565b90508181036020830152611871818461147e565b90509392505050565b6000602082019050818103600083015261189481846114f3565b905092915050565b600060408201905081810360008301526118b681856114f3565b90506118c5602083018461178a565b9392505050565b600060208201905081810360008301526118e581611624565b9050919050565b60006020820190508181036000830152611905816116ca565b9050919050565b6000602082019050611921600083018461178a565b92915050565b6000604051905081810181811067ffffffffffffffff8211171561194a57600080fd5b8060405250919050565b600067ffffffffffffffff82111561196b57600080fd5b601f19601f8301169050602081019050919050565b6000819050602082019050919050565b6000819050602082019050919050565b60008190508160005260206000209050919050565b600081519050919050565b600081519050919050565b600081519050919050565b600081519050919050565b6000602082019050919050565b6000602082019050919050565b600082825260208201905092915050565b600082825260208201905092915050565b600082825260208201905092915050565b600082825260208201905092915050565b600081905092915050565b6000611a5582611a5c565b9050919050565b600073ffffffffffffffffffffffffffffffffffffffff82169050919050565b6000819050919050565b82818337600083830152505050565b60005b83811015611ab3578082015181840152602081019050611a98565b83811115611ac2576000848401525b50505050565b6000601f19601f8301169050919050565b611ae281611a4a565b8114611aed57600080fd5b50565b611af981611a7c565b8114611b0457600080fd5b5056fea365627a7a72315820ce0b9238cc3e27c6680a50d6e2d7b8373449b1fc1669415c5cda153054e4065d6c6578706572696d656e74616cf564736f6c63430005100040",
  "source": "// SPDX-License-Identifier: MIT\r\npragma solidity >=0.4.22 <0.8.22;\r\npragma experimental ABIEncoderV2;\r\n\r\ncontract Brevetto{\r\n    string private  id; //hash del documento\r\n    string private  name;\r\n    address private  user;\r\n    string private  state;\r\n    uint private balance;\r\n    mapping(address=>string) private vote;\r\n    address[] private voterAddresses;\r\n\r\n    event LogBalance(uint balance);\r\n    constructor() public {\r\n        balance = address(this).balance;\r\n    }\r\n\r\n    function addBalance(uint et) private {\r\n        require(et == 1 ether);\r\n        balance += et;\r\n    }\r\n\r\n    function setBalance(uint et) public payable{\r\n        require(et == 3 ether);\r\n        balance = et;\r\n    }\r\n\r\n    function getVoterAddresses() public view returns (address[] memory){\r\n        return voterAddresses;\r\n    } \r\n\r\n    function getVotes() public view returns (address[] memory, string[] memory) {\r\n        uint256 votersCount = voterAddresses.length;\r\n        string[] memory votesList = new string[](votersCount);\r\n        for (uint256 i = 0; i < votersCount; i++) {\r\n            address voter = voterAddresses[i];\r\n            votesList[i] = vote[voter];\r\n        }\r\n        return (voterAddresses, votesList);\r\n    }\r\n\r\n    function addVoter(string memory _vote) public payable{\r\n        require(bytes(vote[msg.sender]).length == 0);\r\n        require(msg.sender != user);\r\n        if (keccak256(abi.encodePacked(_vote)) == keccak256(abi.encodePacked(\"Rifiutato\"))) {\r\n            addBalance(msg.value);\r\n        }\r\n        voterAddresses.push(msg.sender);\r\n        vote[msg.sender] = _vote;\r\n    }\r\n    \r\n\r\n    function getId() public view returns (string memory){\r\n        return id;\r\n    } \r\n\r\n    function setId(string memory _id) public{\r\n        id = _id;\r\n    }\r\n\r\n    function getName() public view returns (string memory){\r\n        return name;\r\n    }\r\n\r\n    function setName(string memory _name) public{\r\n        name = _name;\r\n    }\r\n\r\n    function getUser() public view returns (address){\r\n        return user;\r\n    }\r\n\r\n    function setUser(address _user) public{\r\n        user = _user;\r\n    } \r\n\r\n\r\n    function getState() public view returns (string memory){\r\n        return state;\r\n    }\r\n\r\n    function setState(string memory _state) public{\r\n        if(keccak256(abi.encodePacked(state)) == keccak256(abi.encodePacked(\"attesa\"))){\r\n            state = _state;\r\n        }\r\n\r\n        if(keccak256(abi.encodePacked(_state)) == keccak256(abi.encodePacked(\"attesa\"))){\r\n            state = _state;\r\n        }\r\n    }\r\n\r\n\r\n    function getWinner() public returns (string memory winnerType, uint winnerVotes) {\r\n        require(voterAddresses.length > 0);\r\n        uint confirmedVotes = 0;\r\n        uint rejectedVotes = 0;\r\n\r\n        for (uint i = 0; i < voterAddresses.length; i++) {\r\n            string memory voteType = vote[voterAddresses[i]];\r\n            if (keccak256(abi.encodePacked(voteType)) == keccak256(abi.encodePacked(\"Confermato\"))) {\r\n                confirmedVotes++;\r\n            } else if (keccak256(abi.encodePacked(voteType)) == keccak256(abi.encodePacked(\"Rifiutato\"))) {\r\n                rejectedVotes++;\r\n            }\r\n        }\r\n\r\n        if (confirmedVotes >= rejectedVotes) {\r\n            setState(\"Confermato\");\r\n            return (\"Confermato\", confirmedVotes);\r\n        } else if (rejectedVotes > confirmedVotes) {\r\n            setState(\"Rifiutato\");\r\n            return (\"Rifiutato\", rejectedVotes);\r\n        }\r\n    }\r\n\r\n\r\n    function rewardWinners() public{\r\n        emit LogBalance(balance);\r\n        (string memory winnerType, uint winnerVotes) = getWinner();\r\n        uint amountToSend = 0;\r\n\r\n        if (keccak256(abi.encodePacked(winnerType)) == keccak256(abi.encodePacked(\"Confermato\"))) {\r\n            amountToSend = balance / winnerVotes;\r\n        } else if (keccak256(abi.encodePacked(winnerType)) == keccak256(abi.encodePacked(\"Rifiutato\"))) {\r\n            amountToSend = (balance / winnerVotes) + 1;\r\n        }\r\n\r\n        require(amountToSend > 0, \"Nessun importo da trasferire\");\r\n\r\n        // Verifica che il saldo sia sufficiente\r\n        require(balance >= amountToSend * winnerVotes, \"Fondi insufficienti nel contratto\");\r\n\r\n        // Trasferisci i fondi ai vincitori\r\n        for (uint i = 0; i < voterAddresses.length; i++) {\r\n            string memory voteType = vote[voterAddresses[i]];\r\n            if (keccak256(abi.encodePacked(voteType)) == keccak256(abi.encodePacked(winnerType))) {\r\n                address(uint160(voterAddresses[i])).transfer(amountToSend * 1 ether);\r\n            }\r\n        }\r\n\r\n        // Aggiorna il saldo del contratto\r\n        balance -= amountToSend * winnerVotes;\r\n        }\r\n}",
  "sourcePath": "C:\\Users\\asant\\Desktop\\Brevetti\\Brevetti_3.0\\contracts\\Brevetto.sol",
  "compiler": {
    "name": "solc",
    "version": "0.5.16+commit.9c3226ce.Emscripten.clang"
  },
  "schemaVersion": "3.4.16",
  "updatedAt": "2024-02-21T19:16:59.505Z",
  "networkType": "ethereum",
  "devdoc": {
    "methods": {}
  },
  "userdoc": {
    "methods": {}
  }
}