{
  "contractName": "Brevetti",
  "abi": [
    {
      "inputs": [],
      "payable": false,
      "stateMutability": "nonpayable",
      "type": "constructor"
    },
    {
      "constant": true,
      "inputs": [],
      "name": "getVoterAddresses",
      "outputs": [
        {
          "internalType": "address[]",
          "name": "",
          "type": "address[]"
        }
      ],
      "payable": false,
      "stateMutability": "view",
      "type": "function"
    },
    {
      "constant": true,
      "inputs": [],
      "name": "getVotes",
      "outputs": [
        {
          "internalType": "address[]",
          "name": "",
          "type": "address[]"
        },
        {
          "internalType": "string[]",
          "name": "",
          "type": "string[]"
        }
      ],
      "payable": false,
      "stateMutability": "view",
      "type": "function"
    },
    {
      "constant": false,
      "inputs": [
        {
          "internalType": "string",
          "name": "_vote",
          "type": "string"
        }
      ],
      "name": "addVoter",
      "outputs": [],
      "payable": false,
      "stateMutability": "nonpayable",
      "type": "function"
    },
    {
      "constant": true,
      "inputs": [],
      "name": "getId",
      "outputs": [
        {
          "internalType": "string",
          "name": "",
          "type": "string"
        }
      ],
      "payable": false,
      "stateMutability": "view",
      "type": "function"
    },
    {
      "constant": false,
      "inputs": [
        {
          "internalType": "string",
          "name": "_id",
          "type": "string"
        }
      ],
      "name": "setId",
      "outputs": [],
      "payable": false,
      "stateMutability": "nonpayable",
      "type": "function"
    },
    {
      "constant": true,
      "inputs": [],
      "name": "getName",
      "outputs": [
        {
          "internalType": "string",
          "name": "",
          "type": "string"
        }
      ],
      "payable": false,
      "stateMutability": "view",
      "type": "function"
    },
    {
      "constant": false,
      "inputs": [
        {
          "internalType": "string",
          "name": "_name",
          "type": "string"
        }
      ],
      "name": "setName",
      "outputs": [],
      "payable": false,
      "stateMutability": "nonpayable",
      "type": "function"
    },
    {
      "constant": true,
      "inputs": [],
      "name": "getUser",
      "outputs": [
        {
          "internalType": "address",
          "name": "",
          "type": "address"
        }
      ],
      "payable": false,
      "stateMutability": "view",
      "type": "function"
    },
    {
      "constant": false,
      "inputs": [
        {
          "internalType": "address",
          "name": "_user",
          "type": "address"
        }
      ],
      "name": "setUser",
      "outputs": [],
      "payable": false,
      "stateMutability": "nonpayable",
      "type": "function"
    },
    {
      "constant": true,
      "inputs": [],
      "name": "getState",
      "outputs": [
        {
          "internalType": "string",
          "name": "",
          "type": "string"
        }
      ],
      "payable": false,
      "stateMutability": "view",
      "type": "function"
    },
    {
      "constant": false,
      "inputs": [
        {
          "internalType": "string",
          "name": "_state",
          "type": "string"
        }
      ],
      "name": "setState",
      "outputs": [],
      "payable": false,
      "stateMutability": "nonpayable",
      "type": "function"
    }
  ],
  "bytecode": "0x608060405234801561001057600080fd5b50611057806100206000396000f3fe608060405234801561001057600080fd5b50600436106100a95760003560e01c806368794b871161007157806368794b8714610145578063832880e714610161578063858ced351461017f57806387e4396c1461019b578063aca84892146101b7578063c47f0027146101d3576100a9565b80630a16e30b146100ae5780630dc96015146100cc57806317d7de7c146100eb5780631865c57d146101095780635d1ca63114610127575b600080fd5b6100b66101ef565b6040516100c39190610dda565b60405180910390f35b6100d461027d565b6040516100e2929190610dfc565b60405180910390f35b6100f36104a0565b6040516101009190610e33565b60405180910390f35b610111610542565b60405161011e9190610e33565b60405180910390f35b61012f6105e4565b60405161013c9190610e33565b60405180910390f35b61015f600480360361015a9190810190610ab0565b610686565b005b6101696106f0565b6040516101769190610dbf565b60405180910390f35b61019960048036036101949190810190610a87565b61071a565b005b6101b560048036036101b09190810190610af5565b61075e565b005b6101d160048036036101cc9190810190610af5565b610778565b005b6101ed60048036036101e89190810190610af5565b610895565b005b6060600580548060200260200160405190810160405280929190818152602001828054801561027357602002820191906000526020600020905b8160009054906101000a900473ffffffffffffffffffffffffffffffffffffffff1673ffffffffffffffffffffffffffffffffffffffff1681526020019060010190808311610229575b5050505050905090565b606080600060058054905090506060816040519080825280602002602001820160405280156102c057816020015b60608152602001906001900390816102ab5790505b50905060008090505b8281101561040a576000600582815481106102e057fe5b9060005260206000200160009054906101000a900473ffffffffffffffffffffffffffffffffffffffff169050600460008273ffffffffffffffffffffffffffffffffffffffff1673ffffffffffffffffffffffffffffffffffffffff1681526020019081526020016000208054600181600116156101000203166002900480601f0160208091040260200160405190810160405280929190818152602001828054600181600116156101000203166002900480156103e05780601f106103b5576101008083540402835291602001916103e0565b820191906000526020600020905b8154815290600101906020018083116103c357829003601f168201915b50505050508383815181106103f157fe5b60200260200101819052505080806001019150506102c9565b506005818180548060200260200160405190810160405280929190818152602001828054801561048f57602002820191906000526020600020905b8160009054906101000a900473ffffffffffffffffffffffffffffffffffffffff1673ffffffffffffffffffffffffffffffffffffffff1681526020019060010190808311610445575b505050505091509350935050509091565b606060018054600181600116156101000203166002900480601f0160208091040260200160405190810160405280929190818152602001828054600181600116156101000203166002900480156105385780601f1061050d57610100808354040283529160200191610538565b820191906000526020600020905b81548152906001019060200180831161051b57829003601f168201915b5050505050905090565b606060038054600181600116156101000203166002900480601f0160208091040260200160405190810160405280929190818152602001828054600181600116156101000203166002900480156105da5780601f106105af576101008083540402835291602001916105da565b820191906000526020600020905b8154815290600101906020018083116105bd57829003601f168201915b5050505050905090565b606060008054600181600116156101000203166002900480601f01602080910402602001604051908101604052809291908181526020018280546001816001161561010002031660029004801561067c5780601f106106515761010080835404028352916020019161067c565b820191906000526020600020905b81548152906001019060200180831161065f57829003601f168201915b5050505050905090565b60405160200161069590610daa565b6040516020818303038152906040528051906020012060036040516020016106bd9190610d93565b6040516020818303038152906040528051906020012014156106ec578181600391906106ea9291906108af565b505b5050565b6000600260009054906101000a900473ffffffffffffffffffffffffffffffffffffffff16905090565b80600260006101000a81548173ffffffffffffffffffffffffffffffffffffffff021916908373ffffffffffffffffffffffffffffffffffffffff16021790555050565b806000908051906020019061077492919061092f565b5050565b6000600460003373ffffffffffffffffffffffffffffffffffffffff1673ffffffffffffffffffffffffffffffffffffffff168152602001908152602001600020805460018160011615610100020316600290049050146107d857600080fd5b60053390806001815401808255809150509060018203906000526020600020016000909192909190916101000a81548173ffffffffffffffffffffffffffffffffffffffff021916908373ffffffffffffffffffffffffffffffffffffffff1602179055505080600460003373ffffffffffffffffffffffffffffffffffffffff1673ffffffffffffffffffffffffffffffffffffffff168152602001908152602001600020908051906020019061089192919061092f565b5050565b80600190805190602001906108ab92919061092f565b5050565b828054600181600116156101000203166002900490600052602060002090601f016020900481019282601f106108f057803560ff191683800117855561091e565b8280016001018555821561091e579182015b8281111561091d578235825591602001919060010190610902565b5b50905061092b91906109af565b5090565b828054600181600116156101000203166002900490600052602060002090601f016020900481019282601f1061097057805160ff191683800117855561099e565b8280016001018555821561099e579182015b8281111561099d578251825591602001919060010190610982565b5b5090506109ab91906109af565b5090565b6109d191905b808211156109cd5760008160009055506001016109b5565b5090565b90565b6000813590506109e381610ffd565b92915050565b60008083601f8401126109fb57600080fd5b8235905067ffffffffffffffff811115610a1457600080fd5b602083019150836001820283011115610a2c57600080fd5b9250929050565b600082601f830112610a4457600080fd5b8135610a57610a5282610e82565b610e55565b91508082526020830160208301858383011115610a7357600080fd5b610a7e838284610faa565b50505092915050565b600060208284031215610a9957600080fd5b6000610aa7848285016109d4565b91505092915050565b60008060208385031215610ac357600080fd5b600083013567ffffffffffffffff811115610add57600080fd5b610ae9858286016109e9565b92509250509250929050565b600060208284031215610b0757600080fd5b600082013567ffffffffffffffff811115610b2157600080fd5b610b2d84828501610a33565b91505092915050565b6000610b428383610b62565b60208301905092915050565b6000610b5a8383610c8c565b905092915050565b610b6b81610f78565b82525050565b610b7a81610f78565b82525050565b6000610b8b82610ee3565b610b958185610f29565b9350610ba083610eae565b8060005b83811015610bd1578151610bb88882610b36565b9750610bc383610f0f565b925050600181019050610ba4565b5085935050505092915050565b6000610be982610eee565b610bf38185610f3a565b935083602082028501610c0585610ebe565b8060005b85811015610c415784840389528151610c228582610b4e565b9450610c2d83610f1c565b925060208a01995050600181019050610c09565b50829750879550505050505092915050565b6000610c5e82610f04565b610c688185610f5c565b9350610c78818560208601610fb9565b610c8181610fec565b840191505092915050565b6000610c9782610ef9565b610ca18185610f4b565b9350610cb1818560208601610fb9565b610cba81610fec565b840191505092915050565b600081546001811660008114610ce25760018114610d0757610d4b565b607f6002830416610cf38187610f6d565b955060ff1983168652808601935050610d4b565b60028204610d158187610f6d565b9550610d2085610ece565b60005b82811015610d4257815481890152600182019150602081019050610d23565b82880195505050505b505092915050565b6000610d60600683610f6d565b91507f61747465736100000000000000000000000000000000000000000000000000006000830152600682019050919050565b6000610d9f8284610cc5565b915081905092915050565b6000610db582610d53565b9150819050919050565b6000602082019050610dd46000830184610b71565b92915050565b60006020820190508181036000830152610df48184610b80565b905092915050565b60006040820190508181036000830152610e168185610b80565b90508181036020830152610e2a8184610bde565b90509392505050565b60006020820190508181036000830152610e4d8184610c53565b905092915050565b6000604051905081810181811067ffffffffffffffff82111715610e7857600080fd5b8060405250919050565b600067ffffffffffffffff821115610e9957600080fd5b601f19601f8301169050602081019050919050565b6000819050602082019050919050565b6000819050602082019050919050565b60008190508160005260206000209050919050565b600081519050919050565b600081519050919050565b600081519050919050565b600081519050919050565b6000602082019050919050565b6000602082019050919050565b600082825260208201905092915050565b600082825260208201905092915050565b600082825260208201905092915050565b600082825260208201905092915050565b600081905092915050565b6000610f8382610f8a565b9050919050565b600073ffffffffffffffffffffffffffffffffffffffff82169050919050565b82818337600083830152505050565b60005b83811015610fd7578082015181840152602081019050610fbc565b83811115610fe6576000848401525b50505050565b6000601f19601f8301169050919050565b61100681610f78565b811461101157600080fd5b5056fea365627a7a723158201d400d393624ab1236f34e1eca844ac9c787ae7c4039b6008406dc8ba241a16b6c6578706572696d656e74616cf564736f6c63430005100040",
  "source": "// SPDX-License-Identifier: MIT\r\npragma solidity >=0.4.22 <0.8.22;\r\npragma experimental ABIEncoderV2;\r\n//creating smart contract \r\ncontract Brevetti {\r\n    string internal  id; //hash del documento\r\n    string internal  name;\r\n    address internal  user;\r\n    string internal  state;\r\n    mapping(address=>string) internal vote;\r\n    address[] internal voterAddresses;\r\n\r\n    constructor() public {}\r\n\r\n    function getVoterAddresses() public view returns (address[] memory){\r\n        return voterAddresses;\r\n    } \r\n\r\n    function getVotes() public view returns (address[] memory, string[] memory) {\r\n        uint256 votersCount = voterAddresses.length;\r\n        string[] memory votesList = new string[](votersCount);\r\n        for (uint256 i = 0; i < votersCount; i++) {\r\n            address voter = voterAddresses[i];\r\n            votesList[i] = vote[voter];\r\n        }\r\n        return (voterAddresses, votesList);\r\n    }\r\n\r\n    function addVoter(string memory _vote) public {\r\n        require(bytes(vote[msg.sender]).length == 0);\r\n        voterAddresses.push(msg.sender);\r\n        vote[msg.sender] = _vote;\r\n    }\r\n    \r\n\r\n    function getId() public view returns (string memory){\r\n        return id;\r\n    } \r\n\r\n    function setId(string memory _id) public{\r\n        id = _id;\r\n    }\r\n\r\n    function getName() public view returns (string memory){\r\n        return name;\r\n    }\r\n\r\n    function setName(string memory _name) public{\r\n        name = _name;\r\n    }\r\n\r\n    function getUser() public view returns (address){\r\n        return user;\r\n    }\r\n\r\n    function setUser(address _user) public{\r\n        user = _user;\r\n    } \r\n\r\n\r\n    function getState() public view returns (string memory){\r\n        return state;\r\n    }\r\n\r\n    function setState(string calldata _state) external{\r\n        if(keccak256(abi.encodePacked(state)) == keccak256(abi.encodePacked(\"attesa\"))){\r\n            state = _state;\r\n        }\r\n    }\r\n}",
  "sourcePath": "C:\\Users\\demai\\OneDrive\\Desktop\\BREVETTI\\Brevetti_3.0-1\\contracts\\Brevetti.sol",
  "compiler": {
    "name": "solc",
    "version": "0.5.16+commit.9c3226ce.Emscripten.clang"
  },
  "schemaVersion": "3.4.16",
  "updatedAt": "2024-02-19T21:26:39.835Z",
  "networkType": "ethereum",
  "devdoc": {
    "methods": {}
  },
  "userdoc": {
    "methods": {}
  }
}