{
  "contractName": "Brevetto",
  "abi": [
    {
      "constant": true,
      "inputs": [],
      "name": "getNumber",
      "outputs": [
        {
          "internalType": "uint256",
          "name": "",
          "type": "uint256"
        }
      ],
      "payable": false,
      "stateMutability": "view",
      "type": "function"
    },
    {
      "constant": false,
      "inputs": [
        {
          "internalType": "uint256",
          "name": "_number",
          "type": "uint256"
        }
      ],
      "name": "setNumber",
      "outputs": [],
      "payable": false,
      "stateMutability": "nonpayable",
      "type": "function"
    }
  ],
  "bytecode": "0x608060405234801561001057600080fd5b5060c68061001f6000396000f3fe6080604052348015600f57600080fd5b506004361060325760003560e01c80633fb5c1cb146037578063f2c9ecd8146062575b600080fd5b606060048036036020811015604b57600080fd5b8101908080359060200190929190505050607e565b005b60686088565b6040518082815260200191505060405180910390f35b8060008190555050565b6000805490509056fea265627a7a7231582022d9cad75eeba67f4b16bea2a876eb05c518a0324667d97390c8d4b49472e81b64736f6c63430005100032",
  "source": "// SPDX-License-Identifier: MIT\r\npragma solidity >=0.4.22 <0.8.22;\r\n//creating smart contract \r\ncontract Brevetto { \r\n\tuint256 private myNumber; \r\n\t\r\n    //defining function \r\n\tfunction getNumber() public view returns (uint256) { \r\n\t\treturn myNumber; \r\n\t} \r\n\r\n\tfunction setNumber(uint256 _number) public { \r\n\t\tmyNumber = _number; \r\n\t} \r\n}\r\n",
  "sourcePath": "C:\\Users\\asant\\Desktop\\Brevetti\\Brevetti_3.0\\contracts\\Brevetto.sol",
  "compiler": {
    "name": "solc",
    "version": "0.5.16+commit.9c3226ce.Emscripten.clang"
  },
  "schemaVersion": "3.4.16",
  "updatedAt": "2024-02-19T23:37:42.951Z",
  "networkType": "ethereum",
  "devdoc": {
    "methods": {}
  },
  "userdoc": {
    "methods": {}
  }
}