{
  "contractName": "Brevetto",
  "abi": [
    {
      "inputs": [],
      "stateMutability": "nonpayable",
      "type": "constructor"
    },
    {
      "anonymous": false,
      "inputs": [
        {
          "indexed": false,
          "internalType": "uint256",
          "name": "",
          "type": "uint256"
        },
        {
          "indexed": false,
          "internalType": "uint256",
          "name": "",
          "type": "uint256"
        }
      ],
      "name": "Debug",
      "type": "event"
    },
    {
      "inputs": [],
      "name": "setBalance",
      "outputs": [],
      "stateMutability": "payable",
      "type": "function",
      "payable": true
    },
    {
      "inputs": [],
      "name": "getVoterAddresses",
      "outputs": [
        {
          "internalType": "address[]",
          "name": "",
          "type": "address[]"
        }
      ],
      "stateMutability": "view",
      "type": "function",
      "constant": true
    },
    {
      "inputs": [],
      "name": "getVotes",
      "outputs": [
        {
          "internalType": "address[]",
          "name": "",
          "type": "address[]"
        },
        {
          "internalType": "string[]",
          "name": "",
          "type": "string[]"
        }
      ],
      "stateMutability": "view",
      "type": "function",
      "constant": true
    },
    {
      "inputs": [
        {
          "internalType": "string",
          "name": "_vote",
          "type": "string"
        }
      ],
      "name": "addVoter",
      "outputs": [],
      "stateMutability": "payable",
      "type": "function",
      "payable": true
    },
    {
      "inputs": [],
      "name": "getId",
      "outputs": [
        {
          "internalType": "string",
          "name": "",
          "type": "string"
        }
      ],
      "stateMutability": "view",
      "type": "function",
      "constant": true
    },
    {
      "inputs": [
        {
          "internalType": "string",
          "name": "_id",
          "type": "string"
        }
      ],
      "name": "setId",
      "outputs": [],
      "stateMutability": "nonpayable",
      "type": "function"
    },
    {
      "inputs": [],
      "name": "getName",
      "outputs": [
        {
          "internalType": "string",
          "name": "",
          "type": "string"
        }
      ],
      "stateMutability": "view",
      "type": "function",
      "constant": true
    },
    {
      "inputs": [
        {
          "internalType": "string",
          "name": "_name",
          "type": "string"
        }
      ],
      "name": "setName",
      "outputs": [],
      "stateMutability": "nonpayable",
      "type": "function"
    },
    {
      "inputs": [],
      "name": "getUser",
      "outputs": [
        {
          "internalType": "address",
          "name": "",
          "type": "address"
        }
      ],
      "stateMutability": "view",
      "type": "function",
      "constant": true
    },
    {
      "inputs": [
        {
          "internalType": "address",
          "name": "_user",
          "type": "address"
        }
      ],
      "name": "setUser",
      "outputs": [],
      "stateMutability": "nonpayable",
      "type": "function"
    },
    {
      "inputs": [],
      "name": "getState",
      "outputs": [
        {
          "internalType": "string",
          "name": "",
          "type": "string"
        }
      ],
      "stateMutability": "view",
      "type": "function",
      "constant": true
    },
    {
      "inputs": [
        {
          "internalType": "string",
          "name": "_state",
          "type": "string"
        }
      ],
      "name": "setState",
      "outputs": [],
      "stateMutability": "nonpayable",
      "type": "function"
    },
    {
      "inputs": [],
      "name": "rewardWinners",
      "outputs": [],
      "stateMutability": "payable",
      "type": "function",
      "payable": true
    },
    {
      "inputs": [],
      "name": "getBalance",
      "outputs": [
        {
          "internalType": "uint256",
          "name": "",
          "type": "uint256"
        }
      ],
      "stateMutability": "view",
      "type": "function",
      "constant": true
    }
  ],
  "bytecode": "0x608060405234801561001057600080fd5b5061217f806100206000396000f3fe6080604052600436106100dd5760003560e01c806368794b871161007f57806387e4396c1161005957806387e4396c1461026c578063aca8489214610295578063c47f0027146102b1578063ff28d2da146102da576100dd565b806368794b87146101ef578063832880e714610218578063858ced3514610243576100dd565b806317d7de7c116100bb57806317d7de7c146101645780631865c57d1461018f5780631a61746e146101ba5780635d1ca631146101c4576100dd565b80630a16e30b146100e25780630dc960151461010d57806312065fe014610139575b600080fd5b3480156100ee57600080fd5b506100f76102e4565b60405161010491906114fe565b60405180910390f35b34801561011957600080fd5b50610122610372565b604051610130929190611672565b60405180910390f35b34801561014557600080fd5b5061014e6105af565b60405161015b91906116c2565b60405180910390f35b34801561017057600080fd5b506101796105b9565b6040516101869190611727565b60405180910390f35b34801561019b57600080fd5b506101a461064b565b6040516101b19190611727565b60405180910390f35b6101c26106dd565b005b3480156101d057600080fd5b506101d9610730565b6040516101e69190611727565b60405180910390f35b3480156101fb57600080fd5b5061021660048036038101906102119190611892565b6107c2565b005b34801561022457600080fd5b5061022d61088a565b60405161023a91906118ea565b60405180910390f35b34801561024f57600080fd5b5061026a60048036038101906102659190611931565b6108b4565b005b34801561027857600080fd5b50610293600480360381019061028e9190611892565b6108f8565b005b6102af60048036038101906102aa9190611892565b61090b565b005b3480156102bd57600080fd5b506102d860048036038101906102d39190611892565b610acb565b005b6102e2610ade565b005b6060600680548060200260200160405190810160405280929190818152602001828054801561036857602002820191906000526020600020905b8160009054906101000a900473ffffffffffffffffffffffffffffffffffffffff1673ffffffffffffffffffffffffffffffffffffffff168152602001906001019080831161031e575b5050505050905090565b6060806000600680549050905060008167ffffffffffffffff81111561039b5761039a611767565b5b6040519080825280602002602001820160405280156103ce57816020015b60608152602001906001900390816103b95790505b50905060005b82811015610519576000600682815481106103f2576103f161195e565b5b9060005260206000200160009054906101000a900473ffffffffffffffffffffffffffffffffffffffff169050600560008273ffffffffffffffffffffffffffffffffffffffff1673ffffffffffffffffffffffffffffffffffffffff1681526020019081526020016000208054610469906119bc565b80601f0160208091040260200160405190810160405280929190818152602001828054610495906119bc565b80156104e25780601f106104b7576101008083540402835291602001916104e2565b820191906000526020600020905b8154815290600101906020018083116104c557829003601f168201915b50505050508383815181106104fa576104f961195e565b5b602002602001018190525050808061051190611a1c565b9150506103d4565b506006818180548060200260200160405190810160405280929190818152602001828054801561059e57602002820191906000526020600020905b8160009054906101000a900473ffffffffffffffffffffffffffffffffffffffff1673ffffffffffffffffffffffffffffffffffffffff1681526020019060010190808311610554575b505050505091509350935050509091565b6000600454905090565b6060600180546105c8906119bc565b80601f01602080910402602001604051908101604052809291908181526020018280546105f4906119bc565b80156106415780601f1061061657610100808354040283529160200191610641565b820191906000526020600020905b81548152906001019060200180831161062457829003601f168201915b5050505050905090565b60606003805461065a906119bc565b80601f0160208091040260200160405190810160405280929190818152602001828054610686906119bc565b80156106d35780601f106106a8576101008083540402835291602001916106d3565b820191906000526020600020905b8154815290600101906020018083116106b657829003601f168201915b5050505050905090565b6729a2241af62c00003414610727576040517f08c379a000000000000000000000000000000000000000000000000000000000815260040161071e90611ad6565b60405180910390fd5b34600481905550565b60606000805461073f906119bc565b80601f016020809104026020016040519081016040528092919081815260200182805461076b906119bc565b80156107b85780601f1061078d576101008083540402835291602001916107b8565b820191906000526020600020905b81548152906001019060200180831161079b57829003601f168201915b5050505050905090565b6040516020016107d190611b4d565b6040516020818303038152906040528051906020012060036040516020016107f99190611bfa565b60405160208183030381529060405280519060200120036108255780600390816108239190611da8565b505b60405160200161083490611b4d565b604051602081830303815290604052805190602001208160405160200161085b9190611eab565b60405160208183030381529060405280519060200120036108875780600390816108859190611da8565b505b50565b6000600260009054906101000a900473ffffffffffffffffffffffffffffffffffffffff16905090565b80600260006101000a81548173ffffffffffffffffffffffffffffffffffffffff021916908373ffffffffffffffffffffffffffffffffffffffff16021790555050565b80600090816109079190611da8565b5050565b6000600560003373ffffffffffffffffffffffffffffffffffffffff1673ffffffffffffffffffffffffffffffffffffffff1681526020019081526020016000208054610957906119bc565b90501461096357600080fd5b600260009054906101000a900473ffffffffffffffffffffffffffffffffffffffff1673ffffffffffffffffffffffffffffffffffffffff163373ffffffffffffffffffffffffffffffffffffffff16036109bd57600080fd5b6040516020016109cc90611f0e565b60405160208183030381529060405280519060200120816040516020016109f39190611eab565b6040516020818303038152906040528051906020012003610a1857610a17346110ba565b5b6006339080600181540180825580915050600190039060005260206000200160009091909190916101000a81548173ffffffffffffffffffffffffffffffffffffffff021916908373ffffffffffffffffffffffffffffffffffffffff16021790555080600560003373ffffffffffffffffffffffffffffffffffffffff1673ffffffffffffffffffffffffffffffffffffffff1681526020019081526020016000209081610ac79190611da8565b5050565b8060019081610ada9190611da8565b5050565b600080610ae96110ea565b91509150600081610af86105af565b610b029190611f52565b90507fad7c87b11456fab3d69245f95442061bce96cb3c345293507ec8bae59023990f81610b2e6105af565b604051610b3c929190611f83565b60405180910390a1610b4c6105af565b811115610b8e576040517f08c379a0000000000000000000000000000000000000000000000000000000008152600401610b859061201e565b60405180910390fd5b604051602001610b9d9061208a565b6040516020818303038152906040528051906020012083604051602001610bc49190611eab565b6040516020818303038152906040528051906020012003610e1d5760005b600680549050811015610e175760006005600060068481548110610c0957610c0861195e565b5b9060005260206000200160009054906101000a900473ffffffffffffffffffffffffffffffffffffffff1673ffffffffffffffffffffffffffffffffffffffff1673ffffffffffffffffffffffffffffffffffffffff1681526020019081526020016000208054610c79906119bc565b80601f0160208091040260200160405190810160405280929190818152602001828054610ca5906119bc565b8015610cf25780601f10610cc757610100808354040283529160200191610cf2565b820191906000526020600020905b815481529060010190602001808311610cd557829003601f168201915b5050505050905084604051602001610d0a9190611eab565b6040516020818303038152906040528051906020012081604051602001610d319190611eab565b6040516020818303038152906040528051906020012003610e03576000839050633b9aca0081610d61919061209f565b90508360046000828254610d7591906120e1565b9250508190555060068381548110610d9057610d8f61195e565b5b9060005260206000200160009054906101000a900473ffffffffffffffffffffffffffffffffffffffff1673ffffffffffffffffffffffffffffffffffffffff166108fc829081150290604051600060405180830381858888f19350505050158015610e00573d6000803e3d6000fd5b50505b508080610e0f90611a1c565b915050610be2565b506110b5565b604051602001610e2c90611f0e565b6040516020818303038152906040528051906020012083604051602001610e539190611eab565b60405160208183030381529060405280519060200120036110b45760005b6006805490508110156110b25760006005600060068481548110610e9857610e9761195e565b5b9060005260206000200160009054906101000a900473ffffffffffffffffffffffffffffffffffffffff1673ffffffffffffffffffffffffffffffffffffffff1673ffffffffffffffffffffffffffffffffffffffff1681526020019081526020016000208054610f08906119bc565b80601f0160208091040260200160405190810160405280929190818152602001828054610f34906119bc565b8015610f815780601f10610f5657610100808354040283529160200191610f81565b820191906000526020600020905b815481529060010190602001808311610f6457829003601f168201915b5050505050905084604051602001610f999190611eab565b6040516020818303038152906040528051906020012081604051602001610fc09190611eab565b604051602081830303815290604052805190602001200361109e576000600184610fea9190612115565b9050633b9aca0081610ffc919061209f565b9050836004600082825461101091906120e1565b925050819055506006838154811061102b5761102a61195e565b5b9060005260206000200160009054906101000a900473ffffffffffffffffffffffffffffffffffffffff1673ffffffffffffffffffffffffffffffffffffffff166108fc829081150290604051600060405180830381858888f1935050505015801561109b573d6000803e3d6000fd5b50505b5080806110aa90611a1c565b915050610e71565b505b5b505050565b670de0b6b3a764000081146110ce57600080fd5b80600460008282546110e09190612115565b9250508190555050565b6060600080600680549050116110ff57600080fd5b60008060005b6006805490508110156112f5576000600560006006848154811061112c5761112b61195e565b5b9060005260206000200160009054906101000a900473ffffffffffffffffffffffffffffffffffffffff1673ffffffffffffffffffffffffffffffffffffffff1673ffffffffffffffffffffffffffffffffffffffff168152602001908152602001600020805461119c906119bc565b80601f01602080910402602001604051908101604052809291908181526020018280546111c8906119bc565b80156112155780601f106111ea57610100808354040283529160200191611215565b820191906000526020600020905b8154815290600101906020018083116111f857829003601f168201915b5050505050905060405160200161122b9061208a565b60405160208183030381529060405280519060200120816040516020016112529190611eab565b604051602081830303815290604052805190602001200361128057838061127890611a1c565b9450506112e1565b60405160200161128f90611f0e565b60405160208183030381529060405280519060200120816040516020016112b69190611eab565b60405160208183030381529060405280519060200120036112e05782806112dc90611a1c565b9350505b5b5080806112ed90611a1c565b915050611105565b5080821061137e5761133b6040518060400160405280600a81526020017f436f6e6665726d61746f000000000000000000000000000000000000000000008152506107c2565b816040518060400160405280600a81526020017f436f6e6665726d61746f000000000000000000000000000000000000000000008152509093509350505061140a565b81811115611407576113c46040518060400160405280600981526020017f52696669757461746f00000000000000000000000000000000000000000000008152506107c2565b806040518060400160405280600981526020017f52696669757461746f00000000000000000000000000000000000000000000008152509093509350505061140a565b50505b9091565b600081519050919050565b600082825260208201905092915050565b6000819050602082019050919050565b600073ffffffffffffffffffffffffffffffffffffffff82169050919050565b60006114658261143a565b9050919050565b6114758161145a565b82525050565b6000611487838361146c565b60208301905092915050565b6000602082019050919050565b60006114ab8261140e565b6114b58185611419565b93506114c08361142a565b8060005b838110156114f15781516114d8888261147b565b97506114e383611493565b9250506001810190506114c4565b5085935050505092915050565b6000602082019050818103600083015261151881846114a0565b905092915050565b600081519050919050565b600082825260208201905092915050565b6000819050602082019050919050565b600081519050919050565b600082825260208201905092915050565b60005b8381101561158657808201518184015260208101905061156b565b60008484015250505050565b6000601f19601f8301169050919050565b60006115ae8261154c565b6115b88185611557565b93506115c8818560208601611568565b6115d181611592565b840191505092915050565b60006115e883836115a3565b905092915050565b6000602082019050919050565b600061160882611520565b611612818561152b565b9350836020820285016116248561153c565b8060005b85811015611660578484038952815161164185826115dc565b945061164c836115f0565b925060208a01995050600181019050611628565b50829750879550505050505092915050565b6000604082019050818103600083015261168c81856114a0565b905081810360208301526116a081846115fd565b90509392505050565b6000819050919050565b6116bc816116a9565b82525050565b60006020820190506116d760008301846116b3565b92915050565b600082825260208201905092915050565b60006116f98261154c565b61170381856116dd565b9350611713818560208601611568565b61171c81611592565b840191505092915050565b6000602082019050818103600083015261174181846116ee565b905092915050565b6000604051905090565b600080fd5b600080fd5b600080fd5b600080fd5b7f4e487b7100000000000000000000000000000000000000000000000000000000600052604160045260246000fd5b61179f82611592565b810181811067ffffffffffffffff821117156117be576117bd611767565b5b80604052505050565b60006117d1611749565b90506117dd8282611796565b919050565b600067ffffffffffffffff8211156117fd576117fc611767565b5b61180682611592565b9050602081019050919050565b82818337600083830152505050565b6000611835611830846117e2565b6117c7565b90508281526020810184848401111561185157611850611762565b5b61185c848285611813565b509392505050565b600082601f8301126118795761187861175d565b5b8135611889848260208601611822565b91505092915050565b6000602082840312156118a8576118a7611753565b5b600082013567ffffffffffffffff8111156118c6576118c5611758565b5b6118d284828501611864565b91505092915050565b6118e48161145a565b82525050565b60006020820190506118ff60008301846118db565b92915050565b61190e8161145a565b811461191957600080fd5b50565b60008135905061192b81611905565b92915050565b60006020828403121561194757611946611753565b5b60006119558482850161191c565b91505092915050565b7f4e487b7100000000000000000000000000000000000000000000000000000000600052603260045260246000fd5b7f4e487b7100000000000000000000000000000000000000000000000000000000600052602260045260246000fd5b600060028204905060018216806119d457607f821691505b6020821081036119e7576119e661198d565b5b50919050565b7f4e487b7100000000000000000000000000000000000000000000000000000000600052601160045260246000fd5b6000611a27826116a9565b91507fffffffffffffffffffffffffffffffffffffffffffffffffffffffffffffffff8203611a5957611a586119ed565b5b600182019050919050565b7f496c2076616c6f72652064656c2073616c646f2064657665206573736572652060008201527f6573617474616d656e7465203320657468657200000000000000000000000000602082015250565b6000611ac06033836116dd565b9150611acb82611a64565b604082019050919050565b60006020820190508181036000830152611aef81611ab3565b9050919050565b600081905092915050565b7f6174746573610000000000000000000000000000000000000000000000000000600082015250565b6000611b37600683611af6565b9150611b4282611b01565b600682019050919050565b6000611b5882611b2a565b9150819050919050565b60008190508160005260206000209050919050565b60008154611b84816119bc565b611b8e8186611af6565b94506001821660008114611ba95760018114611bbe57611bf1565b60ff1983168652811515820286019350611bf1565b611bc785611b62565b60005b83811015611be957815481890152600182019150602081019050611bca565b838801955050505b50505092915050565b6000611c068284611b77565b915081905092915050565b60006020601f8301049050919050565b600082821b905092915050565b600060088302611c5e7fffffffffffffffffffffffffffffffffffffffffffffffffffffffffffffffff82611c21565b611c688683611c21565b95508019841693508086168417925050509392505050565b6000819050919050565b6000611ca5611ca0611c9b846116a9565b611c80565b6116a9565b9050919050565b6000819050919050565b611cbf83611c8a565b611cd3611ccb82611cac565b848454611c2e565b825550505050565b600090565b611ce8611cdb565b611cf3818484611cb6565b505050565b5b81811015611d1757611d0c600082611ce0565b600181019050611cf9565b5050565b601f821115611d5c57611d2d81611b62565b611d3684611c11565b81016020851015611d45578190505b611d59611d5185611c11565b830182611cf8565b50505b505050565b600082821c905092915050565b6000611d7f60001984600802611d61565b1980831691505092915050565b6000611d988383611d6e565b9150826002028217905092915050565b611db18261154c565b67ffffffffffffffff811115611dca57611dc9611767565b5b611dd482546119bc565b611ddf828285611d1b565b600060209050601f831160018114611e125760008415611e00578287015190505b611e0a8582611d8c565b865550611e72565b601f198416611e2086611b62565b60005b82811015611e4857848901518255600182019150602085019450602081019050611e23565b86831015611e655784890151611e61601f891682611d6e565b8355505b6001600288020188555050505b505050505050565b6000611e858261154c565b611e8f8185611af6565b9350611e9f818560208601611568565b80840191505092915050565b6000611eb78284611e7a565b915081905092915050565b7f52696669757461746f0000000000000000000000000000000000000000000000600082015250565b6000611ef8600983611af6565b9150611f0382611ec2565b600982019050919050565b6000611f1982611eeb565b9150819050919050565b7f4e487b7100000000000000000000000000000000000000000000000000000000600052601260045260246000fd5b6000611f5d826116a9565b9150611f68836116a9565b925082611f7857611f77611f23565b5b828204905092915050565b6000604082019050611f9860008301856116b3565b611fa560208301846116b3565b9392505050565b7f466f6e646920696e73756666696369656e7469206e656c20636f6e747261747460008201527f6f00000000000000000000000000000000000000000000000000000000000000602082015250565b60006120086021836116dd565b915061201382611fac565b604082019050919050565b6000602082019050818103600083015261203781611ffb565b9050919050565b7f436f6e6665726d61746f00000000000000000000000000000000000000000000600082015250565b6000612074600a83611af6565b915061207f8261203e565b600a82019050919050565b600061209582612067565b9150819050919050565b60006120aa826116a9565b91506120b5836116a9565b92508282026120c3816116a9565b915082820484148315176120da576120d96119ed565b5b5092915050565b60006120ec826116a9565b91506120f7836116a9565b925082820390508181111561210f5761210e6119ed565b5b92915050565b6000612120826116a9565b915061212b836116a9565b9250828201905080821115612143576121426119ed565b5b9291505056fea2646970667358221220613b65905f01360147c2245e7b3a4be54382ad18423a3603086f9bab6fdea1fa64736f6c63430008130033",
  "immutableReferences": {},
  "source": "// SPDX-License-Identifier: MIT\r\npragma solidity >=0.4.20 <=0.8.19;\r\npragma experimental ABIEncoderV2;\r\n\r\ncontract Brevetto{\r\n    string private  id; //hash del documento\r\n    string private  name;\r\n    address private  user;\r\n    string private  state;\r\n    uint256 private balance;\r\n    mapping(address=>string) private vote;\r\n    address[] private voterAddresses ;\r\n    event Debug(uint256 , uint256 );\r\n\r\n    constructor() {\r\n        //address(this).balance = 0;\r\n    }\r\n\r\n    function addBalance(uint et) private {\r\n        require(et == 1 ether);\r\n        balance += et;\r\n    }\r\n\r\n    function setBalance() public payable {\r\n        require(msg.value == 3 ether, \"Il valore del saldo deve essere esattamente 3 ether\");\r\n        balance = msg.value;\r\n    }\r\n\r\n    function getVoterAddresses() public view returns (address[] memory){\r\n        return voterAddresses;\r\n    } \r\n\r\n    function getVotes() public view returns (address[] memory, string[] memory) {\r\n        uint256 votersCount = voterAddresses.length;\r\n        string[] memory votesList = new string[](votersCount);\r\n        for (uint256 i = 0; i < votersCount; i++) {\r\n            address voter = voterAddresses[i];\r\n            votesList[i] = vote[voter];\r\n        }\r\n        return (voterAddresses, votesList);\r\n    }\r\n\r\n    function addVoter(string memory _vote) public payable{\r\n        require(bytes(vote[msg.sender]).length == 0);\r\n        require(msg.sender != user);\r\n        if (keccak256(abi.encodePacked(_vote)) == keccak256(abi.encodePacked(\"Rifiutato\"))) {\r\n            addBalance(msg.value);\r\n        }\r\n        \r\n        voterAddresses.push(msg.sender);\r\n        vote[msg.sender] = _vote;\r\n    }\r\n\r\n    function getId() public view returns (string memory){\r\n        return id;\r\n    } \r\n\r\n    function setId(string memory _id) public{\r\n        id = _id;\r\n    }\r\n\r\n    function getName() public view returns (string memory){\r\n        return name;\r\n    }\r\n\r\n    function setName(string memory _name) public{\r\n        name = _name;\r\n    }\r\n\r\n    function getUser() public view returns (address){\r\n        return user;\r\n    }\r\n\r\n    function setUser(address _user) public{\r\n        user = _user;\r\n    } \r\n\r\n\r\n    function getState() public view returns (string memory){\r\n        return state;\r\n    }\r\n\r\n    function setState(string memory _state) public{\r\n        if(keccak256(abi.encodePacked(state)) == keccak256(abi.encodePacked(\"attesa\"))){\r\n            state = _state;\r\n        }\r\n\r\n        if(keccak256(abi.encodePacked(_state)) == keccak256(abi.encodePacked(\"attesa\"))){\r\n            state = _state;\r\n        }\r\n    }\r\n\r\n\r\n    function getWinner() private returns (string memory winnerType, uint winnerVotes) {\r\n        require(voterAddresses.length > 0);\r\n        uint confirmedVotes = 0;\r\n        uint rejectedVotes = 0;\r\n\r\n        for (uint i = 0; i < voterAddresses.length; i++) {\r\n            string memory voteType = vote[voterAddresses[i]];\r\n            if (keccak256(abi.encodePacked(voteType)) == keccak256(abi.encodePacked(\"Confermato\"))) {\r\n                confirmedVotes++;\r\n            } else if (keccak256(abi.encodePacked(voteType)) == keccak256(abi.encodePacked(\"Rifiutato\"))) {\r\n                rejectedVotes++;\r\n            }\r\n        }\r\n\r\n        if (confirmedVotes >= rejectedVotes) {\r\n            setState(\"Confermato\");\r\n            return (\"Confermato\", confirmedVotes);\r\n        } else if (rejectedVotes > confirmedVotes) {\r\n            setState(\"Rifiutato\");\r\n            return (\"Rifiutato\", rejectedVotes);\r\n        }\r\n    }\r\n\r\n\r\n    function rewardWinners() public payable{\r\n\r\n        (string memory winnerType, uint winnerVotes) = getWinner();\r\n\r\n        \r\n\r\n        \r\n        uint256 amountPerVote = getBalance()/winnerVotes;\r\n        emit Debug(amountPerVote, getBalance());\r\n        require(amountPerVote <= getBalance(), \"Fondi insufficienti nel contratto\");\r\n\r\n        if(keccak256(abi.encodePacked(winnerType)) == keccak256(abi.encodePacked(\"Confermato\"))){\r\n            \r\n            for (uint i = 0; i < voterAddresses.length; i++) {\r\n                string memory voteType = vote[voterAddresses[i]];\r\n                if (keccak256(abi.encodePacked(voteType)) == keccak256(abi.encodePacked(winnerType))) {\r\n                    uint256 amountToSend = amountPerVote;\r\n                    amountToSend *= (10**9);\r\n                    balance -= amountPerVote;\r\n                    payable(voterAddresses[i]).transfer(amountToSend);\r\n                }\r\n            }\r\n        }else if(keccak256(abi.encodePacked(winnerType)) == keccak256(abi.encodePacked(\"Rifiutato\"))){\r\n            \r\n            for (uint i = 0; i < voterAddresses.length; i++) {\r\n                string memory voteType = vote[voterAddresses[i]];\r\n                if (keccak256(abi.encodePacked(voteType)) == keccak256(abi.encodePacked(winnerType))) {\r\n                    uint256 amountToSend = amountPerVote + 1; \r\n                    amountToSend *= (10**9);\r\n                    balance -= amountPerVote;\r\n                    payable(voterAddresses[i]).transfer(amountToSend);\r\n                }\r\n            }\r\n        }\r\n    }\r\n\r\n    function getBalance() public view returns(uint256){\r\n        return balance;\r\n    }\r\n}",
  "sourcePath": "C:\\Users\\asant\\Desktop\\Brevetti\\Brevetti_3.0-1\\contracts\\Brevetto.sol",
  "compiler": {
    "name": "solc",
    "version": "0.8.19+commit.7dd6d404.Emscripten.clang"
  },
  "schemaVersion": "3.4.16",
  "updatedAt": "2024-02-22T18:16:16.159Z",
  "networkType": "ethereum",
  "devdoc": {
    "kind": "dev",
    "methods": {},
    "version": 1
  },
  "userdoc": {
    "kind": "user",
    "methods": {},
    "version": 1
  }
}