{
  "contractName": "Factory",
  "abi": [
    {
      "inputs": [],
      "payable": false,
      "stateMutability": "nonpayable",
      "type": "constructor"
    },
    {
      "constant": false,
      "inputs": [
        {
          "internalType": "string",
          "name": "_id",
          "type": "string"
        },
        {
          "internalType": "string",
          "name": "_name",
          "type": "string"
        },
        {
          "internalType": "address",
          "name": "user",
          "type": "address"
        }
      ],
      "name": "createBrevetto",
      "outputs": [],
      "payable": false,
      "stateMutability": "nonpayable",
      "type": "function"
    },
    {
      "constant": true,
      "inputs": [],
      "name": "getList",
      "outputs": [
        {
          "internalType": "string[]",
          "name": "",
          "type": "string[]"
        }
      ],
      "payable": false,
      "stateMutability": "view",
      "type": "function"
    },
    {
      "constant": true,
      "inputs": [
        {
          "internalType": "string",
          "name": "brevettoId",
          "type": "string"
        }
      ],
      "name": "getBrevetto",
      "outputs": [
        {
          "internalType": "contract Brevetti",
          "name": "",
          "type": "address"
        }
      ],
      "payable": false,
      "stateMutability": "view",
      "type": "function"
    }
  ],
  "bytecode": "0x608060405234801561001057600080fd5b50611c51806100206000396000f3fe608060405234801561001057600080fd5b50600436106100415760003560e01c80636e30007914610046578063942b765a14610076578063db1be1ad14610094575b600080fd5b610060600480360361005b919081019061066b565b6100b0565b60405161006d919061094a565b60405180910390f35b61007e610226565b60405161008b9190610928565b60405180910390f35b6100ae60048036036100a991908101906106ed565b61035e565b005b600080600090505b60008054905081101561021f57826040516020016100d691906108f6565b60405160208183030381529060405280519060200120600082815481106100f957fe5b9060005260206000200160009054906101000a900473ffffffffffffffffffffffffffffffffffffffff1673ffffffffffffffffffffffffffffffffffffffff16635d1ca6316040518163ffffffff1660e01b815260040160006040518083038186803b15801561016957600080fd5b505afa15801561017d573d6000803e3d6000fd5b505050506040513d6000823e3d601f19601f820116820180604052506101a691908101906106ac565b6040516020016101b691906108f6565b60405160208183030381529060405280519060200120141561021257600081815481106101df57fe5b9060005260206000200160009054906101000a900473ffffffffffffffffffffffffffffffffffffffff16915050610221565b80806001019150506100b8565b505b919050565b60608060008054905060405190808252806020026020018201604052801561026257816020015b606081526020019060019003908161024d5790505b50905060008090505b600080549050811015610356576000818154811061028557fe5b9060005260206000200160009054906101000a900473ffffffffffffffffffffffffffffffffffffffff1673ffffffffffffffffffffffffffffffffffffffff16635d1ca6316040518163ffffffff1660e01b815260040160006040518083038186803b1580156102f557600080fd5b505afa158015610309573d6000803e3d6000fd5b505050506040513d6000823e3d601f19601f8201168201806040525061033291908101906106ac565b82828151811061033e57fe5b6020026020010181905250808060010191505061026b565b508091505090565b600060405161036c906105a1565b604051809103906000f080158015610388573d6000803e3d6000fd5b5090508073ffffffffffffffffffffffffffffffffffffffff166387e4396c856040518263ffffffff1660e01b81526004016103c49190610965565b600060405180830381600087803b1580156103de57600080fd5b505af11580156103f2573d6000803e3d6000fd5b505050508073ffffffffffffffffffffffffffffffffffffffff1663c47f0027846040518263ffffffff1660e01b815260040161042f9190610965565b600060405180830381600087803b15801561044957600080fd5b505af115801561045d573d6000803e3d6000fd5b505050508073ffffffffffffffffffffffffffffffffffffffff1663858ced35836040518263ffffffff1660e01b815260040161049a919061090d565b600060405180830381600087803b1580156104b457600080fd5b505af11580156104c8573d6000803e3d6000fd5b505050508073ffffffffffffffffffffffffffffffffffffffff166368794b876040518163ffffffff1660e01b815260040161050390610987565b600060405180830381600087803b15801561051d57600080fd5b505af1158015610531573d6000803e3d6000fd5b5050505060008190806001815401808255809150509060018203906000526020600020016000909192909190916101000a81548173ffffffffffffffffffffffffffffffffffffffff021916908373ffffffffffffffffffffffffffffffffffffffff1602179055505050505050565b6110d280610b3d83390190565b6000813590506105bd81610b25565b92915050565b600082601f8301126105d457600080fd5b81356105e76105e2826109d4565b6109a7565b9150808252602083016020830185838301111561060357600080fd5b61060e838284610ad2565b50505092915050565b600082601f83011261062857600080fd5b815161063b610636826109d4565b6109a7565b9150808252602083016020830185838301111561065757600080fd5b610662838284610ae1565b50505092915050565b60006020828403121561067d57600080fd5b600082013567ffffffffffffffff81111561069757600080fd5b6106a3848285016105c3565b91505092915050565b6000602082840312156106be57600080fd5b600082015167ffffffffffffffff8111156106d857600080fd5b6106e484828501610617565b91505092915050565b60008060006060848603121561070257600080fd5b600084013567ffffffffffffffff81111561071c57600080fd5b610728868287016105c3565b935050602084013567ffffffffffffffff81111561074557600080fd5b610751868287016105c3565b9250506040610762868287016105ae565b9150509250925092565b6000610778838361087d565b905092915050565b61078981610a7c565b82525050565b600061079a82610a10565b6107a48185610a3e565b9350836020820285016107b685610a00565b8060005b858110156107f257848403895281516107d3858261076c565b94506107de83610a31565b925060208a019950506001810190506107ba565b50829750879550505050505092915050565b61080d81610aae565b82525050565b600061081e82610a26565b6108288185610a60565b9350610838818560208601610ae1565b61084181610b14565b840191505092915050565b600061085782610a26565b6108618185610a71565b9350610871818560208601610ae1565b80840191505092915050565b600061088882610a1b565b6108928185610a4f565b93506108a2818560208601610ae1565b6108ab81610b14565b840191505092915050565b60006108c3600683610a60565b91507f61747465736100000000000000000000000000000000000000000000000000006000830152602082019050919050565b6000610902828461084c565b915081905092915050565b60006020820190506109226000830184610780565b92915050565b60006020820190508181036000830152610942818461078f565b905092915050565b600060208201905061095f6000830184610804565b92915050565b6000602082019050818103600083015261097f8184610813565b905092915050565b600060208201905081810360008301526109a0816108b6565b9050919050565b6000604051905081810181811067ffffffffffffffff821117156109ca57600080fd5b8060405250919050565b600067ffffffffffffffff8211156109eb57600080fd5b601f19601f8301169050602081019050919050565b6000819050602082019050919050565b600081519050919050565b600081519050919050565b600081519050919050565b6000602082019050919050565b600082825260208201905092915050565b600082825260208201905092915050565b600082825260208201905092915050565b600081905092915050565b6000610a8782610a8e565b9050919050565b600073ffffffffffffffffffffffffffffffffffffffff82169050919050565b6000610ab982610ac0565b9050919050565b6000610acb82610a8e565b9050919050565b82818337600083830152505050565b60005b83811015610aff578082015181840152602081019050610ae4565b83811115610b0e576000848401525b50505050565b6000601f19601f8301169050919050565b610b2e81610a7c565b8114610b3957600080fd5b5056fe608060405234801561001057600080fd5b506110b2806100206000396000f3fe608060405234801561001057600080fd5b50600436106100a95760003560e01c806368794b871161007157806368794b8714610145578063832880e714610161578063858ced351461017f57806387e4396c1461019b578063aca84892146101b7578063c47f0027146101d3576100a9565b80630a16e30b146100ae5780630dc96015146100cc57806317d7de7c146100eb5780631865c57d146101095780635d1ca63114610127575b600080fd5b6100b66101ef565b6040516100c39190610e35565b60405180910390f35b6100d461027d565b6040516100e2929190610e57565b60405180910390f35b6100f36104a0565b6040516101009190610e8e565b60405180910390f35b610111610542565b60405161011e9190610e8e565b60405180910390f35b61012f6105e4565b60405161013c9190610e8e565b60405180910390f35b61015f600480360361015a9190810190610b0b565b610686565b005b6101696106f0565b6040516101769190610e1a565b60405180910390f35b61019960048036036101949190810190610ae2565b61071a565b005b6101b560048036036101b09190810190610b50565b61075e565b005b6101d160048036036101cc9190810190610b50565b610778565b005b6101ed60048036036101e89190810190610b50565b6108f0565b005b6060600580548060200260200160405190810160405280929190818152602001828054801561027357602002820191906000526020600020905b8160009054906101000a900473ffffffffffffffffffffffffffffffffffffffff1673ffffffffffffffffffffffffffffffffffffffff1681526020019060010190808311610229575b5050505050905090565b606080600060058054905090506060816040519080825280602002602001820160405280156102c057816020015b60608152602001906001900390816102ab5790505b50905060008090505b8281101561040a576000600582815481106102e057fe5b9060005260206000200160009054906101000a900473ffffffffffffffffffffffffffffffffffffffff169050600460008273ffffffffffffffffffffffffffffffffffffffff1673ffffffffffffffffffffffffffffffffffffffff1681526020019081526020016000208054600181600116156101000203166002900480601f0160208091040260200160405190810160405280929190818152602001828054600181600116156101000203166002900480156103e05780601f106103b5576101008083540402835291602001916103e0565b820191906000526020600020905b8154815290600101906020018083116103c357829003601f168201915b50505050508383815181106103f157fe5b60200260200101819052505080806001019150506102c9565b506005818180548060200260200160405190810160405280929190818152602001828054801561048f57602002820191906000526020600020905b8160009054906101000a900473ffffffffffffffffffffffffffffffffffffffff1673ffffffffffffffffffffffffffffffffffffffff1681526020019060010190808311610445575b505050505091509350935050509091565b606060018054600181600116156101000203166002900480601f0160208091040260200160405190810160405280929190818152602001828054600181600116156101000203166002900480156105385780601f1061050d57610100808354040283529160200191610538565b820191906000526020600020905b81548152906001019060200180831161051b57829003601f168201915b5050505050905090565b606060038054600181600116156101000203166002900480601f0160208091040260200160405190810160405280929190818152602001828054600181600116156101000203166002900480156105da5780601f106105af576101008083540402835291602001916105da565b820191906000526020600020905b8154815290600101906020018083116105bd57829003601f168201915b5050505050905090565b606060008054600181600116156101000203166002900480601f01602080910402602001604051908101604052809291908181526020018280546001816001161561010002031660029004801561067c5780601f106106515761010080835404028352916020019161067c565b820191906000526020600020905b81548152906001019060200180831161065f57829003601f168201915b5050505050905090565b60405160200161069590610e05565b6040516020818303038152906040528051906020012060036040516020016106bd9190610dee565b6040516020818303038152906040528051906020012014156106ec578181600391906106ea92919061090a565b505b5050565b6000600260009054906101000a900473ffffffffffffffffffffffffffffffffffffffff16905090565b80600260006101000a81548173ffffffffffffffffffffffffffffffffffffffff021916908373ffffffffffffffffffffffffffffffffffffffff16021790555050565b806000908051906020019061077492919061098a565b5050565b6000600460003373ffffffffffffffffffffffffffffffffffffffff1673ffffffffffffffffffffffffffffffffffffffff168152602001908152602001600020805460018160011615610100020316600290049050146107d857600080fd5b600260009054906101000a900473ffffffffffffffffffffffffffffffffffffffff1673ffffffffffffffffffffffffffffffffffffffff163373ffffffffffffffffffffffffffffffffffffffff16141561083357600080fd5b60053390806001815401808255809150509060018203906000526020600020016000909192909190916101000a81548173ffffffffffffffffffffffffffffffffffffffff021916908373ffffffffffffffffffffffffffffffffffffffff1602179055505080600460003373ffffffffffffffffffffffffffffffffffffffff1673ffffffffffffffffffffffffffffffffffffffff16815260200190815260200160002090805190602001906108ec92919061098a565b5050565b806001908051906020019061090692919061098a565b5050565b828054600181600116156101000203166002900490600052602060002090601f016020900481019282601f1061094b57803560ff1916838001178555610979565b82800160010185558215610979579182015b8281111561097857823582559160200191906001019061095d565b5b5090506109869190610a0a565b5090565b828054600181600116156101000203166002900490600052602060002090601f016020900481019282601f106109cb57805160ff19168380011785556109f9565b828001600101855582156109f9579182015b828111156109f85782518255916020019190600101906109dd565b5b509050610a069190610a0a565b5090565b610a2c91905b80821115610a28576000816000905550600101610a10565b5090565b90565b600081359050610a3e81611058565b92915050565b60008083601f840112610a5657600080fd5b8235905067ffffffffffffffff811115610a6f57600080fd5b602083019150836001820283011115610a8757600080fd5b9250929050565b600082601f830112610a9f57600080fd5b8135610ab2610aad82610edd565b610eb0565b91508082526020830160208301858383011115610ace57600080fd5b610ad9838284611005565b50505092915050565b600060208284031215610af457600080fd5b6000610b0284828501610a2f565b91505092915050565b60008060208385031215610b1e57600080fd5b600083013567ffffffffffffffff811115610b3857600080fd5b610b4485828601610a44565b92509250509250929050565b600060208284031215610b6257600080fd5b600082013567ffffffffffffffff811115610b7c57600080fd5b610b8884828501610a8e565b91505092915050565b6000610b9d8383610bbd565b60208301905092915050565b6000610bb58383610ce7565b905092915050565b610bc681610fd3565b82525050565b610bd581610fd3565b82525050565b6000610be682610f3e565b610bf08185610f84565b9350610bfb83610f09565b8060005b83811015610c2c578151610c138882610b91565b9750610c1e83610f6a565b925050600181019050610bff565b5085935050505092915050565b6000610c4482610f49565b610c4e8185610f95565b935083602082028501610c6085610f19565b8060005b85811015610c9c5784840389528151610c7d8582610ba9565b9450610c8883610f77565b925060208a01995050600181019050610c64565b50829750879550505050505092915050565b6000610cb982610f5f565b610cc38185610fb7565b9350610cd3818560208601611014565b610cdc81611047565b840191505092915050565b6000610cf282610f54565b610cfc8185610fa6565b9350610d0c818560208601611014565b610d1581611047565b840191505092915050565b600081546001811660008114610d3d5760018114610d6257610da6565b607f6002830416610d4e8187610fc8565b955060ff1983168652808601935050610da6565b60028204610d708187610fc8565b9550610d7b85610f29565b60005b82811015610d9d57815481890152600182019150602081019050610d7e565b82880195505050505b505092915050565b6000610dbb600683610fc8565b91507f61747465736100000000000000000000000000000000000000000000000000006000830152600682019050919050565b6000610dfa8284610d20565b915081905092915050565b6000610e1082610dae565b9150819050919050565b6000602082019050610e2f6000830184610bcc565b92915050565b60006020820190508181036000830152610e4f8184610bdb565b905092915050565b60006040820190508181036000830152610e718185610bdb565b90508181036020830152610e858184610c39565b90509392505050565b60006020820190508181036000830152610ea88184610cae565b905092915050565b6000604051905081810181811067ffffffffffffffff82111715610ed357600080fd5b8060405250919050565b600067ffffffffffffffff821115610ef457600080fd5b601f19601f8301169050602081019050919050565b6000819050602082019050919050565b6000819050602082019050919050565b60008190508160005260206000209050919050565b600081519050919050565b600081519050919050565b600081519050919050565b600081519050919050565b6000602082019050919050565b6000602082019050919050565b600082825260208201905092915050565b600082825260208201905092915050565b600082825260208201905092915050565b600082825260208201905092915050565b600081905092915050565b6000610fde82610fe5565b9050919050565b600073ffffffffffffffffffffffffffffffffffffffff82169050919050565b82818337600083830152505050565b60005b83811015611032578082015181840152602081019050611017565b83811115611041576000848401525b50505050565b6000601f19601f8301169050919050565b61106181610fd3565b811461106c57600080fd5b5056fea365627a7a7231582043c20dbbfa382c4a32462c8e21f0259c3e7115704fda9c5fb1e44606070322406c6578706572696d656e74616cf564736f6c63430005100040a365627a7a723158208506030dce9243be14d46ebc006ec8859dab07235cf329e4450f077abec3c3716c6578706572696d656e74616cf564736f6c63430005100040",
  "source": "// SPDX-License-Identifier: MIT\r\npragma solidity >=0.4.22 <0.8.22;\r\n//creating smart contract \r\nimport \"./Brevetti.sol\";\r\npragma experimental ABIEncoderV2;\r\n\r\ncontract Factory{\r\n    Brevetti[] listBrevetti;\r\n\r\n    constructor() public{}\r\n\r\n    function createBrevetto(string memory _id, string memory _name, address user) public{\r\n        Brevetti b = new Brevetti();\r\n        b.setId(_id);\r\n        b.setName(_name);\r\n        b.setUser(user);\r\n        b.setState(\"attesa\");\r\n        listBrevetti.push(b);\r\n    }\r\n\r\n    function getList() public view returns(string[] memory){\r\n        string[] memory listId = new string[](listBrevetti.length);\r\n        for(uint i = 0; i < listBrevetti.length; i++){\r\n            listId[i] = listBrevetti[i].getId();\r\n        }\r\n        return listId;\r\n    }\r\n\r\n    function getBrevetto(string memory brevettoId) public view returns (Brevetti) {\r\n        for (uint i = 0; i < listBrevetti.length; i++) {\r\n            if (keccak256(abi.encodePacked(listBrevetti[i].getId())) == keccak256(abi.encodePacked(brevettoId))) {\r\n                return listBrevetti[i];\r\n            }\r\n        }\r\n    }\r\n\r\n\r\n}",
  "sourcePath": "C:\\Users\\asant\\Desktop\\Brevetti\\Brevetti_3.0\\contracts\\Factory.sol",
  "compiler": {
    "name": "solc",
    "version": "0.5.16+commit.9c3226ce.Emscripten.clang"
  },
  "schemaVersion": "3.4.16",
  "updatedAt": "2024-02-19T23:37:43.085Z",
  "networkType": "ethereum",
  "devdoc": {
    "methods": {}
  },
  "userdoc": {
    "methods": {}
  }
}