{
  "contractName": "Factory",
  "abi": [
    {
      "inputs": [],
      "payable": false,
      "stateMutability": "nonpayable",
      "type": "constructor"
    },
    {
      "constant": false,
      "inputs": [
        {
          "internalType": "string",
          "name": "_id",
          "type": "string"
        },
        {
          "internalType": "string",
          "name": "_name",
          "type": "string"
        }
      ],
      "name": "createBrevetto",
      "outputs": [],
      "payable": false,
      "stateMutability": "nonpayable",
      "type": "function"
    },
    {
      "constant": true,
      "inputs": [],
      "name": "getList",
      "outputs": [
        {
          "internalType": "string[]",
          "name": "",
          "type": "string[]"
        }
      ],
      "payable": false,
      "stateMutability": "view",
      "type": "function"
    },
    {
      "constant": true,
      "inputs": [
        {
          "internalType": "string",
          "name": "brevettoId",
          "type": "string"
        }
      ],
      "name": "getBrevetto",
      "outputs": [
        {
          "internalType": "contract Brevetti",
          "name": "",
          "type": "address"
        }
      ],
      "payable": false,
      "stateMutability": "view",
      "type": "function"
    }
  ],
  "bytecode": "0x608060405234801561001057600080fd5b506114b8806100206000396000f3fe608060405234801561001057600080fd5b50600436106100415760003560e01c80636e30007914610046578063942b765a14610076578063c25ee50414610094575b600080fd5b610060600480360361005b91908101906105d3565b6100b0565b60405161006d91906108d1565b60405180910390f35b61007e6101a4565b60405161008b91906108af565b60405180910390f35b6100ae60048036036100a99190810190610655565b6102dc565b005b600080600090505b60008054905081101561019d57826040516020016100d6919061087d565b60405160208183030381529060405280519060200120600082815481106100f957fe5b9060005260206000200160009054906101000a900473ffffffffffffffffffffffffffffffffffffffff166040516020016101349190610862565b604051602081830303815290604052805190602001201415610190576000818154811061015d57fe5b9060005260206000200160009054906101000a900473ffffffffffffffffffffffffffffffffffffffff1691505061019f565b80806001019150506100b8565b505b919050565b6060806000805490506040519080825280602002602001820160405280156101e057816020015b60608152602001906001900390816101cb5790505b50905060008090505b6000805490508110156102d4576000818154811061020357fe5b9060005260206000200160009054906101000a900473ffffffffffffffffffffffffffffffffffffffff1673ffffffffffffffffffffffffffffffffffffffff16635d1ca6316040518163ffffffff1660e01b815260040160006040518083038186803b15801561027357600080fd5b505afa158015610287573d6000803e3d6000fd5b505050506040513d6000823e3d601f19601f820116820180604052506102b09190810190610614565b8282815181106102bc57fe5b602002602001018190525080806001019150506101e9565b508091505090565b60006040516102ea9061051e565b604051809103906000f080158015610306573d6000803e3d6000fd5b5090508073ffffffffffffffffffffffffffffffffffffffff166387e4396c846040518263ffffffff1660e01b815260040161034291906108ec565b600060405180830381600087803b15801561035c57600080fd5b505af1158015610370573d6000803e3d6000fd5b505050508073ffffffffffffffffffffffffffffffffffffffff1663c47f0027836040518263ffffffff1660e01b81526004016103ad91906108ec565b600060405180830381600087803b1580156103c757600080fd5b505af11580156103db573d6000803e3d6000fd5b505050508073ffffffffffffffffffffffffffffffffffffffff1663858ced35336040518263ffffffff1660e01b81526004016104189190610894565b600060405180830381600087803b15801561043257600080fd5b505af1158015610446573d6000803e3d6000fd5b505050508073ffffffffffffffffffffffffffffffffffffffff166368794b876040518163ffffffff1660e01b81526004016104819061090e565b600060405180830381600087803b15801561049b57600080fd5b505af11580156104af573d6000803e3d6000fd5b5050505060008190806001815401808255809150509060018203906000526020600020016000909192909190916101000a81548173ffffffffffffffffffffffffffffffffffffffff021916908373ffffffffffffffffffffffffffffffffffffffff16021790555050505050565b61097480610b0283390190565b600082601f83011261053c57600080fd5b813561054f61054a8261095b565b61092e565b9150808252602083016020830185838301111561056b57600080fd5b610576838284610a7d565b50505092915050565b600082601f83011261059057600080fd5b81516105a361059e8261095b565b61092e565b915080825260208301602083018583830111156105bf57600080fd5b6105ca838284610a8c565b50505092915050565b6000602082840312156105e557600080fd5b600082013567ffffffffffffffff8111156105ff57600080fd5b61060b8482850161052b565b91505092915050565b60006020828403121561062657600080fd5b600082015167ffffffffffffffff81111561064057600080fd5b61064c8482850161057f565b91505092915050565b6000806040838503121561066857600080fd5b600083013567ffffffffffffffff81111561068257600080fd5b61068e8582860161052b565b925050602083013567ffffffffffffffff8111156106ab57600080fd5b6106b78582860161052b565b9150509250929050565b60006106cd83836107e9565b905092915050565b6106de81610a23565b82525050565b60006106ef82610997565b6106f981856109c5565b93508360208202850161070b85610987565b8060005b85811015610747578484038952815161072885826106c1565b9450610733836109b8565b925060208a0199505060018101905061070f565b50829750879550505050505092915050565b61076281610a35565b82525050565b61077961077482610a35565b610abf565b82525050565b600061078a826109ad565b61079481856109e7565b93506107a4818560208601610a8c565b6107ad81610ae3565b840191505092915050565b60006107c3826109ad565b6107cd81856109f8565b93506107dd818560208601610a8c565b80840191505092915050565b60006107f4826109a2565b6107fe81856109d6565b935061080e818560208601610a8c565b61081781610ae3565b840191505092915050565b600061082f6006836109e7565b91507f61747465736100000000000000000000000000000000000000000000000000006000830152602082019050919050565b600061086e8284610768565b60148201915081905092915050565b600061088982846107b8565b915081905092915050565b60006020820190506108a960008301846106d5565b92915050565b600060208201905081810360008301526108c981846106e4565b905092915050565b60006020820190506108e66000830184610759565b92915050565b60006020820190508181036000830152610906818461077f565b905092915050565b6000602082019050818103600083015261092781610822565b9050919050565b6000604051905081810181811067ffffffffffffffff8211171561095157600080fd5b8060405250919050565b600067ffffffffffffffff82111561097257600080fd5b601f19601f8301169050602081019050919050565b6000819050602082019050919050565b600081519050919050565b600081519050919050565b600081519050919050565b6000602082019050919050565b600082825260208201905092915050565b600082825260208201905092915050565b600082825260208201905092915050565b600081905092915050565b600073ffffffffffffffffffffffffffffffffffffffff82169050919050565b6000610a2e82610a59565b9050919050565b6000610a4082610a47565b9050919050565b6000610a5282610a03565b9050919050565b6000610a6482610a6b565b9050919050565b6000610a7682610a03565b9050919050565b82818337600083830152505050565b60005b83811015610aaa578082015181840152602081019050610a8f565b83811115610ab9576000848401525b50505050565b6000610aca82610ad1565b9050919050565b6000610adc82610af4565b9050919050565b6000601f19601f8301169050919050565b60008160601b905091905056fe608060405234801561001057600080fd5b50610954806100206000396000f3fe608060405234801561001057600080fd5b50600436106100885760003560e01c8063832880e71161005b578063832880e71461028f578063858ced35146102d957806387e4396c1461031d578063c47f0027146103d857610088565b806317d7de7c1461008d5780631865c57d146101105780635d1ca6311461019357806368794b8714610216575b600080fd5b610095610493565b6040518080602001828103825283818151815260200191508051906020019080838360005b838110156100d55780820151818401526020810190506100ba565b50505050905090810190601f1680156101025780820380516001836020036101000a031916815260200191505b509250505060405180910390f35b610118610535565b6040518080602001828103825283818151815260200191508051906020019080838360005b8381101561015857808201518184015260208101905061013d565b50505050905090810190601f1680156101855780820380516001836020036101000a031916815260200191505b509250505060405180910390f35b61019b6105d7565b6040518080602001828103825283818151815260200191508051906020019080838360005b838110156101db5780820151818401526020810190506101c0565b50505050905090810190601f1680156102085780820380516001836020036101000a031916815260200191505b509250505060405180910390f35b61028d6004803603602081101561022c57600080fd5b810190808035906020019064010000000081111561024957600080fd5b82018360208201111561025b57600080fd5b8035906020019184600183028401116401000000008311171561027d57600080fd5b9091929391929390505050610679565b005b610297610758565b604051808273ffffffffffffffffffffffffffffffffffffffff1673ffffffffffffffffffffffffffffffffffffffff16815260200191505060405180910390f35b61031b600480360360208110156102ef57600080fd5b81019080803573ffffffffffffffffffffffffffffffffffffffff169060200190929190505050610782565b005b6103d66004803603602081101561033357600080fd5b810190808035906020019064010000000081111561035057600080fd5b82018360208201111561036257600080fd5b8035906020019184600183028401116401000000008311171561038457600080fd5b91908080601f016020809104026020016040519081016040528093929190818152602001838380828437600081840152601f19601f8201169050808301925050505050505091929192905050506107c6565b005b610491600480360360208110156103ee57600080fd5b810190808035906020019064010000000081111561040b57600080fd5b82018360208201111561041d57600080fd5b8035906020019184600183028401116401000000008311171561043f57600080fd5b91908080601f016020809104026020016040519081016040528093929190818152602001838380828437600081840152601f19601f8201169050808301925050505050505091929192905050506107e0565b005b606060018054600181600116156101000203166002900480601f01602080910402602001604051908101604052809291908181526020018280546001816001161561010002031660029004801561052b5780601f106105005761010080835404028352916020019161052b565b820191906000526020600020905b81548152906001019060200180831161050e57829003601f168201915b5050505050905090565b606060038054600181600116156101000203166002900480601f0160208091040260200160405190810160405280929190818152602001828054600181600116156101000203166002900480156105cd5780601f106105a2576101008083540402835291602001916105cd565b820191906000526020600020905b8154815290600101906020018083116105b057829003601f168201915b5050505050905090565b606060008054600181600116156101000203166002900480601f01602080910402602001604051908101604052809291908181526020018280546001816001161561010002031660029004801561066f5780601f106106445761010080835404028352916020019161066f565b820191906000526020600020905b81548152906001019060200180831161065257829003601f168201915b5050505050905090565b60405160200180807f6174746573610000000000000000000000000000000000000000000000000000815250600601905060405160208183030381529060405280519060200120600360405160200180828054600181600116156101000203166002900480156107205780601f106106fe576101008083540402835291820191610720565b820191906000526020600020905b81548152906001019060200180831161070c575b5050915050604051602081830303815290604052805190602001201415610754578181600391906107529291906107fa565b505b5050565b6000600260009054906101000a900473ffffffffffffffffffffffffffffffffffffffff16905090565b80600260006101000a81548173ffffffffffffffffffffffffffffffffffffffff021916908373ffffffffffffffffffffffffffffffffffffffff16021790555050565b80600090805190602001906107dc92919061087a565b5050565b80600190805190602001906107f692919061087a565b5050565b828054600181600116156101000203166002900490600052602060002090601f016020900481019282601f1061083b57803560ff1916838001178555610869565b82800160010185558215610869579182015b8281111561086857823582559160200191906001019061084d565b5b50905061087691906108fa565b5090565b828054600181600116156101000203166002900490600052602060002090601f016020900481019282601f106108bb57805160ff19168380011785556108e9565b828001600101855582156108e9579182015b828111156108e85782518255916020019190600101906108cd565b5b5090506108f691906108fa565b5090565b61091c91905b80821115610918576000816000905550600101610900565b5090565b9056fea265627a7a7231582017b4bd9f66d7978a271e0b976600bfd79ded004a3bb1798a417682abdf0f7df964736f6c63430005100032a365627a7a72315820e69d9df396c9194c9f8a0d9908eccae2706da7c10ec533c4309db42b00cb81ad6c6578706572696d656e74616cf564736f6c63430005100040",
  "source": "// SPDX-License-Identifier: MIT\r\npragma solidity >=0.4.22 <0.8.22;\r\n//creating smart contract \r\nimport \"./Brevetti.sol\";\r\npragma experimental ABIEncoderV2;\r\n\r\ncontract Factory{\r\n    Brevetti[] listBrevetti;\r\n\r\n    constructor() public{}\r\n\r\n    function createBrevetto(string memory _id, string memory _name) public{\r\n        Brevetti b = new Brevetti();\r\n        b.setId(_id);\r\n        b.setName(_name);\r\n        b.setUser(msg.sender);\r\n        b.setState(\"attesa\");\r\n        listBrevetti.push(b);\r\n    }\r\n\r\n    function getList() public view returns(string[] memory){\r\n        string[] memory listId = new string[](listBrevetti.length);\r\n        for(uint i = 0; i < listBrevetti.length; i++){\r\n            listId[i] = listBrevetti[i].getId();\r\n        }\r\n        return listId;\r\n    }\r\n\r\n    function getBrevetto(string memory brevettoId) public view returns (Brevetti) {\r\n        for (uint i = 0; i < listBrevetti.length; i++) {\r\n            if (keccak256(abi.encodePacked(listBrevetti[i])) == keccak256(abi.encodePacked(brevettoId))) {\r\n                return listBrevetti[i];\r\n            }\r\n        }\r\n    }\r\n\r\n\r\n}",
  "sourcePath": "C:\\Users\\asant\\Desktop\\Brevetti\\Brevetti_3.0\\contracts\\Factory.sol",
  "compiler": {
    "name": "solc",
    "version": "0.5.16+commit.9c3226ce.Emscripten.clang"
  },
  "schemaVersion": "3.4.16",
  "updatedAt": "2024-02-19T19:15:00.837Z",
  "networkType": "ethereum",
  "devdoc": {
    "methods": {}
  },
  "userdoc": {
    "methods": {}
  }
}