{
  "contractName": "Factory",
  "abi": [
    {
      "inputs": [],
      "stateMutability": "nonpayable",
      "type": "constructor"
    },
    {
      "inputs": [
        {
          "internalType": "string",
          "name": "_id",
          "type": "string"
        },
        {
          "internalType": "string",
          "name": "_name",
          "type": "string"
        },
        {
          "internalType": "address",
          "name": "user",
          "type": "address"
        }
      ],
      "name": "createBrevetto",
      "outputs": [],
      "stateMutability": "payable",
      "type": "function",
      "payable": true
    },
    {
      "inputs": [],
      "name": "getList",
      "outputs": [
        {
          "internalType": "string[]",
          "name": "",
          "type": "string[]"
        }
      ],
      "stateMutability": "view",
      "type": "function",
      "constant": true
    },
    {
      "inputs": [],
      "name": "getListBrevetti",
      "outputs": [
        {
          "internalType": "contract Brevetto[]",
          "name": "",
          "type": "address[]"
        }
      ],
      "stateMutability": "view",
      "type": "function",
      "constant": true
    },
    {
      "inputs": [
        {
          "internalType": "string",
          "name": "brevettoId",
          "type": "string"
        }
      ],
      "name": "getBrevettoUser",
      "outputs": [
        {
          "internalType": "address",
          "name": "",
          "type": "address"
        }
      ],
      "stateMutability": "view",
      "type": "function",
      "constant": true
    }
  ],
  "bytecode": "0x608060405234801561001057600080fd5b506131ba806100206000396000f3fe60806040526004361061003f5760003560e01c80631fa60b6414610044578063750a98021461006f578063942b765a146100ac578063db1be1ad146100d7575b600080fd5b34801561005057600080fd5b506100596100f3565b60405161006691906108ee565b60405180910390f35b34801561007b57600080fd5b5061009660048036038101906100919190610a6a565b610181565b6040516100a39190610ad4565b60405180910390f35b3480156100b857600080fd5b506100c16103a3565b6040516100ce9190610c30565b60405180910390f35b6100f160048036038101906100ec9190610c7e565b6104f6565b005b6060600080548060200260200160405190810160405280929190818152602001828054801561017757602002820191906000526020600020905b8160009054906101000a900473ffffffffffffffffffffffffffffffffffffffff1673ffffffffffffffffffffffffffffffffffffffff168152602001906001019080831161012d575b5050505050905090565b600080600090505b60008054905081101561036257826040516020016101a79190610d45565b60405160208183030381529060405280519060200120600082815481106101d1576101d0610d5c565b5b9060005260206000200160009054906101000a900473ffffffffffffffffffffffffffffffffffffffff1673ffffffffffffffffffffffffffffffffffffffff16635d1ca6316040518163ffffffff1660e01b8152600401600060405180830381865afa158015610246573d6000803e3d6000fd5b505050506040513d6000823e3d601f19601f8201168201806040525081019061026f9190610dfb565b60405160200161027f9190610d45565b604051602081830303815290604052805190602001200361034f57600081815481106102ae576102ad610d5c565b5b9060005260206000200160009054906101000a900473ffffffffffffffffffffffffffffffffffffffff1673ffffffffffffffffffffffffffffffffffffffff1663832880e76040518163ffffffff1660e01b8152600401602060405180830381865afa158015610323573d6000803e3d6000fd5b505050506040513d601f19601f820116820180604052508101906103479190610e59565b91505061039e565b808061035a90610ebf565b915050610189565b506040517f08c379a000000000000000000000000000000000000000000000000000000000815260040161039590610f64565b60405180910390fd5b919050565b60606000808054905067ffffffffffffffff8111156103c5576103c461093f565b5b6040519080825280602002602001820160405280156103f857816020015b60608152602001906001900390816103e35790505b50905060005b6000805490508110156104ee576000818154811061041f5761041e610d5c565b5b9060005260206000200160009054906101000a900473ffffffffffffffffffffffffffffffffffffffff1673ffffffffffffffffffffffffffffffffffffffff16635d1ca6316040518163ffffffff1660e01b8152600401600060405180830381865afa158015610494573d6000803e3d6000fd5b505050506040513d6000823e3d601f19601f820116820180604052508101906104bd9190610dfb565b8282815181106104d0576104cf610d5c565b5b602002602001018190525080806104e690610ebf565b9150506103fe565b508091505090565b6729a2241af62c0000341461050a57600080fd5b6000604051610518906107b3565b604051809103906000f080158015610534573d6000803e3d6000fd5b5090508073ffffffffffffffffffffffffffffffffffffffff166387e4396c856040518263ffffffff1660e01b81526004016105709190610fbd565b600060405180830381600087803b15801561058a57600080fd5b505af115801561059e573d6000803e3d6000fd5b505050508073ffffffffffffffffffffffffffffffffffffffff1663c47f0027846040518263ffffffff1660e01b81526004016105db9190610fbd565b600060405180830381600087803b1580156105f557600080fd5b505af1158015610609573d6000803e3d6000fd5b505050508073ffffffffffffffffffffffffffffffffffffffff1663858ced35836040518263ffffffff1660e01b81526004016106469190610ad4565b600060405180830381600087803b15801561066057600080fd5b505af1158015610674573d6000803e3d6000fd5b505050508073ffffffffffffffffffffffffffffffffffffffff166368794b876040518163ffffffff1660e01b81526004016106af9061102b565b600060405180830381600087803b1580156106c957600080fd5b505af11580156106dd573d6000803e3d6000fd5b505050508073ffffffffffffffffffffffffffffffffffffffff16631a61746e6729a2241af62c00006040518263ffffffff1660e01b81526004016000604051808303818588803b15801561073157600080fd5b505af1158015610745573d6000803e3d6000fd5b50505050506000819080600181540180825580915050600190039060005260206000200160009091909190916101000a81548173ffffffffffffffffffffffffffffffffffffffff021916908373ffffffffffffffffffffffffffffffffffffffff16021790555050505050565b6121398061104c83390190565b600081519050919050565b600082825260208201905092915050565b6000819050602082019050919050565b600073ffffffffffffffffffffffffffffffffffffffff82169050919050565b6000819050919050565b600061083161082c610827846107ec565b61080c565b6107ec565b9050919050565b600061084382610816565b9050919050565b600061085582610838565b9050919050565b6108658161084a565b82525050565b6000610877838361085c565b60208301905092915050565b6000602082019050919050565b600061089b826107c0565b6108a581856107cb565b93506108b0836107dc565b8060005b838110156108e15781516108c8888261086b565b97506108d383610883565b9250506001810190506108b4565b5085935050505092915050565b600060208201905081810360008301526109088184610890565b905092915050565b6000604051905090565b600080fd5b600080fd5b600080fd5b600080fd5b6000601f19601f8301169050919050565b7f4e487b7100000000000000000000000000000000000000000000000000000000600052604160045260246000fd5b6109778261092e565b810181811067ffffffffffffffff821117156109965761099561093f565b5b80604052505050565b60006109a9610910565b90506109b5828261096e565b919050565b600067ffffffffffffffff8211156109d5576109d461093f565b5b6109de8261092e565b9050602081019050919050565b82818337600083830152505050565b6000610a0d610a08846109ba565b61099f565b905082815260208101848484011115610a2957610a28610929565b5b610a348482856109eb565b509392505050565b600082601f830112610a5157610a50610924565b5b8135610a618482602086016109fa565b91505092915050565b600060208284031215610a8057610a7f61091a565b5b600082013567ffffffffffffffff811115610a9e57610a9d61091f565b5b610aaa84828501610a3c565b91505092915050565b6000610abe826107ec565b9050919050565b610ace81610ab3565b82525050565b6000602082019050610ae96000830184610ac5565b92915050565b600081519050919050565b600082825260208201905092915050565b6000819050602082019050919050565b600081519050919050565b600082825260208201905092915050565b60005b83811015610b55578082015181840152602081019050610b3a565b60008484015250505050565b6000610b6c82610b1b565b610b768185610b26565b9350610b86818560208601610b37565b610b8f8161092e565b840191505092915050565b6000610ba68383610b61565b905092915050565b6000602082019050919050565b6000610bc682610aef565b610bd08185610afa565b935083602082028501610be285610b0b565b8060005b85811015610c1e5784840389528151610bff8582610b9a565b9450610c0a83610bae565b925060208a01995050600181019050610be6565b50829750879550505050505092915050565b60006020820190508181036000830152610c4a8184610bbb565b905092915050565b610c5b81610ab3565b8114610c6657600080fd5b50565b600081359050610c7881610c52565b92915050565b600080600060608486031215610c9757610c9661091a565b5b600084013567ffffffffffffffff811115610cb557610cb461091f565b5b610cc186828701610a3c565b935050602084013567ffffffffffffffff811115610ce257610ce161091f565b5b610cee86828701610a3c565b9250506040610cff86828701610c69565b9150509250925092565b600081905092915050565b6000610d1f82610b1b565b610d298185610d09565b9350610d39818560208601610b37565b80840191505092915050565b6000610d518284610d14565b915081905092915050565b7f4e487b7100000000000000000000000000000000000000000000000000000000600052603260045260246000fd5b6000610d9e610d99846109ba565b61099f565b905082815260208101848484011115610dba57610db9610929565b5b610dc5848285610b37565b509392505050565b600082601f830112610de257610de1610924565b5b8151610df2848260208601610d8b565b91505092915050565b600060208284031215610e1157610e1061091a565b5b600082015167ffffffffffffffff811115610e2f57610e2e61091f565b5b610e3b84828501610dcd565b91505092915050565b600081519050610e5381610c52565b92915050565b600060208284031215610e6f57610e6e61091a565b5b6000610e7d84828501610e44565b91505092915050565b7f4e487b7100000000000000000000000000000000000000000000000000000000600052601160045260246000fd5b6000819050919050565b6000610eca82610eb5565b91507fffffffffffffffffffffffffffffffffffffffffffffffffffffffffffffffff8203610efc57610efb610e86565b5b600182019050919050565b600082825260208201905092915050565b7f427265766574746f206e6f6e2074726f7661746f000000000000000000000000600082015250565b6000610f4e601483610f07565b9150610f5982610f18565b602082019050919050565b60006020820190508181036000830152610f7d81610f41565b9050919050565b6000610f8f82610b1b565b610f998185610f07565b9350610fa9818560208601610b37565b610fb28161092e565b840191505092915050565b60006020820190508181036000830152610fd78184610f84565b905092915050565b7f6174746573610000000000000000000000000000000000000000000000000000600082015250565b6000611015600683610f07565b915061102082610fdf565b602082019050919050565b6000602082019050818103600083015261104481611008565b905091905056fe6080604052602d60085534801561001557600080fd5b504260078190555061210d8061002c6000396000f3fe6080604052600436106100f35760003560e01c806368794b871161008a578063aca8489211610059578063aca84892146102d6578063c47f0027146102f2578063e6519a351461031b578063ff28d2da14610346576100f3565b806368794b8714610230578063832880e714610259578063858ced351461028457806387e4396c146102ad576100f3565b80631865c57d116100c65780631865c57d146101a55780631a61746e146101d057806325cb5bc0146101da5780635d1ca63114610205576100f3565b80630a16e30b146100f85780630dc960151461012357806312065fe01461014f57806317d7de7c1461017a575b600080fd5b34801561010457600080fd5b5061010d610350565b60405161011a919061157d565b60405180910390f35b34801561012f57600080fd5b506101386103de565b6040516101469291906116f1565b60405180910390f35b34801561015b57600080fd5b5061016461061b565b6040516101719190611741565b60405180910390f35b34801561018657600080fd5b5061018f610625565b60405161019c91906117a6565b60405180910390f35b3480156101b157600080fd5b506101ba6106b7565b6040516101c791906117a6565b60405180910390f35b6101d8610749565b005b3480156101e657600080fd5b506101ef61079c565b6040516101fc9190611741565b60405180910390f35b34801561021157600080fd5b5061021a6107a6565b60405161022791906117a6565b60405180910390f35b34801561023c57600080fd5b5061025760048036038101906102529190611911565b610838565b005b34801561026557600080fd5b5061026e610900565b60405161027b9190611969565b60405180910390f35b34801561029057600080fd5b506102ab60048036038101906102a691906119b0565b61092a565b005b3480156102b957600080fd5b506102d460048036038101906102cf9190611911565b61096e565b005b6102f060048036038101906102eb9190611911565b610981565b005b3480156102fe57600080fd5b5061031960048036038101906103149190611911565b610b92565b005b34801561032757600080fd5b50610330610ba5565b60405161033d9190611741565b60405180910390f35b61034e610baf565b005b606060068054806020026020016040519081016040528092919081815260200182805480156103d457602002820191906000526020600020905b8160009054906101000a900473ffffffffffffffffffffffffffffffffffffffff1673ffffffffffffffffffffffffffffffffffffffff168152602001906001019080831161038a575b5050505050905090565b6060806000600680549050905060008167ffffffffffffffff811115610407576104066117e6565b5b60405190808252806020026020018201604052801561043a57816020015b60608152602001906001900390816104255790505b50905060005b828110156105855760006006828154811061045e5761045d6119dd565b5b9060005260206000200160009054906101000a900473ffffffffffffffffffffffffffffffffffffffff169050600560008273ffffffffffffffffffffffffffffffffffffffff1673ffffffffffffffffffffffffffffffffffffffff16815260200190815260200160002080546104d590611a3b565b80601f016020809104026020016040519081016040528092919081815260200182805461050190611a3b565b801561054e5780601f106105235761010080835404028352916020019161054e565b820191906000526020600020905b81548152906001019060200180831161053157829003601f168201915b5050505050838381518110610566576105656119dd565b5b602002602001018190525050808061057d90611a9b565b915050610440565b506006818180548060200260200160405190810160405280929190818152602001828054801561060a57602002820191906000526020600020905b8160009054906101000a900473ffffffffffffffffffffffffffffffffffffffff1673ffffffffffffffffffffffffffffffffffffffff16815260200190600101908083116105c0575b505050505091509350935050509091565b6000600454905090565b60606001805461063490611a3b565b80601f016020809104026020016040519081016040528092919081815260200182805461066090611a3b565b80156106ad5780601f10610682576101008083540402835291602001916106ad565b820191906000526020600020905b81548152906001019060200180831161069057829003601f168201915b5050505050905090565b6060600380546106c690611a3b565b80601f01602080910402602001604051908101604052809291908181526020018280546106f290611a3b565b801561073f5780601f106107145761010080835404028352916020019161073f565b820191906000526020600020905b81548152906001019060200180831161072257829003601f168201915b5050505050905090565b6729a2241af62c00003414610793576040517f08c379a000000000000000000000000000000000000000000000000000000000815260040161078a90611b55565b60405180910390fd5b34600481905550565b6000600854905090565b6060600080546107b590611a3b565b80601f01602080910402602001604051908101604052809291908181526020018280546107e190611a3b565b801561082e5780601f106108035761010080835404028352916020019161082e565b820191906000526020600020905b81548152906001019060200180831161081157829003601f168201915b5050505050905090565b60405160200161084790611bcc565b60405160208183030381529060405280519060200120600360405160200161086f9190611c79565b604051602081830303815290604052805190602001200361089b5780600390816108999190611e27565b505b6040516020016108aa90611bcc565b60405160208183030381529060405280519060200120816040516020016108d19190611f2a565b60405160208183030381529060405280519060200120036108fd5780600390816108fb9190611e27565b505b50565b6000600260009054906101000a900473ffffffffffffffffffffffffffffffffffffffff16905090565b80600260006101000a81548173ffffffffffffffffffffffffffffffffffffffff021916908373ffffffffffffffffffffffffffffffffffffffff16021790555050565b806000908161097d9190611e27565b5050565b603c600754426109919190611f41565b11156109d2576040517f08c379a00000000000000000000000000000000000000000000000000000000081526004016109c990611fc1565b60405180910390fd5b6000600560003373ffffffffffffffffffffffffffffffffffffffff1673ffffffffffffffffffffffffffffffffffffffff1681526020019081526020016000208054610a1e90611a3b565b905014610a2a57600080fd5b600260009054906101000a900473ffffffffffffffffffffffffffffffffffffffff1673ffffffffffffffffffffffffffffffffffffffff163373ffffffffffffffffffffffffffffffffffffffff1603610a8457600080fd5b604051602001610a939061202d565b6040516020818303038152906040528051906020012081604051602001610aba9190611f2a565b6040516020818303038152906040528051906020012003610adf57610ade34611139565b5b6006339080600181540180825580915050600190039060005260206000200160009091909190916101000a81548173ffffffffffffffffffffffffffffffffffffffff021916908373ffffffffffffffffffffffffffffffffffffffff16021790555080600560003373ffffffffffffffffffffffffffffffffffffffff1673ffffffffffffffffffffffffffffffffffffffff1681526020019081526020016000209081610b8e9190611e27565b5050565b8060019081610ba19190611e27565b5050565b6000600754905090565b604051602001610bbe90611bcc565b60405160208183030381529060405280519060200120610bdc6106b7565b604051602001610bec9190611f2a565b6040516020818303038152906040528051906020012014610c0c57600080fd5b603c60075442610c1c9190611f41565b1015610c5d576040517f08c379a0000000000000000000000000000000000000000000000000000000008152600401610c5490611fc1565b60405180910390fd5b600080610c68611169565b91509150604051602001610c7b9061208e565b6040516020818303038152906040528051906020012082604051602001610ca29190611f2a565b6040516020818303038152906040528051906020012003610ed25760005b600680549050811015610ecc5760006005600060068481548110610ce757610ce66119dd565b5b9060005260206000200160009054906101000a900473ffffffffffffffffffffffffffffffffffffffff1673ffffffffffffffffffffffffffffffffffffffff1673ffffffffffffffffffffffffffffffffffffffff1681526020019081526020016000208054610d5790611a3b565b80601f0160208091040260200160405190810160405280929190818152602001828054610d8390611a3b565b8015610dd05780601f10610da557610100808354040283529160200191610dd0565b820191906000526020600020905b815481529060010190602001808311610db357829003601f168201915b5050505050905083604051602001610de89190611f2a565b6040516020818303038152906040528051906020012081604051602001610e0f9190611f2a565b6040516020818303038152906040528051906020012003610eb85760068281548110610e3e57610e3d6119dd565b5b9060005260206000200160009054906101000a900473ffffffffffffffffffffffffffffffffffffffff1673ffffffffffffffffffffffffffffffffffffffff166108fc670429d069189e00009081150290604051600060405180830381858888f19350505050158015610eb6573d6000803e3d6000fd5b505b508080610ec490611a9b565b915050610cc0565b50611135565b604051602001610ee19061202d565b6040516020818303038152906040528051906020012082604051602001610f089190611f2a565b60405160208183030381529060405280519060200120036111345760005b6006805490508110156111325760006005600060068481548110610f4d57610f4c6119dd565b5b9060005260206000200160009054906101000a900473ffffffffffffffffffffffffffffffffffffffff1673ffffffffffffffffffffffffffffffffffffffff1673ffffffffffffffffffffffffffffffffffffffff1681526020019081526020016000208054610fbd90611a3b565b80601f0160208091040260200160405190810160405280929190818152602001828054610fe990611a3b565b80156110365780601f1061100b57610100808354040283529160200191611036565b820191906000526020600020905b81548152906001019060200180831161101957829003601f168201915b505050505090508360405160200161104e9190611f2a565b60405160208183030381529060405280519060200120816040516020016110759190611f2a565b604051602081830303815290604052805190602001200361111e57600682815481106110a4576110a36119dd565b5b9060005260206000200160009054906101000a900473ffffffffffffffffffffffffffffffffffffffff1673ffffffffffffffffffffffffffffffffffffffff166108fc67120a871cc00200009081150290604051600060405180830381858888f1935050505015801561111c573d6000803e3d6000fd5b505b50808061112a90611a9b565b915050610f26565b505b5b5050565b670de0b6b3a7640000811461114d57600080fd5b806004600082825461115f91906120a3565b9250508190555050565b60606000806006805490501161117e57600080fd5b60008060005b60068054905081101561137457600060056000600684815481106111ab576111aa6119dd565b5b9060005260206000200160009054906101000a900473ffffffffffffffffffffffffffffffffffffffff1673ffffffffffffffffffffffffffffffffffffffff1673ffffffffffffffffffffffffffffffffffffffff168152602001908152602001600020805461121b90611a3b565b80601f016020809104026020016040519081016040528092919081815260200182805461124790611a3b565b80156112945780601f1061126957610100808354040283529160200191611294565b820191906000526020600020905b81548152906001019060200180831161127757829003601f168201915b505050505090506040516020016112aa9061208e565b60405160208183030381529060405280519060200120816040516020016112d19190611f2a565b60405160208183030381529060405280519060200120036112ff5783806112f790611a9b565b945050611360565b60405160200161130e9061202d565b60405160208183030381529060405280519060200120816040516020016113359190611f2a565b604051602081830303815290604052805190602001200361135f57828061135b90611a9b565b9350505b5b50808061136c90611a9b565b915050611184565b508082106113fd576113ba6040518060400160405280600a81526020017f436f6e6665726d61746f00000000000000000000000000000000000000000000815250610838565b816040518060400160405280600a81526020017f436f6e6665726d61746f0000000000000000000000000000000000000000000081525090935093505050611489565b81811115611486576114436040518060400160405280600981526020017f52696669757461746f0000000000000000000000000000000000000000000000815250610838565b806040518060400160405280600981526020017f52696669757461746f000000000000000000000000000000000000000000000081525090935093505050611489565b50505b9091565b600081519050919050565b600082825260208201905092915050565b6000819050602082019050919050565b600073ffffffffffffffffffffffffffffffffffffffff82169050919050565b60006114e4826114b9565b9050919050565b6114f4816114d9565b82525050565b600061150683836114eb565b60208301905092915050565b6000602082019050919050565b600061152a8261148d565b6115348185611498565b935061153f836114a9565b8060005b8381101561157057815161155788826114fa565b975061156283611512565b925050600181019050611543565b5085935050505092915050565b60006020820190508181036000830152611597818461151f565b905092915050565b600081519050919050565b600082825260208201905092915050565b6000819050602082019050919050565b600081519050919050565b600082825260208201905092915050565b60005b838110156116055780820151818401526020810190506115ea565b60008484015250505050565b6000601f19601f8301169050919050565b600061162d826115cb565b61163781856115d6565b93506116478185602086016115e7565b61165081611611565b840191505092915050565b60006116678383611622565b905092915050565b6000602082019050919050565b60006116878261159f565b61169181856115aa565b9350836020820285016116a3856115bb565b8060005b858110156116df57848403895281516116c0858261165b565b94506116cb8361166f565b925060208a019950506001810190506116a7565b50829750879550505050505092915050565b6000604082019050818103600083015261170b818561151f565b9050818103602083015261171f818461167c565b90509392505050565b6000819050919050565b61173b81611728565b82525050565b60006020820190506117566000830184611732565b92915050565b600082825260208201905092915050565b6000611778826115cb565b611782818561175c565b93506117928185602086016115e7565b61179b81611611565b840191505092915050565b600060208201905081810360008301526117c0818461176d565b905092915050565b6000604051905090565b600080fd5b600080fd5b600080fd5b600080fd5b7f4e487b7100000000000000000000000000000000000000000000000000000000600052604160045260246000fd5b61181e82611611565b810181811067ffffffffffffffff8211171561183d5761183c6117e6565b5b80604052505050565b60006118506117c8565b905061185c8282611815565b919050565b600067ffffffffffffffff82111561187c5761187b6117e6565b5b61188582611611565b9050602081019050919050565b82818337600083830152505050565b60006118b46118af84611861565b611846565b9050828152602081018484840111156118d0576118cf6117e1565b5b6118db848285611892565b509392505050565b600082601f8301126118f8576118f76117dc565b5b81356119088482602086016118a1565b91505092915050565b600060208284031215611927576119266117d2565b5b600082013567ffffffffffffffff811115611945576119446117d7565b5b611951848285016118e3565b91505092915050565b611963816114d9565b82525050565b600060208201905061197e600083018461195a565b92915050565b61198d816114d9565b811461199857600080fd5b50565b6000813590506119aa81611984565b92915050565b6000602082840312156119c6576119c56117d2565b5b60006119d48482850161199b565b91505092915050565b7f4e487b7100000000000000000000000000000000000000000000000000000000600052603260045260246000fd5b7f4e487b7100000000000000000000000000000000000000000000000000000000600052602260045260246000fd5b60006002820490506001821680611a5357607f821691505b602082108103611a6657611a65611a0c565b5b50919050565b7f4e487b7100000000000000000000000000000000000000000000000000000000600052601160045260246000fd5b6000611aa682611728565b91507fffffffffffffffffffffffffffffffffffffffffffffffffffffffffffffffff8203611ad857611ad7611a6c565b5b600182019050919050565b7f496c2076616c6f72652064656c2073616c646f2064657665206573736572652060008201527f6573617474616d656e7465203320657468657200000000000000000000000000602082015250565b6000611b3f60338361175c565b9150611b4a82611ae3565b604082019050919050565b60006020820190508181036000830152611b6e81611b32565b9050919050565b600081905092915050565b7f6174746573610000000000000000000000000000000000000000000000000000600082015250565b6000611bb6600683611b75565b9150611bc182611b80565b600682019050919050565b6000611bd782611ba9565b9150819050919050565b60008190508160005260206000209050919050565b60008154611c0381611a3b565b611c0d8186611b75565b94506001821660008114611c285760018114611c3d57611c70565b60ff1983168652811515820286019350611c70565b611c4685611be1565b60005b83811015611c6857815481890152600182019150602081019050611c49565b838801955050505b50505092915050565b6000611c858284611bf6565b915081905092915050565b60006020601f8301049050919050565b600082821b905092915050565b600060088302611cdd7fffffffffffffffffffffffffffffffffffffffffffffffffffffffffffffffff82611ca0565b611ce78683611ca0565b95508019841693508086168417925050509392505050565b6000819050919050565b6000611d24611d1f611d1a84611728565b611cff565b611728565b9050919050565b6000819050919050565b611d3e83611d09565b611d52611d4a82611d2b565b848454611cad565b825550505050565b600090565b611d67611d5a565b611d72818484611d35565b505050565b5b81811015611d9657611d8b600082611d5f565b600181019050611d78565b5050565b601f821115611ddb57611dac81611be1565b611db584611c90565b81016020851015611dc4578190505b611dd8611dd085611c90565b830182611d77565b50505b505050565b600082821c905092915050565b6000611dfe60001984600802611de0565b1980831691505092915050565b6000611e178383611ded565b9150826002028217905092915050565b611e30826115cb565b67ffffffffffffffff811115611e4957611e486117e6565b5b611e538254611a3b565b611e5e828285611d9a565b600060209050601f831160018114611e915760008415611e7f578287015190505b611e898582611e0b565b865550611ef1565b601f198416611e9f86611be1565b60005b82811015611ec757848901518255600182019150602085019450602081019050611ea2565b86831015611ee45784890151611ee0601f891682611ded565b8355505b6001600288020188555050505b505050505050565b6000611f04826115cb565b611f0e8185611b75565b9350611f1e8185602086016115e7565b80840191505092915050565b6000611f368284611ef9565b915081905092915050565b6000611f4c82611728565b9150611f5783611728565b9250828203905081811115611f6f57611f6e611a6c565b5b92915050565b7f54656d706f207363616475746f00000000000000000000000000000000000000600082015250565b6000611fab600d8361175c565b9150611fb682611f75565b602082019050919050565b60006020820190508181036000830152611fda81611f9e565b9050919050565b7f52696669757461746f0000000000000000000000000000000000000000000000600082015250565b6000612017600983611b75565b915061202282611fe1565b600982019050919050565b60006120388261200a565b9150819050919050565b7f436f6e6665726d61746f00000000000000000000000000000000000000000000600082015250565b6000612078600a83611b75565b915061208382612042565b600a82019050919050565b60006120998261206b565b9150819050919050565b60006120ae82611728565b91506120b983611728565b92508282019050808211156120d1576120d0611a6c565b5b9291505056fea26469706673582212200f66c05e98b96d14609818464d7133d1acee956fedda9eb6d95cf8acbc9d37b664736f6c63430008130033a2646970667358221220837d3c35da2e39a2fb9af58035834a12ccc009eb495d241a437796c07d5807de64736f6c63430008130033",
  "immutableReferences": {},
  "source": "pragma solidity >=0.4.20 <=0.8.19; \r\nimport \"./Brevetto.sol\";\r\npragma experimental ABIEncoderV2;\r\n\r\ncontract Factory{\r\n    Brevetto[] listBrevetti;\r\n\r\n    constructor() {}\r\n\r\n    function createBrevetto(string memory _id, string memory _name, address user) public payable{\r\n        require(msg.value == 3 ether);\r\n        Brevetto b = new Brevetto();\r\n        b.setId(_id);\r\n        b.setName(_name);\r\n        b.setUser(user);\r\n        b.setState(\"attesa\");\r\n        b.setBalance{value: 3 ether}();\r\n        \r\n        listBrevetti.push(b);\r\n    }\r\n\r\n    function getList() public view returns(string[] memory){\r\n        string[] memory listId = new string[](listBrevetti.length);\r\n        for(uint i = 0; i < listBrevetti.length; i++){\r\n            listId[i] = listBrevetti[i].getId();\r\n        }\r\n        return listId;\r\n    }\r\n\r\n    function getListBrevetti() public view returns(Brevetto[] memory){\r\n        return listBrevetti;\r\n    }\r\n\r\n    function getBrevettoUser(string memory brevettoId) public view returns (address) {\r\n        for (uint i = 0; i < listBrevetti.length; i++) {\r\n            if (keccak256(abi.encodePacked(listBrevetti[i].getId())) == keccak256(abi.encodePacked(brevettoId))) {\r\n                return listBrevetti[i].getUser();\r\n            }\r\n        }\r\n        revert(\"Brevetto non trovato\");\r\n    }\r\n}",
  "sourcePath": "C:\\Users\\dario\\OneDrive\\Desktop\\Brevetti\\Brevetti_3.0\\contracts\\Factory.sol",
  "compiler": {
    "name": "solc",
    "version": "0.8.19+commit.7dd6d404.Emscripten.clang"
  },
  "schemaVersion": "3.4.16",
  "updatedAt": "2024-02-25T19:23:41.545Z",
  "networkType": "ethereum",
  "devdoc": {
    "kind": "dev",
    "methods": {},
    "version": 1
  },
  "userdoc": {
    "kind": "user",
    "methods": {},
    "version": 1
  }
}