{
  "contractName": "Factory",
  "abi": [
    {
      "inputs": [],
      "payable": false,
      "stateMutability": "nonpayable",
      "type": "constructor"
    },
    {
      "constant": false,
      "inputs": [
        {
          "internalType": "string",
          "name": "_id",
          "type": "string"
        },
        {
          "internalType": "string",
          "name": "_name",
          "type": "string"
        }
      ],
      "name": "createBrevetto",
      "outputs": [],
      "payable": false,
      "stateMutability": "nonpayable",
      "type": "function"
    },
    {
      "constant": true,
      "inputs": [],
      "name": "getList",
      "outputs": [
        {
          "internalType": "contract Brevetti[]",
          "name": "",
          "type": "address[]"
        }
      ],
      "payable": false,
      "stateMutability": "view",
      "type": "function"
    }
  ],
  "bytecode": "0x608060405234801561001057600080fd5b50610eff806100206000396000f3fe608060405234801561001057600080fd5b50600436106100365760003560e01c8063942b765a1461003b578063c25ee5041461009a575b600080fd5b6100436101ec565b6040518080602001828103825283818151815260200191508051906020019060200280838360005b8381101561008657808201518184015260208101905061006b565b505050509050019250505060405180910390f35b6101ea600480360360408110156100b057600080fd5b81019080803590602001906401000000008111156100cd57600080fd5b8201836020820111156100df57600080fd5b8035906020019184600183028401116401000000008311171561010157600080fd5b91908080601f016020809104026020016040519081016040528093929190818152602001838380828437600081840152601f19601f8201169050808301925050505050505091929192908035906020019064010000000081111561016457600080fd5b82018360208201111561017657600080fd5b8035906020019184600183028401116401000000008311171561019857600080fd5b91908080601f016020809104026020016040519081016040528093929190818152602001838380828437600081840152601f19601f82011690508083019250505050505050919291929050505061027a565b005b6060600080548060200260200160405190810160405280929190818152602001828054801561027057602002820191906000526020600020905b8160009054906101000a900473ffffffffffffffffffffffffffffffffffffffff1673ffffffffffffffffffffffffffffffffffffffff1681526020019060010190808311610226575b5050505050905090565b600060405161028890610549565b604051809103906000f0801580156102a4573d6000803e3d6000fd5b5090508073ffffffffffffffffffffffffffffffffffffffff166387e4396c846040518263ffffffff1660e01b81526004018080602001828103825283818151815260200191508051906020019080838360005b838110156103135780820151818401526020810190506102f8565b50505050905090810190601f1680156103405780820380516001836020036101000a031916815260200191505b5092505050600060405180830381600087803b15801561035f57600080fd5b505af1158015610373573d6000803e3d6000fd5b505050508073ffffffffffffffffffffffffffffffffffffffff1663c47f0027836040518263ffffffff1660e01b81526004018080602001828103825283818151815260200191508051906020019080838360005b838110156103e35780820151818401526020810190506103c8565b50505050905090810190601f1680156104105780820380516001836020036101000a031916815260200191505b5092505050600060405180830381600087803b15801561042f57600080fd5b505af1158015610443573d6000803e3d6000fd5b505050508073ffffffffffffffffffffffffffffffffffffffff1663858ced35336040518263ffffffff1660e01b8152600401808273ffffffffffffffffffffffffffffffffffffffff1673ffffffffffffffffffffffffffffffffffffffff168152602001915050600060405180830381600087803b1580156104c657600080fd5b505af11580156104da573d6000803e3d6000fd5b5050505060008190806001815401808255809150509060018203906000526020600020016000909192909190916101000a81548173ffffffffffffffffffffffffffffffffffffffff021916908373ffffffffffffffffffffffffffffffffffffffff16021790555050505050565b610974806105578339019056fe608060405234801561001057600080fd5b50610954806100206000396000f3fe608060405234801561001057600080fd5b50600436106100885760003560e01c8063832880e71161005b578063832880e71461028f578063858ced35146102d957806387e4396c1461031d578063c47f0027146103d857610088565b806317d7de7c1461008d5780631865c57d146101105780635d1ca6311461019357806368794b8714610216575b600080fd5b610095610493565b6040518080602001828103825283818151815260200191508051906020019080838360005b838110156100d55780820151818401526020810190506100ba565b50505050905090810190601f1680156101025780820380516001836020036101000a031916815260200191505b509250505060405180910390f35b610118610535565b6040518080602001828103825283818151815260200191508051906020019080838360005b8381101561015857808201518184015260208101905061013d565b50505050905090810190601f1680156101855780820380516001836020036101000a031916815260200191505b509250505060405180910390f35b61019b6105d7565b6040518080602001828103825283818151815260200191508051906020019080838360005b838110156101db5780820151818401526020810190506101c0565b50505050905090810190601f1680156102085780820380516001836020036101000a031916815260200191505b509250505060405180910390f35b61028d6004803603602081101561022c57600080fd5b810190808035906020019064010000000081111561024957600080fd5b82018360208201111561025b57600080fd5b8035906020019184600183028401116401000000008311171561027d57600080fd5b9091929391929390505050610679565b005b610297610758565b604051808273ffffffffffffffffffffffffffffffffffffffff1673ffffffffffffffffffffffffffffffffffffffff16815260200191505060405180910390f35b61031b600480360360208110156102ef57600080fd5b81019080803573ffffffffffffffffffffffffffffffffffffffff169060200190929190505050610782565b005b6103d66004803603602081101561033357600080fd5b810190808035906020019064010000000081111561035057600080fd5b82018360208201111561036257600080fd5b8035906020019184600183028401116401000000008311171561038457600080fd5b91908080601f016020809104026020016040519081016040528093929190818152602001838380828437600081840152601f19601f8201169050808301925050505050505091929192905050506107c6565b005b610491600480360360208110156103ee57600080fd5b810190808035906020019064010000000081111561040b57600080fd5b82018360208201111561041d57600080fd5b8035906020019184600183028401116401000000008311171561043f57600080fd5b91908080601f016020809104026020016040519081016040528093929190818152602001838380828437600081840152601f19601f8201169050808301925050505050505091929192905050506107e0565b005b606060018054600181600116156101000203166002900480601f01602080910402602001604051908101604052809291908181526020018280546001816001161561010002031660029004801561052b5780601f106105005761010080835404028352916020019161052b565b820191906000526020600020905b81548152906001019060200180831161050e57829003601f168201915b5050505050905090565b606060038054600181600116156101000203166002900480601f0160208091040260200160405190810160405280929190818152602001828054600181600116156101000203166002900480156105cd5780601f106105a2576101008083540402835291602001916105cd565b820191906000526020600020905b8154815290600101906020018083116105b057829003601f168201915b5050505050905090565b606060008054600181600116156101000203166002900480601f01602080910402602001604051908101604052809291908181526020018280546001816001161561010002031660029004801561066f5780601f106106445761010080835404028352916020019161066f565b820191906000526020600020905b81548152906001019060200180831161065257829003601f168201915b5050505050905090565b60405160200180807f496e206174746573610000000000000000000000000000000000000000000000815250600901905060405160208183030381529060405280519060200120600360405160200180828054600181600116156101000203166002900480156107205780601f106106fe576101008083540402835291820191610720565b820191906000526020600020905b81548152906001019060200180831161070c575b5050915050604051602081830303815290604052805190602001201415610754578181600391906107529291906107fa565b505b5050565b6000600260009054906101000a900473ffffffffffffffffffffffffffffffffffffffff16905090565b80600260006101000a81548173ffffffffffffffffffffffffffffffffffffffff021916908373ffffffffffffffffffffffffffffffffffffffff16021790555050565b80600090805190602001906107dc92919061087a565b5050565b80600190805190602001906107f692919061087a565b5050565b828054600181600116156101000203166002900490600052602060002090601f016020900481019282601f1061083b57803560ff1916838001178555610869565b82800160010185558215610869579182015b8281111561086857823582559160200191906001019061084d565b5b50905061087691906108fa565b5090565b828054600181600116156101000203166002900490600052602060002090601f016020900481019282601f106108bb57805160ff19168380011785556108e9565b828001600101855582156108e9579182015b828111156108e85782518255916020019190600101906108cd565b5b5090506108f691906108fa565b5090565b61091c91905b80821115610918576000816000905550600101610900565b5090565b9056fea265627a7a723158207283a3717afd19c971e73b8d182faef3af097e0c8af2047644e3c31af0bfcf2f64736f6c63430005100032a265627a7a723158207d6caf78865996306d436a24a5df1a584d9aa88c914e18ba29737a952ee5dd8964736f6c63430005100032",
  "source": "// SPDX-License-Identifier: MIT\r\npragma solidity >=0.4.22 <0.8.22;\r\n//creating smart contract \r\nimport \"./Brevetti.sol\";\r\n\r\ncontract Factory{\r\n    Brevetti[] listBrevetti;\r\n\r\n    constructor() public{}\r\n\r\n    function createBrevetto(string memory _id, string memory _name) public{\r\n        Brevetti b = new Brevetti();\r\n        b.setId(_id);\r\n        b.setName(_name);\r\n        b.setUser(msg.sender);\r\n        listBrevetti.push(b);\r\n    }\r\n\r\n    function getList() public view returns(Brevetti[] memory){\r\n        return listBrevetti;\r\n    }\r\n\r\n}",
  "sourcePath": "C:\\Users\\dario\\OneDrive\\Desktop\\Brevetti\\Brevetti_3.0-1\\contracts\\Factory.sol",
  "compiler": {
    "name": "solc",
    "version": "0.5.16+commit.9c3226ce.Emscripten.clang"
  },
  "schemaVersion": "3.4.16",
  "updatedAt": "2024-02-13T19:05:00.281Z",
  "networkType": "ethereum",
  "devdoc": {
    "methods": {}
  },
  "userdoc": {
    "methods": {}
  }
}