{
  "contractName": "Factory",
  "abi": [
    {
      "inputs": [],
      "payable": false,
      "stateMutability": "nonpayable",
      "type": "constructor"
    },
    {
      "constant": false,
      "inputs": [
        {
          "internalType": "string",
          "name": "_id",
          "type": "string"
        },
        {
          "internalType": "string",
          "name": "_name",
          "type": "string"
        }
      ],
      "name": "createBrevetto",
      "outputs": [],
      "payable": false,
      "stateMutability": "nonpayable",
      "type": "function"
    },
    {
      "constant": true,
      "inputs": [],
      "name": "getList",
      "outputs": [
        {
          "internalType": "string[]",
          "name": "",
          "type": "string[]"
        }
      ],
      "payable": false,
      "stateMutability": "view",
      "type": "function"
    }
  ],
  "bytecode": "0x608060405234801561001057600080fd5b50611244806100206000396000f3fe608060405234801561001057600080fd5b50600436106100365760003560e01c8063942b765a1461003b578063c25ee50414610059575b600080fd5b610043610075565b60405161005091906106b6565b60405180910390f35b610073600480360361006e91908101906104e5565b6101ad565b005b6060806000805490506040519080825280602002602001820160405280156100b157816020015b606081526020019060019003908161009c5790505b50905060008090505b6000805490508110156101a557600081815481106100d457fe5b9060005260206000200160009054906101000a900473ffffffffffffffffffffffffffffffffffffffff1673ffffffffffffffffffffffffffffffffffffffff16635d1ca6316040518163ffffffff1660e01b815260040160006040518083038186803b15801561014457600080fd5b505afa158015610158573d6000803e3d6000fd5b505050506040513d6000823e3d601f19601f8201168201806040525061018191908101906104a4565b82828151811061018d57fe5b602002602001018190525080806001019150506100ba565b508091505090565b60006040516101bb906103ef565b604051809103906000f0801580156101d7573d6000803e3d6000fd5b5090508073ffffffffffffffffffffffffffffffffffffffff166387e4396c846040518263ffffffff1660e01b815260040161021391906106d8565b600060405180830381600087803b15801561022d57600080fd5b505af1158015610241573d6000803e3d6000fd5b505050508073ffffffffffffffffffffffffffffffffffffffff1663c47f0027836040518263ffffffff1660e01b815260040161027e91906106d8565b600060405180830381600087803b15801561029857600080fd5b505af11580156102ac573d6000803e3d6000fd5b505050508073ffffffffffffffffffffffffffffffffffffffff1663858ced35336040518263ffffffff1660e01b81526004016102e9919061069b565b600060405180830381600087803b15801561030357600080fd5b505af1158015610317573d6000803e3d6000fd5b505050508073ffffffffffffffffffffffffffffffffffffffff166368794b876040518163ffffffff1660e01b8152600401610352906106fa565b600060405180830381600087803b15801561036c57600080fd5b505af1158015610380573d6000803e3d6000fd5b5050505060008190806001815401808255809150509060018203906000526020600020016000909192909190916101000a81548173ffffffffffffffffffffffffffffffffffffffff021916908373ffffffffffffffffffffffffffffffffffffffff16021790555050505050565b6109748061088e83390190565b600082601f83011261040d57600080fd5b813561042061041b82610747565b61071a565b9150808252602083016020830185838301111561043c57600080fd5b61044783828461083a565b50505092915050565b600082601f83011261046157600080fd5b815161047461046f82610747565b61071a565b9150808252602083016020830185838301111561049057600080fd5b61049b838284610849565b50505092915050565b6000602082840312156104b657600080fd5b600082015167ffffffffffffffff8111156104d057600080fd5b6104dc84828501610450565b91505092915050565b600080604083850312156104f857600080fd5b600083013567ffffffffffffffff81111561051257600080fd5b61051e858286016103fc565b925050602083013567ffffffffffffffff81111561053b57600080fd5b610547858286016103fc565b9150509250929050565b600061055d8383610622565b905092915050565b61056e81610804565b82525050565b600061057f82610783565b61058981856107b1565b93508360208202850161059b85610773565b8060005b858110156105d757848403895281516105b88582610551565b94506105c3836107a4565b925060208a0199505060018101905061059f565b50829750879550505050505092915050565b60006105f482610799565b6105fe81856107d3565b935061060e818560208601610849565b6106178161087c565b840191505092915050565b600061062d8261078e565b61063781856107c2565b9350610647818560208601610849565b6106508161087c565b840191505092915050565b60006106686006836107d3565b91507f61747465736100000000000000000000000000000000000000000000000000006000830152602082019050919050565b60006020820190506106b06000830184610565565b92915050565b600060208201905081810360008301526106d08184610574565b905092915050565b600060208201905081810360008301526106f281846105e9565b905092915050565b600060208201905081810360008301526107138161065b565b9050919050565b6000604051905081810181811067ffffffffffffffff8211171561073d57600080fd5b8060405250919050565b600067ffffffffffffffff82111561075e57600080fd5b601f19601f8301169050602081019050919050565b6000819050602082019050919050565b600081519050919050565b600081519050919050565b600081519050919050565b6000602082019050919050565b600082825260208201905092915050565b600082825260208201905092915050565b600082825260208201905092915050565b600073ffffffffffffffffffffffffffffffffffffffff82169050919050565b600061080f82610816565b9050919050565b600061082182610828565b9050919050565b6000610833826107e4565b9050919050565b82818337600083830152505050565b60005b8381101561086757808201518184015260208101905061084c565b83811115610876576000848401525b50505050565b6000601f19601f830116905091905056fe608060405234801561001057600080fd5b50610954806100206000396000f3fe608060405234801561001057600080fd5b50600436106100885760003560e01c8063832880e71161005b578063832880e71461028f578063858ced35146102d957806387e4396c1461031d578063c47f0027146103d857610088565b806317d7de7c1461008d5780631865c57d146101105780635d1ca6311461019357806368794b8714610216575b600080fd5b610095610493565b6040518080602001828103825283818151815260200191508051906020019080838360005b838110156100d55780820151818401526020810190506100ba565b50505050905090810190601f1680156101025780820380516001836020036101000a031916815260200191505b509250505060405180910390f35b610118610535565b6040518080602001828103825283818151815260200191508051906020019080838360005b8381101561015857808201518184015260208101905061013d565b50505050905090810190601f1680156101855780820380516001836020036101000a031916815260200191505b509250505060405180910390f35b61019b6105d7565b6040518080602001828103825283818151815260200191508051906020019080838360005b838110156101db5780820151818401526020810190506101c0565b50505050905090810190601f1680156102085780820380516001836020036101000a031916815260200191505b509250505060405180910390f35b61028d6004803603602081101561022c57600080fd5b810190808035906020019064010000000081111561024957600080fd5b82018360208201111561025b57600080fd5b8035906020019184600183028401116401000000008311171561027d57600080fd5b9091929391929390505050610679565b005b610297610758565b604051808273ffffffffffffffffffffffffffffffffffffffff1673ffffffffffffffffffffffffffffffffffffffff16815260200191505060405180910390f35b61031b600480360360208110156102ef57600080fd5b81019080803573ffffffffffffffffffffffffffffffffffffffff169060200190929190505050610782565b005b6103d66004803603602081101561033357600080fd5b810190808035906020019064010000000081111561035057600080fd5b82018360208201111561036257600080fd5b8035906020019184600183028401116401000000008311171561038457600080fd5b91908080601f016020809104026020016040519081016040528093929190818152602001838380828437600081840152601f19601f8201169050808301925050505050505091929192905050506107c6565b005b610491600480360360208110156103ee57600080fd5b810190808035906020019064010000000081111561040b57600080fd5b82018360208201111561041d57600080fd5b8035906020019184600183028401116401000000008311171561043f57600080fd5b91908080601f016020809104026020016040519081016040528093929190818152602001838380828437600081840152601f19601f8201169050808301925050505050505091929192905050506107e0565b005b606060018054600181600116156101000203166002900480601f01602080910402602001604051908101604052809291908181526020018280546001816001161561010002031660029004801561052b5780601f106105005761010080835404028352916020019161052b565b820191906000526020600020905b81548152906001019060200180831161050e57829003601f168201915b5050505050905090565b606060038054600181600116156101000203166002900480601f0160208091040260200160405190810160405280929190818152602001828054600181600116156101000203166002900480156105cd5780601f106105a2576101008083540402835291602001916105cd565b820191906000526020600020905b8154815290600101906020018083116105b057829003601f168201915b5050505050905090565b606060008054600181600116156101000203166002900480601f01602080910402602001604051908101604052809291908181526020018280546001816001161561010002031660029004801561066f5780601f106106445761010080835404028352916020019161066f565b820191906000526020600020905b81548152906001019060200180831161065257829003601f168201915b5050505050905090565b60405160200180807f6174746573610000000000000000000000000000000000000000000000000000815250600601905060405160208183030381529060405280519060200120600360405160200180828054600181600116156101000203166002900480156107205780601f106106fe576101008083540402835291820191610720565b820191906000526020600020905b81548152906001019060200180831161070c575b5050915050604051602081830303815290604052805190602001201415610754578181600391906107529291906107fa565b505b5050565b6000600260009054906101000a900473ffffffffffffffffffffffffffffffffffffffff16905090565b80600260006101000a81548173ffffffffffffffffffffffffffffffffffffffff021916908373ffffffffffffffffffffffffffffffffffffffff16021790555050565b80600090805190602001906107dc92919061087a565b5050565b80600190805190602001906107f692919061087a565b5050565b828054600181600116156101000203166002900490600052602060002090601f016020900481019282601f1061083b57803560ff1916838001178555610869565b82800160010185558215610869579182015b8281111561086857823582559160200191906001019061084d565b5b50905061087691906108fa565b5090565b828054600181600116156101000203166002900490600052602060002090601f016020900481019282601f106108bb57805160ff19168380011785556108e9565b828001600101855582156108e9579182015b828111156108e85782518255916020019190600101906108cd565b5b5090506108f691906108fa565b5090565b61091c91905b80821115610918576000816000905550600101610900565b5090565b9056fea265627a7a72315820940ea48be9c55b07ebe7fa8dc3b27b9b25942d174f8d7efa66f6ba4bbd17ce7364736f6c63430005100032a365627a7a72315820a233d017bcda76105129ab81a6da3684e656fe79ba449f008ba655ea7fcd08436c6578706572696d656e74616cf564736f6c63430005100040",
  "source": "// SPDX-License-Identifier: MIT\r\npragma solidity >=0.4.22 <0.8.22;\r\n//creating smart contract \r\nimport \"./Brevetti.sol\";\r\npragma experimental ABIEncoderV2;\r\n\r\ncontract Factory{\r\n    Brevetti[] listBrevetti;\r\n\r\n    constructor() public{}\r\n\r\n    function createBrevetto(string memory _id, string memory _name) public{\r\n        Brevetti b = new Brevetti();\r\n        b.setId(_id);\r\n        b.setName(_name);\r\n        b.setUser(msg.sender);\r\n        b.setState(\"attesa\");\r\n        listBrevetti.push(b);\r\n    }\r\n\r\n    function getList() public view returns(string[] memory){\r\n        string[] memory listId = new string[](listBrevetti.length);\r\n        for(uint i = 0; i < listBrevetti.length; i++){\r\n            listId[i] = listBrevetti[i].getId();\r\n        }\r\n        return listId;\r\n    }\r\n\r\n}",
  "sourcePath": "C:\\Users\\asant\\Desktop\\Brevetti\\Brevetti_3.0\\contracts\\Factory.sol",
  "compiler": {
    "name": "solc",
    "version": "0.5.16+commit.9c3226ce.Emscripten.clang"
  },
  "schemaVersion": "3.4.16",
  "updatedAt": "2024-02-19T17:39:04.677Z",
  "networkType": "ethereum",
  "devdoc": {
    "methods": {}
  },
  "userdoc": {
    "methods": {}
  }
}