{
  "contractName": "Factory",
  "abi": [
    {
      "inputs": [],
      "payable": false,
      "stateMutability": "nonpayable",
      "type": "constructor"
    },
    {
      "constant": false,
      "inputs": [
        {
          "internalType": "string",
          "name": "_id",
          "type": "string"
        },
        {
          "internalType": "string",
          "name": "_name",
          "type": "string"
        },
        {
          "internalType": "address",
          "name": "user",
          "type": "address"
        }
      ],
      "name": "createBrevetto",
      "outputs": [],
      "payable": false,
      "stateMutability": "nonpayable",
      "type": "function"
    },
    {
      "constant": true,
      "inputs": [],
      "name": "getList",
      "outputs": [
        {
          "internalType": "string[]",
          "name": "",
          "type": "string[]"
        }
      ],
      "payable": false,
      "stateMutability": "view",
      "type": "function"
    },
    {
      "constant": true,
      "inputs": [
        {
          "internalType": "string",
          "name": "brevettoId",
          "type": "string"
        }
      ],
      "name": "getBrevetto",
      "outputs": [
        {
          "internalType": "contract Brevetti",
          "name": "",
          "type": "address"
        }
      ],
      "payable": false,
      "stateMutability": "view",
      "type": "function"
    }
  ],
  "bytecode": "0x608060405234801561001057600080fd5b50611c32806100206000396000f3fe608060405234801561001057600080fd5b50600436106100415760003560e01c80636e30007914610046578063942b765a14610076578063db1be1ad14610094575b600080fd5b610060600480360361005b91908101906105e9565b6100b0565b60405161006d91906108fa565b60405180910390f35b61007e6101a4565b60405161008b91906108d8565b60405180910390f35b6100ae60048036036100a9919081019061066b565b6102dc565b005b600080600090505b60008054905081101561019d57826040516020016100d691906108a6565b60405160208183030381529060405280519060200120600082815481106100f957fe5b9060005260206000200160009054906101000a900473ffffffffffffffffffffffffffffffffffffffff16604051602001610134919061088b565b604051602081830303815290604052805190602001201415610190576000818154811061015d57fe5b9060005260206000200160009054906101000a900473ffffffffffffffffffffffffffffffffffffffff1691505061019f565b80806001019150506100b8565b505b919050565b6060806000805490506040519080825280602002602001820160405280156101e057816020015b60608152602001906001900390816101cb5790505b50905060008090505b6000805490508110156102d4576000818154811061020357fe5b9060005260206000200160009054906101000a900473ffffffffffffffffffffffffffffffffffffffff1673ffffffffffffffffffffffffffffffffffffffff16635d1ca6316040518163ffffffff1660e01b815260040160006040518083038186803b15801561027357600080fd5b505afa158015610287573d6000803e3d6000fd5b505050506040513d6000823e3d601f19601f820116820180604052506102b0919081019061062a565b8282815181106102bc57fe5b602002602001018190525080806001019150506101e9565b508091505090565b60006040516102ea9061051f565b604051809103906000f080158015610306573d6000803e3d6000fd5b5090508073ffffffffffffffffffffffffffffffffffffffff166387e4396c856040518263ffffffff1660e01b81526004016103429190610915565b600060405180830381600087803b15801561035c57600080fd5b505af1158015610370573d6000803e3d6000fd5b505050508073ffffffffffffffffffffffffffffffffffffffff1663c47f0027846040518263ffffffff1660e01b81526004016103ad9190610915565b600060405180830381600087803b1580156103c757600080fd5b505af11580156103db573d6000803e3d6000fd5b505050508073ffffffffffffffffffffffffffffffffffffffff1663858ced35836040518263ffffffff1660e01b815260040161041891906108bd565b600060405180830381600087803b15801561043257600080fd5b505af1158015610446573d6000803e3d6000fd5b505050508073ffffffffffffffffffffffffffffffffffffffff166368794b876040518163ffffffff1660e01b815260040161048190610937565b600060405180830381600087803b15801561049b57600080fd5b505af11580156104af573d6000803e3d6000fd5b5050505060008190806001815401808255809150509060018203906000526020600020016000909192909190916101000a81548173ffffffffffffffffffffffffffffffffffffffff021916908373ffffffffffffffffffffffffffffffffffffffff1602179055505050505050565b6110d280610b1e83390190565b60008135905061053b81610b06565b92915050565b600082601f83011261055257600080fd5b813561056561056082610984565b610957565b9150808252602083016020830185838301111561058157600080fd5b61058c838284610a82565b50505092915050565b600082601f8301126105a657600080fd5b81516105b96105b482610984565b610957565b915080825260208301602083018583830111156105d557600080fd5b6105e0838284610a91565b50505092915050565b6000602082840312156105fb57600080fd5b600082013567ffffffffffffffff81111561061557600080fd5b61062184828501610541565b91505092915050565b60006020828403121561063c57600080fd5b600082015167ffffffffffffffff81111561065657600080fd5b61066284828501610595565b91505092915050565b60008060006060848603121561068057600080fd5b600084013567ffffffffffffffff81111561069a57600080fd5b6106a686828701610541565b935050602084013567ffffffffffffffff8111156106c357600080fd5b6106cf86828701610541565b92505060406106e08682870161052c565b9150509250925092565b60006106f68383610812565b905092915050565b61070781610a2c565b82525050565b6000610718826109c0565b61072281856109ee565b935083602082028501610734856109b0565b8060005b85811015610770578484038952815161075185826106ea565b945061075c836109e1565b925060208a01995050600181019050610738565b50829750879550505050505092915050565b61078b81610a5e565b82525050565b6107a261079d82610a5e565b610ac4565b82525050565b60006107b3826109d6565b6107bd8185610a10565b93506107cd818560208601610a91565b6107d681610ae8565b840191505092915050565b60006107ec826109d6565b6107f68185610a21565b9350610806818560208601610a91565b80840191505092915050565b600061081d826109cb565b61082781856109ff565b9350610837818560208601610a91565b61084081610ae8565b840191505092915050565b6000610858600683610a10565b91507f61747465736100000000000000000000000000000000000000000000000000006000830152602082019050919050565b60006108978284610791565b60148201915081905092915050565b60006108b282846107e1565b915081905092915050565b60006020820190506108d260008301846106fe565b92915050565b600060208201905081810360008301526108f2818461070d565b905092915050565b600060208201905061090f6000830184610782565b92915050565b6000602082019050818103600083015261092f81846107a8565b905092915050565b600060208201905081810360008301526109508161084b565b9050919050565b6000604051905081810181811067ffffffffffffffff8211171561097a57600080fd5b8060405250919050565b600067ffffffffffffffff82111561099b57600080fd5b601f19601f8301169050602081019050919050565b6000819050602082019050919050565b600081519050919050565b600081519050919050565b600081519050919050565b6000602082019050919050565b600082825260208201905092915050565b600082825260208201905092915050565b600082825260208201905092915050565b600081905092915050565b6000610a3782610a3e565b9050919050565b600073ffffffffffffffffffffffffffffffffffffffff82169050919050565b6000610a6982610a70565b9050919050565b6000610a7b82610a3e565b9050919050565b82818337600083830152505050565b60005b83811015610aaf578082015181840152602081019050610a94565b83811115610abe576000848401525b50505050565b6000610acf82610ad6565b9050919050565b6000610ae182610af9565b9050919050565b6000601f19601f8301169050919050565b60008160601b9050919050565b610b0f81610a2c565b8114610b1a57600080fd5b5056fe608060405234801561001057600080fd5b506110b2806100206000396000f3fe608060405234801561001057600080fd5b50600436106100a95760003560e01c806368794b871161007157806368794b8714610145578063832880e714610161578063858ced351461017f57806387e4396c1461019b578063aca84892146101b7578063c47f0027146101d3576100a9565b80630a16e30b146100ae5780630dc96015146100cc57806317d7de7c146100eb5780631865c57d146101095780635d1ca63114610127575b600080fd5b6100b66101ef565b6040516100c39190610e35565b60405180910390f35b6100d461027d565b6040516100e2929190610e57565b60405180910390f35b6100f36104a0565b6040516101009190610e8e565b60405180910390f35b610111610542565b60405161011e9190610e8e565b60405180910390f35b61012f6105e4565b60405161013c9190610e8e565b60405180910390f35b61015f600480360361015a9190810190610b0b565b610686565b005b6101696106f0565b6040516101769190610e1a565b60405180910390f35b61019960048036036101949190810190610ae2565b61071a565b005b6101b560048036036101b09190810190610b50565b61075e565b005b6101d160048036036101cc9190810190610b50565b610778565b005b6101ed60048036036101e89190810190610b50565b6108f0565b005b6060600580548060200260200160405190810160405280929190818152602001828054801561027357602002820191906000526020600020905b8160009054906101000a900473ffffffffffffffffffffffffffffffffffffffff1673ffffffffffffffffffffffffffffffffffffffff1681526020019060010190808311610229575b5050505050905090565b606080600060058054905090506060816040519080825280602002602001820160405280156102c057816020015b60608152602001906001900390816102ab5790505b50905060008090505b8281101561040a576000600582815481106102e057fe5b9060005260206000200160009054906101000a900473ffffffffffffffffffffffffffffffffffffffff169050600460008273ffffffffffffffffffffffffffffffffffffffff1673ffffffffffffffffffffffffffffffffffffffff1681526020019081526020016000208054600181600116156101000203166002900480601f0160208091040260200160405190810160405280929190818152602001828054600181600116156101000203166002900480156103e05780601f106103b5576101008083540402835291602001916103e0565b820191906000526020600020905b8154815290600101906020018083116103c357829003601f168201915b50505050508383815181106103f157fe5b60200260200101819052505080806001019150506102c9565b506005818180548060200260200160405190810160405280929190818152602001828054801561048f57602002820191906000526020600020905b8160009054906101000a900473ffffffffffffffffffffffffffffffffffffffff1673ffffffffffffffffffffffffffffffffffffffff1681526020019060010190808311610445575b505050505091509350935050509091565b606060018054600181600116156101000203166002900480601f0160208091040260200160405190810160405280929190818152602001828054600181600116156101000203166002900480156105385780601f1061050d57610100808354040283529160200191610538565b820191906000526020600020905b81548152906001019060200180831161051b57829003601f168201915b5050505050905090565b606060038054600181600116156101000203166002900480601f0160208091040260200160405190810160405280929190818152602001828054600181600116156101000203166002900480156105da5780601f106105af576101008083540402835291602001916105da565b820191906000526020600020905b8154815290600101906020018083116105bd57829003601f168201915b5050505050905090565b606060008054600181600116156101000203166002900480601f01602080910402602001604051908101604052809291908181526020018280546001816001161561010002031660029004801561067c5780601f106106515761010080835404028352916020019161067c565b820191906000526020600020905b81548152906001019060200180831161065f57829003601f168201915b5050505050905090565b60405160200161069590610e05565b6040516020818303038152906040528051906020012060036040516020016106bd9190610dee565b6040516020818303038152906040528051906020012014156106ec578181600391906106ea92919061090a565b505b5050565b6000600260009054906101000a900473ffffffffffffffffffffffffffffffffffffffff16905090565b80600260006101000a81548173ffffffffffffffffffffffffffffffffffffffff021916908373ffffffffffffffffffffffffffffffffffffffff16021790555050565b806000908051906020019061077492919061098a565b5050565b6000600460003373ffffffffffffffffffffffffffffffffffffffff1673ffffffffffffffffffffffffffffffffffffffff168152602001908152602001600020805460018160011615610100020316600290049050146107d857600080fd5b600260009054906101000a900473ffffffffffffffffffffffffffffffffffffffff1673ffffffffffffffffffffffffffffffffffffffff163373ffffffffffffffffffffffffffffffffffffffff16141561083357600080fd5b60053390806001815401808255809150509060018203906000526020600020016000909192909190916101000a81548173ffffffffffffffffffffffffffffffffffffffff021916908373ffffffffffffffffffffffffffffffffffffffff1602179055505080600460003373ffffffffffffffffffffffffffffffffffffffff1673ffffffffffffffffffffffffffffffffffffffff16815260200190815260200160002090805190602001906108ec92919061098a565b5050565b806001908051906020019061090692919061098a565b5050565b828054600181600116156101000203166002900490600052602060002090601f016020900481019282601f1061094b57803560ff1916838001178555610979565b82800160010185558215610979579182015b8281111561097857823582559160200191906001019061095d565b5b5090506109869190610a0a565b5090565b828054600181600116156101000203166002900490600052602060002090601f016020900481019282601f106109cb57805160ff19168380011785556109f9565b828001600101855582156109f9579182015b828111156109f85782518255916020019190600101906109dd565b5b509050610a069190610a0a565b5090565b610a2c91905b80821115610a28576000816000905550600101610a10565b5090565b90565b600081359050610a3e81611058565b92915050565b60008083601f840112610a5657600080fd5b8235905067ffffffffffffffff811115610a6f57600080fd5b602083019150836001820283011115610a8757600080fd5b9250929050565b600082601f830112610a9f57600080fd5b8135610ab2610aad82610edd565b610eb0565b91508082526020830160208301858383011115610ace57600080fd5b610ad9838284611005565b50505092915050565b600060208284031215610af457600080fd5b6000610b0284828501610a2f565b91505092915050565b60008060208385031215610b1e57600080fd5b600083013567ffffffffffffffff811115610b3857600080fd5b610b4485828601610a44565b92509250509250929050565b600060208284031215610b6257600080fd5b600082013567ffffffffffffffff811115610b7c57600080fd5b610b8884828501610a8e565b91505092915050565b6000610b9d8383610bbd565b60208301905092915050565b6000610bb58383610ce7565b905092915050565b610bc681610fd3565b82525050565b610bd581610fd3565b82525050565b6000610be682610f3e565b610bf08185610f84565b9350610bfb83610f09565b8060005b83811015610c2c578151610c138882610b91565b9750610c1e83610f6a565b925050600181019050610bff565b5085935050505092915050565b6000610c4482610f49565b610c4e8185610f95565b935083602082028501610c6085610f19565b8060005b85811015610c9c5784840389528151610c7d8582610ba9565b9450610c8883610f77565b925060208a01995050600181019050610c64565b50829750879550505050505092915050565b6000610cb982610f5f565b610cc38185610fb7565b9350610cd3818560208601611014565b610cdc81611047565b840191505092915050565b6000610cf282610f54565b610cfc8185610fa6565b9350610d0c818560208601611014565b610d1581611047565b840191505092915050565b600081546001811660008114610d3d5760018114610d6257610da6565b607f6002830416610d4e8187610fc8565b955060ff1983168652808601935050610da6565b60028204610d708187610fc8565b9550610d7b85610f29565b60005b82811015610d9d57815481890152600182019150602081019050610d7e565b82880195505050505b505092915050565b6000610dbb600683610fc8565b91507f61747465736100000000000000000000000000000000000000000000000000006000830152600682019050919050565b6000610dfa8284610d20565b915081905092915050565b6000610e1082610dae565b9150819050919050565b6000602082019050610e2f6000830184610bcc565b92915050565b60006020820190508181036000830152610e4f8184610bdb565b905092915050565b60006040820190508181036000830152610e718185610bdb565b90508181036020830152610e858184610c39565b90509392505050565b60006020820190508181036000830152610ea88184610cae565b905092915050565b6000604051905081810181811067ffffffffffffffff82111715610ed357600080fd5b8060405250919050565b600067ffffffffffffffff821115610ef457600080fd5b601f19601f8301169050602081019050919050565b6000819050602082019050919050565b6000819050602082019050919050565b60008190508160005260206000209050919050565b600081519050919050565b600081519050919050565b600081519050919050565b600081519050919050565b6000602082019050919050565b6000602082019050919050565b600082825260208201905092915050565b600082825260208201905092915050565b600082825260208201905092915050565b600082825260208201905092915050565b600081905092915050565b6000610fde82610fe5565b9050919050565b600073ffffffffffffffffffffffffffffffffffffffff82169050919050565b82818337600083830152505050565b60005b83811015611032578082015181840152602081019050611017565b83811115611041576000848401525b50505050565b6000601f19601f8301169050919050565b61106181610fd3565b811461106c57600080fd5b5056fea365627a7a7231582043c20dbbfa382c4a32462c8e21f0259c3e7115704fda9c5fb1e44606070322406c6578706572696d656e74616cf564736f6c63430005100040a365627a7a723158202f6cc956e9206d6f392c81c7d1b81745306f25f2e23df638f7ff8e86dbc87f3e6c6578706572696d656e74616cf564736f6c63430005100040",
  "source": "// SPDX-License-Identifier: MIT\r\npragma solidity >=0.4.22 <0.8.22;\r\n//creating smart contract \r\nimport \"./Brevetti.sol\";\r\npragma experimental ABIEncoderV2;\r\n\r\ncontract Factory{\r\n    Brevetti[] listBrevetti;\r\n\r\n    constructor() public{}\r\n\r\n    function createBrevetto(string memory _id, string memory _name, address user) public{\r\n        Brevetti b = new Brevetti();\r\n        b.setId(_id);\r\n        b.setName(_name);\r\n        b.setUser(user);\r\n        b.setState(\"attesa\");\r\n        listBrevetti.push(b);\r\n    }\r\n\r\n    function getList() public view returns(string[] memory){\r\n        string[] memory listId = new string[](listBrevetti.length);\r\n        for(uint i = 0; i < listBrevetti.length; i++){\r\n            listId[i] = listBrevetti[i].getId();\r\n        }\r\n        return listId;\r\n    }\r\n\r\n    function getBrevetto(string memory brevettoId) public view returns (Brevetti) {\r\n        for (uint i = 0; i < listBrevetti.length; i++) {\r\n            if (keccak256(abi.encodePacked(listBrevetti[i])) == keccak256(abi.encodePacked(brevettoId))) {\r\n                return listBrevetti[i];\r\n            }\r\n        }\r\n    }\r\n\r\n\r\n}",
  "sourcePath": "C:\\Users\\asant\\Desktop\\Brevetti\\Brevetti_3.0\\contracts\\Factory.sol",
  "compiler": {
    "name": "solc",
    "version": "0.5.16+commit.9c3226ce.Emscripten.clang"
  },
  "schemaVersion": "3.4.16",
  "updatedAt": "2024-02-19T23:41:39.220Z",
  "networkType": "ethereum",
  "devdoc": {
    "methods": {}
  },
  "userdoc": {
    "methods": {}
  }
}