{
  "contractName": "Factory",
  "abi": [
    {
      "inputs": [],
      "stateMutability": "nonpayable",
      "type": "constructor"
    },
    {
      "inputs": [
        {
          "internalType": "string",
          "name": "_id",
          "type": "string"
        },
        {
          "internalType": "string",
          "name": "_name",
          "type": "string"
        },
        {
          "internalType": "address",
          "name": "user",
          "type": "address"
        },
        {
          "internalType": "uint256",
          "name": "date",
          "type": "uint256"
        }
      ],
      "name": "createBrevetto",
      "outputs": [],
      "stateMutability": "payable",
      "type": "function",
      "payable": true
    },
    {
      "inputs": [],
      "name": "getList",
      "outputs": [
        {
          "internalType": "string[]",
          "name": "",
          "type": "string[]"
        }
      ],
      "stateMutability": "view",
      "type": "function",
      "constant": true
    },
    {
      "inputs": [],
      "name": "getListBrevetti",
      "outputs": [
        {
          "internalType": "contract Brevetto[]",
          "name": "",
          "type": "address[]"
        }
      ],
      "stateMutability": "view",
      "type": "function",
      "constant": true
    },
    {
      "inputs": [
        {
          "internalType": "string",
          "name": "brevettoId",
          "type": "string"
        }
      ],
      "name": "getBrevettoUser",
      "outputs": [
        {
          "internalType": "address",
          "name": "",
          "type": "address"
        }
      ],
      "stateMutability": "view",
      "type": "function",
      "constant": true
    }
  ],
  "bytecode": "0x608060405234801561001057600080fd5b5061358c806100206000396000f3fe60806040526004361061003f5760003560e01c80631fa60b641461004457806324265f2a1461006f578063750a98021461008b578063942b765a146100c8575b600080fd5b34801561005057600080fd5b506100596100f3565b604051610066919061095a565b60405180910390f35b61008960048036038101906100849190610b4a565b610181565b005b34801561009757600080fd5b506100b260048036038101906100ad9190610be9565b6104aa565b6040516100bf9190610c41565b60405180910390f35b3480156100d457600080fd5b506100dd6106cc565b6040516100ea9190610d9d565b60405180910390f35b6060600080548060200260200160405190810160405280929190818152602001828054801561017757602002820191906000526020600020905b8160009054906101000a900473ffffffffffffffffffffffffffffffffffffffff1673ffffffffffffffffffffffffffffffffffffffff168152602001906001019080831161012d575b5050505050905090565b6729a2241af62c0000341461019557600080fd5b60006040516101a39061081f565b604051809103906000f0801580156101bf573d6000803e3d6000fd5b5090508073ffffffffffffffffffffffffffffffffffffffff166387e4396c866040518263ffffffff1660e01b81526004016101fb9190610e09565b600060405180830381600087803b15801561021557600080fd5b505af1158015610229573d6000803e3d6000fd5b505050508073ffffffffffffffffffffffffffffffffffffffff1663c47f0027856040518263ffffffff1660e01b81526004016102669190610e09565b600060405180830381600087803b15801561028057600080fd5b505af1158015610294573d6000803e3d6000fd5b505050508073ffffffffffffffffffffffffffffffffffffffff1663858ced35846040518263ffffffff1660e01b81526004016102d19190610c41565b600060405180830381600087803b1580156102eb57600080fd5b505af11580156102ff573d6000803e3d6000fd5b505050508073ffffffffffffffffffffffffffffffffffffffff166368794b876040518163ffffffff1660e01b815260040161033a90610e77565b600060405180830381600087803b15801561035457600080fd5b505af1158015610368573d6000803e3d6000fd5b505050508073ffffffffffffffffffffffffffffffffffffffff16631a61746e6729a2241af62c00006040518263ffffffff1660e01b81526004016000604051808303818588803b1580156103bc57600080fd5b505af11580156103d0573d6000803e3d6000fd5b50505050508073ffffffffffffffffffffffffffffffffffffffff16636d2be2dd836040518263ffffffff1660e01b815260040161040e9190610ea6565b600060405180830381600087803b15801561042857600080fd5b505af115801561043c573d6000803e3d6000fd5b505050506000819080600181540180825580915050600190039060005260206000200160009091909190916101000a81548173ffffffffffffffffffffffffffffffffffffffff021916908373ffffffffffffffffffffffffffffffffffffffff1602179055505050505050565b600080600090505b60008054905081101561068b57826040516020016104d09190610efd565b60405160208183030381529060405280519060200120600082815481106104fa576104f9610f14565b5b9060005260206000200160009054906101000a900473ffffffffffffffffffffffffffffffffffffffff1673ffffffffffffffffffffffffffffffffffffffff16635d1ca6316040518163ffffffff1660e01b8152600401600060405180830381865afa15801561056f573d6000803e3d6000fd5b505050506040513d6000823e3d601f19601f820116820180604052508101906105989190610fb3565b6040516020016105a89190610efd565b604051602081830303815290604052805190602001200361067857600081815481106105d7576105d6610f14565b5b9060005260206000200160009054906101000a900473ffffffffffffffffffffffffffffffffffffffff1673ffffffffffffffffffffffffffffffffffffffff1663832880e76040518163ffffffff1660e01b8152600401602060405180830381865afa15801561064c573d6000803e3d6000fd5b505050506040513d601f19601f820116820180604052508101906106709190611011565b9150506106c7565b80806106839061106d565b9150506104b2565b506040517f08c379a00000000000000000000000000000000000000000000000000000000081526004016106be90611101565b60405180910390fd5b919050565b60606000808054905067ffffffffffffffff8111156106ee576106ed6109ab565b5b60405190808252806020026020018201604052801561072157816020015b606081526020019060019003908161070c5790505b50905060005b600080549050811015610817576000818154811061074857610747610f14565b5b9060005260206000200160009054906101000a900473ffffffffffffffffffffffffffffffffffffffff1673ffffffffffffffffffffffffffffffffffffffff16635d1ca6316040518163ffffffff1660e01b8152600401600060405180830381865afa1580156107bd573d6000803e3d6000fd5b505050506040513d6000823e3d601f19601f820116820180604052508101906107e69190610fb3565b8282815181106107f9576107f8610f14565b5b6020026020010181905250808061080f9061106d565b915050610727565b508091505090565b6124358061112283390190565b600081519050919050565b600082825260208201905092915050565b6000819050602082019050919050565b600073ffffffffffffffffffffffffffffffffffffffff82169050919050565b6000819050919050565b600061089d61089861089384610858565b610878565b610858565b9050919050565b60006108af82610882565b9050919050565b60006108c1826108a4565b9050919050565b6108d1816108b6565b82525050565b60006108e383836108c8565b60208301905092915050565b6000602082019050919050565b60006109078261082c565b6109118185610837565b935061091c83610848565b8060005b8381101561094d57815161093488826108d7565b975061093f836108ef565b925050600181019050610920565b5085935050505092915050565b6000602082019050818103600083015261097481846108fc565b905092915050565b6000604051905090565b600080fd5b600080fd5b600080fd5b600080fd5b6000601f19601f8301169050919050565b7f4e487b7100000000000000000000000000000000000000000000000000000000600052604160045260246000fd5b6109e38261099a565b810181811067ffffffffffffffff82111715610a0257610a016109ab565b5b80604052505050565b6000610a1561097c565b9050610a2182826109da565b919050565b600067ffffffffffffffff821115610a4157610a406109ab565b5b610a4a8261099a565b9050602081019050919050565b82818337600083830152505050565b6000610a79610a7484610a26565b610a0b565b905082815260208101848484011115610a9557610a94610995565b5b610aa0848285610a57565b509392505050565b600082601f830112610abd57610abc610990565b5b8135610acd848260208601610a66565b91505092915050565b6000610ae182610858565b9050919050565b610af181610ad6565b8114610afc57600080fd5b50565b600081359050610b0e81610ae8565b92915050565b6000819050919050565b610b2781610b14565b8114610b3257600080fd5b50565b600081359050610b4481610b1e565b92915050565b60008060008060808587031215610b6457610b63610986565b5b600085013567ffffffffffffffff811115610b8257610b8161098b565b5b610b8e87828801610aa8565b945050602085013567ffffffffffffffff811115610baf57610bae61098b565b5b610bbb87828801610aa8565b9350506040610bcc87828801610aff565b9250506060610bdd87828801610b35565b91505092959194509250565b600060208284031215610bff57610bfe610986565b5b600082013567ffffffffffffffff811115610c1d57610c1c61098b565b5b610c2984828501610aa8565b91505092915050565b610c3b81610ad6565b82525050565b6000602082019050610c566000830184610c32565b92915050565b600081519050919050565b600082825260208201905092915050565b6000819050602082019050919050565b600081519050919050565b600082825260208201905092915050565b60005b83811015610cc2578082015181840152602081019050610ca7565b60008484015250505050565b6000610cd982610c88565b610ce38185610c93565b9350610cf3818560208601610ca4565b610cfc8161099a565b840191505092915050565b6000610d138383610cce565b905092915050565b6000602082019050919050565b6000610d3382610c5c565b610d3d8185610c67565b935083602082028501610d4f85610c78565b8060005b85811015610d8b5784840389528151610d6c8582610d07565b9450610d7783610d1b565b925060208a01995050600181019050610d53565b50829750879550505050505092915050565b60006020820190508181036000830152610db78184610d28565b905092915050565b600082825260208201905092915050565b6000610ddb82610c88565b610de58185610dbf565b9350610df5818560208601610ca4565b610dfe8161099a565b840191505092915050565b60006020820190508181036000830152610e238184610dd0565b905092915050565b7f6174746573610000000000000000000000000000000000000000000000000000600082015250565b6000610e61600683610dbf565b9150610e6c82610e2b565b602082019050919050565b60006020820190508181036000830152610e9081610e54565b9050919050565b610ea081610b14565b82525050565b6000602082019050610ebb6000830184610e97565b92915050565b600081905092915050565b6000610ed782610c88565b610ee18185610ec1565b9350610ef1818560208601610ca4565b80840191505092915050565b6000610f098284610ecc565b915081905092915050565b7f4e487b7100000000000000000000000000000000000000000000000000000000600052603260045260246000fd5b6000610f56610f5184610a26565b610a0b565b905082815260208101848484011115610f7257610f71610995565b5b610f7d848285610ca4565b509392505050565b600082601f830112610f9a57610f99610990565b5b8151610faa848260208601610f43565b91505092915050565b600060208284031215610fc957610fc8610986565b5b600082015167ffffffffffffffff811115610fe757610fe661098b565b5b610ff384828501610f85565b91505092915050565b60008151905061100b81610ae8565b92915050565b60006020828403121561102757611026610986565b5b600061103584828501610ffc565b91505092915050565b7f4e487b7100000000000000000000000000000000000000000000000000000000600052601160045260246000fd5b600061107882610b14565b91507fffffffffffffffffffffffffffffffffffffffffffffffffffffffffffffffff82036110aa576110a961103e565b5b600182019050919050565b7f427265766574746f206e6f6e2074726f7661746f000000000000000000000000600082015250565b60006110eb601483610dbf565b91506110f6826110b5565b602082019050919050565b6000602082019050818103600083015261111a816110de565b905091905056fe608060405234801561001057600080fd5b50612415806100206000396000f3fe6080604052600436106100fe5760003560e01c806368794b8711610095578063858ced3511610064578063858ced35146102e657806387e4396c1461030f578063c47f002714610338578063d2abaa5814610361578063e6519a351461037d576100fe565b806368794b871461022c5780636d2be2dd14610255578063723931ca1461027e578063832880e7146102bb576100fe565b80631865c57d116100d15780631865c57d146101b05780631a61746e146101db57806332e2d7f9146101e55780635d1ca63114610201576100fe565b80630a16e30b146101035780630dc960151461012e57806312065fe01461015a57806317d7de7c14610185575b600080fd5b34801561010f57600080fd5b506101186103a8565b604051610125919061172e565b60405180910390f35b34801561013a57600080fd5b50610143610436565b6040516101519291906118a2565b60405180910390f35b34801561016657600080fd5b5061016f610673565b60405161017c91906118f2565b60405180910390f35b34801561019157600080fd5b5061019a61067d565b6040516101a79190611957565b60405180910390f35b3480156101bc57600080fd5b506101c561070f565b6040516101d29190611957565b60405180910390f35b6101e36107a1565b005b6101ff60048036038101906101fa91906119b9565b6107f4565b005b34801561020d57600080fd5b50610216610dda565b6040516102239190611957565b60405180910390f35b34801561023857600080fd5b50610253600480360381019061024e9190611b1b565b610e6c565b005b34801561026157600080fd5b5061027c600480360381019061027791906119b9565b610f34565b005b34801561028a57600080fd5b506102a560048036038101906102a091906119b9565b610f3e565b6040516102b29190611b7f565b60405180910390f35b3480156102c757600080fd5b506102d0610f69565b6040516102dd9190611ba9565b60405180910390f35b3480156102f257600080fd5b5061030d60048036038101906103089190611bf0565b610f93565b005b34801561031b57600080fd5b5061033660048036038101906103319190611b1b565b610fd7565b005b34801561034457600080fd5b5061035f600480360381019061035a9190611b1b565b610fea565b005b61037b60048036038101906103769190611c1d565b610ffd565b005b34801561038957600080fd5b506103926112e0565b60405161039f91906118f2565b60405180910390f35b6060600680548060200260200160405190810160405280929190818152602001828054801561042c57602002820191906000526020600020905b8160009054906101000a900473ffffffffffffffffffffffffffffffffffffffff1673ffffffffffffffffffffffffffffffffffffffff16815260200190600101908083116103e2575b5050505050905090565b6060806000600680549050905060008167ffffffffffffffff81111561045f5761045e6119f0565b5b60405190808252806020026020018201604052801561049257816020015b606081526020019060019003908161047d5790505b50905060005b828110156105dd576000600682815481106104b6576104b5611c79565b5b9060005260206000200160009054906101000a900473ffffffffffffffffffffffffffffffffffffffff169050600560008273ffffffffffffffffffffffffffffffffffffffff1673ffffffffffffffffffffffffffffffffffffffff168152602001908152602001600020805461052d90611cd7565b80601f016020809104026020016040519081016040528092919081815260200182805461055990611cd7565b80156105a65780601f1061057b576101008083540402835291602001916105a6565b820191906000526020600020905b81548152906001019060200180831161058957829003601f168201915b50505050508383815181106105be576105bd611c79565b5b60200260200101819052505080806105d590611d37565b915050610498565b506006818180548060200260200160405190810160405280929190818152602001828054801561066257602002820191906000526020600020905b8160009054906101000a900473ffffffffffffffffffffffffffffffffffffffff1673ffffffffffffffffffffffffffffffffffffffff1681526020019060010190808311610618575b505050505091509350935050509091565b6000600454905090565b60606001805461068c90611cd7565b80601f01602080910402602001604051908101604052809291908181526020018280546106b890611cd7565b80156107055780601f106106da57610100808354040283529160200191610705565b820191906000526020600020905b8154815290600101906020018083116106e857829003601f168201915b5050505050905090565b60606003805461071e90611cd7565b80601f016020809104026020016040519081016040528092919081815260200182805461074a90611cd7565b80156107975780601f1061076c57610100808354040283529160200191610797565b820191906000526020600020905b81548152906001019060200180831161077a57829003601f168201915b5050505050905090565b6729a2241af62c000034146107eb576040517f08c379a00000000000000000000000000000000000000000000000000000000081526004016107e290611df1565b60405180910390fd5b34600481905550565b600260009054906101000a900473ffffffffffffffffffffffffffffffffffffffff1673ffffffffffffffffffffffffffffffffffffffff163373ffffffffffffffffffffffffffffffffffffffff161461084e57600080fd5b60405160200161085d90611e68565b6040516020818303038152906040528051906020012061087b61070f565b60405160200161088b9190611eae565b60405160208183030381529060405280519060200120146108ab57600080fd5b61ea60600754826108bc9190611ec5565b10156108fd576040517f08c379a00000000000000000000000000000000000000000000000000000000081526004016108f490611f45565b60405180910390fd5b6000806109086112ea565b9150915060405160200161091b90611fb1565b60405160208183030381529060405280519060200120826040516020016109429190611eae565b6040516020818303038152906040528051906020012003610b725760005b600680549050811015610b6c576000600560006006848154811061098757610986611c79565b5b9060005260206000200160009054906101000a900473ffffffffffffffffffffffffffffffffffffffff1673ffffffffffffffffffffffffffffffffffffffff1673ffffffffffffffffffffffffffffffffffffffff16815260200190815260200160002080546109f790611cd7565b80601f0160208091040260200160405190810160405280929190818152602001828054610a2390611cd7565b8015610a705780601f10610a4557610100808354040283529160200191610a70565b820191906000526020600020905b815481529060010190602001808311610a5357829003601f168201915b5050505050905083604051602001610a889190611eae565b6040516020818303038152906040528051906020012081604051602001610aaf9190611eae565b6040516020818303038152906040528051906020012003610b585760068281548110610ade57610add611c79565b5b9060005260206000200160009054906101000a900473ffffffffffffffffffffffffffffffffffffffff1673ffffffffffffffffffffffffffffffffffffffff166108fc670429d069189e00009081150290604051600060405180830381858888f19350505050158015610b56573d6000803e3d6000fd5b505b508080610b6490611d37565b915050610960565b50610dd5565b604051602001610b8190612012565b6040516020818303038152906040528051906020012082604051602001610ba89190611eae565b6040516020818303038152906040528051906020012003610dd45760005b600680549050811015610dd25760006005600060068481548110610bed57610bec611c79565b5b9060005260206000200160009054906101000a900473ffffffffffffffffffffffffffffffffffffffff1673ffffffffffffffffffffffffffffffffffffffff1673ffffffffffffffffffffffffffffffffffffffff1681526020019081526020016000208054610c5d90611cd7565b80601f0160208091040260200160405190810160405280929190818152602001828054610c8990611cd7565b8015610cd65780601f10610cab57610100808354040283529160200191610cd6565b820191906000526020600020905b815481529060010190602001808311610cb957829003601f168201915b5050505050905083604051602001610cee9190611eae565b6040516020818303038152906040528051906020012081604051602001610d159190611eae565b6040516020818303038152906040528051906020012003610dbe5760068281548110610d4457610d43611c79565b5b9060005260206000200160009054906101000a900473ffffffffffffffffffffffffffffffffffffffff1673ffffffffffffffffffffffffffffffffffffffff166108fc67120a871cc00200009081150290604051600060405180830381858888f19350505050158015610dbc573d6000803e3d6000fd5b505b508080610dca90611d37565b915050610bc6565b505b5b505050565b606060008054610de990611cd7565b80601f0160208091040260200160405190810160405280929190818152602001828054610e1590611cd7565b8015610e625780601f10610e3757610100808354040283529160200191610e62565b820191906000526020600020905b815481529060010190602001808311610e4557829003601f168201915b5050505050905090565b604051602001610e7b90611e68565b604051602081830303815290604052805190602001206003604051602001610ea391906120bf565b6040516020818303038152906040528051906020012003610ecf578060039081610ecd919061226d565b505b604051602001610ede90611e68565b6040516020818303038152906040528051906020012081604051602001610f059190611eae565b6040516020818303038152906040528051906020012003610f31578060039081610f2f919061226d565b505b50565b8060078190555050565b600061ea6060075483610f519190611ec5565b10610f5f5760009050610f64565b600190505b919050565b6000600260009054906101000a900473ffffffffffffffffffffffffffffffffffffffff16905090565b80600260006101000a81548173ffffffffffffffffffffffffffffffffffffffff021916908373ffffffffffffffffffffffffffffffffffffffff16021790555050565b8060009081610fe6919061226d565b5050565b8060019081610ff9919061226d565b5050565b600260009054906101000a900473ffffffffffffffffffffffffffffffffffffffff1673ffffffffffffffffffffffffffffffffffffffff163373ffffffffffffffffffffffffffffffffffffffff160361105757600080fd5b60005b600680549050811015611126576006818154811061107b5761107a611c79565b5b9060005260206000200160009054906101000a900473ffffffffffffffffffffffffffffffffffffffff1673ffffffffffffffffffffffffffffffffffffffff163373ffffffffffffffffffffffffffffffffffffffff1603611113576040517f08c379a000000000000000000000000000000000000000000000000000000000815260040161110a9061238b565b60405180910390fd5b808061111e90611d37565b91505061105a565b5061ea60600754826111389190611ec5565b1115611179576040517f08c379a000000000000000000000000000000000000000000000000000000000815260040161117090611f45565b60405180910390fd5b6000600560003373ffffffffffffffffffffffffffffffffffffffff1673ffffffffffffffffffffffffffffffffffffffff16815260200190815260200160002080546111c590611cd7565b9050146111d157600080fd5b6040516020016111e090612012565b60405160208183030381529060405280519060200120826040516020016112079190611eae565b604051602081830303815290604052805190602001200361122c5761122b3461160e565b5b6006339080600181540180825580915050600190039060005260206000200160009091909190916101000a81548173ffffffffffffffffffffffffffffffffffffffff021916908373ffffffffffffffffffffffffffffffffffffffff16021790555081600560003373ffffffffffffffffffffffffffffffffffffffff1673ffffffffffffffffffffffffffffffffffffffff16815260200190815260200160002090816112db919061226d565b505050565b6000600754905090565b6060600080600680549050116112ff57600080fd5b60008060005b6006805490508110156114f5576000600560006006848154811061132c5761132b611c79565b5b9060005260206000200160009054906101000a900473ffffffffffffffffffffffffffffffffffffffff1673ffffffffffffffffffffffffffffffffffffffff1673ffffffffffffffffffffffffffffffffffffffff168152602001908152602001600020805461139c90611cd7565b80601f01602080910402602001604051908101604052809291908181526020018280546113c890611cd7565b80156114155780601f106113ea57610100808354040283529160200191611415565b820191906000526020600020905b8154815290600101906020018083116113f857829003601f168201915b5050505050905060405160200161142b90611fb1565b60405160208183030381529060405280519060200120816040516020016114529190611eae565b604051602081830303815290604052805190602001200361148057838061147890611d37565b9450506114e1565b60405160200161148f90612012565b60405160208183030381529060405280519060200120816040516020016114b69190611eae565b60405160208183030381529060405280519060200120036114e05782806114dc90611d37565b9350505b5b5080806114ed90611d37565b915050611305565b5080821061157e5761153b6040518060400160405280600a81526020017f436f6e6665726d61746f00000000000000000000000000000000000000000000815250610e6c565b816040518060400160405280600a81526020017f436f6e6665726d61746f000000000000000000000000000000000000000000008152509093509350505061160a565b81811115611607576115c46040518060400160405280600981526020017f52696669757461746f0000000000000000000000000000000000000000000000815250610e6c565b806040518060400160405280600981526020017f52696669757461746f00000000000000000000000000000000000000000000008152509093509350505061160a565b50505b9091565b670de0b6b3a7640000811461162257600080fd5b806004600082825461163491906123ab565b9250508190555050565b600081519050919050565b600082825260208201905092915050565b6000819050602082019050919050565b600073ffffffffffffffffffffffffffffffffffffffff82169050919050565b60006116958261166a565b9050919050565b6116a58161168a565b82525050565b60006116b7838361169c565b60208301905092915050565b6000602082019050919050565b60006116db8261163e565b6116e58185611649565b93506116f08361165a565b8060005b8381101561172157815161170888826116ab565b9750611713836116c3565b9250506001810190506116f4565b5085935050505092915050565b6000602082019050818103600083015261174881846116d0565b905092915050565b600081519050919050565b600082825260208201905092915050565b6000819050602082019050919050565b600081519050919050565b600082825260208201905092915050565b60005b838110156117b657808201518184015260208101905061179b565b60008484015250505050565b6000601f19601f8301169050919050565b60006117de8261177c565b6117e88185611787565b93506117f8818560208601611798565b611801816117c2565b840191505092915050565b600061181883836117d3565b905092915050565b6000602082019050919050565b600061183882611750565b611842818561175b565b9350836020820285016118548561176c565b8060005b858110156118905784840389528151611871858261180c565b945061187c83611820565b925060208a01995050600181019050611858565b50829750879550505050505092915050565b600060408201905081810360008301526118bc81856116d0565b905081810360208301526118d0818461182d565b90509392505050565b6000819050919050565b6118ec816118d9565b82525050565b600060208201905061190760008301846118e3565b92915050565b600082825260208201905092915050565b60006119298261177c565b611933818561190d565b9350611943818560208601611798565b61194c816117c2565b840191505092915050565b60006020820190508181036000830152611971818461191e565b905092915050565b6000604051905090565b600080fd5b600080fd5b611996816118d9565b81146119a157600080fd5b50565b6000813590506119b38161198d565b92915050565b6000602082840312156119cf576119ce611983565b5b60006119dd848285016119a4565b91505092915050565b600080fd5b600080fd5b7f4e487b7100000000000000000000000000000000000000000000000000000000600052604160045260246000fd5b611a28826117c2565b810181811067ffffffffffffffff82111715611a4757611a466119f0565b5b80604052505050565b6000611a5a611979565b9050611a668282611a1f565b919050565b600067ffffffffffffffff821115611a8657611a856119f0565b5b611a8f826117c2565b9050602081019050919050565b82818337600083830152505050565b6000611abe611ab984611a6b565b611a50565b905082815260208101848484011115611ada57611ad96119eb565b5b611ae5848285611a9c565b509392505050565b600082601f830112611b0257611b016119e6565b5b8135611b12848260208601611aab565b91505092915050565b600060208284031215611b3157611b30611983565b5b600082013567ffffffffffffffff811115611b4f57611b4e611988565b5b611b5b84828501611aed565b91505092915050565b60008115159050919050565b611b7981611b64565b82525050565b6000602082019050611b946000830184611b70565b92915050565b611ba38161168a565b82525050565b6000602082019050611bbe6000830184611b9a565b92915050565b611bcd8161168a565b8114611bd857600080fd5b50565b600081359050611bea81611bc4565b92915050565b600060208284031215611c0657611c05611983565b5b6000611c1484828501611bdb565b91505092915050565b60008060408385031215611c3457611c33611983565b5b600083013567ffffffffffffffff811115611c5257611c51611988565b5b611c5e85828601611aed565b9250506020611c6f858286016119a4565b9150509250929050565b7f4e487b7100000000000000000000000000000000000000000000000000000000600052603260045260246000fd5b7f4e487b7100000000000000000000000000000000000000000000000000000000600052602260045260246000fd5b60006002820490506001821680611cef57607f821691505b602082108103611d0257611d01611ca8565b5b50919050565b7f4e487b7100000000000000000000000000000000000000000000000000000000600052601160045260246000fd5b6000611d42826118d9565b91507fffffffffffffffffffffffffffffffffffffffffffffffffffffffffffffffff8203611d7457611d73611d08565b5b600182019050919050565b7f496c2076616c6f72652064656c2073616c646f2064657665206573736572652060008201527f6573617474616d656e7465203320657468657200000000000000000000000000602082015250565b6000611ddb60338361190d565b9150611de682611d7f565b604082019050919050565b60006020820190508181036000830152611e0a81611dce565b9050919050565b600081905092915050565b7f6174746573610000000000000000000000000000000000000000000000000000600082015250565b6000611e52600683611e11565b9150611e5d82611e1c565b600682019050919050565b6000611e7382611e45565b9150819050919050565b6000611e888261177c565b611e928185611e11565b9350611ea2818560208601611798565b80840191505092915050565b6000611eba8284611e7d565b915081905092915050565b6000611ed0826118d9565b9150611edb836118d9565b9250828203905081811115611ef357611ef2611d08565b5b92915050565b7f54656d706f207363616475746f00000000000000000000000000000000000000600082015250565b6000611f2f600d8361190d565b9150611f3a82611ef9565b602082019050919050565b60006020820190508181036000830152611f5e81611f22565b9050919050565b7f436f6e6665726d61746f00000000000000000000000000000000000000000000600082015250565b6000611f9b600a83611e11565b9150611fa682611f65565b600a82019050919050565b6000611fbc82611f8e565b9150819050919050565b7f52696669757461746f0000000000000000000000000000000000000000000000600082015250565b6000611ffc600983611e11565b915061200782611fc6565b600982019050919050565b600061201d82611fef565b9150819050919050565b60008190508160005260206000209050919050565b6000815461204981611cd7565b6120538186611e11565b9450600182166000811461206e5760018114612083576120b6565b60ff19831686528115158202860193506120b6565b61208c85612027565b60005b838110156120ae5781548189015260018201915060208101905061208f565b838801955050505b50505092915050565b60006120cb828461203c565b915081905092915050565b60006020601f8301049050919050565b600082821b905092915050565b6000600883026121237fffffffffffffffffffffffffffffffffffffffffffffffffffffffffffffffff826120e6565b61212d86836120e6565b95508019841693508086168417925050509392505050565b6000819050919050565b600061216a612165612160846118d9565b612145565b6118d9565b9050919050565b6000819050919050565b6121848361214f565b61219861219082612171565b8484546120f3565b825550505050565b600090565b6121ad6121a0565b6121b881848461217b565b505050565b5b818110156121dc576121d16000826121a5565b6001810190506121be565b5050565b601f821115612221576121f281612027565b6121fb846120d6565b8101602085101561220a578190505b61221e612216856120d6565b8301826121bd565b50505b505050565b600082821c905092915050565b600061224460001984600802612226565b1980831691505092915050565b600061225d8383612233565b9150826002028217905092915050565b6122768261177c565b67ffffffffffffffff81111561228f5761228e6119f0565b5b6122998254611cd7565b6122a48282856121e0565b600060209050601f8311600181146122d757600084156122c5578287015190505b6122cf8582612251565b865550612337565b601f1984166122e586612027565b60005b8281101561230d578489015182556001820191506020850194506020810190506122e8565b8683101561232a5784890151612326601f891682612233565b8355505b6001600288020188555050505b505050505050565b7f67696120766f7461746f00000000000000000000000000000000000000000000600082015250565b6000612375600a8361190d565b91506123808261233f565b602082019050919050565b600060208201905081810360008301526123a481612368565b9050919050565b60006123b6826118d9565b91506123c1836118d9565b92508282019050808211156123d9576123d8611d08565b5b9291505056fea26469706673582212205a37f63d7f959935ca51a0b8a1523ee92f26b9b7bc1f817ff6c1f2ee187eeae164736f6c63430008130033a264697066735822122044f6755672a440d060966e63555fc8736dd8c86d513da2d35906db2c7ea91e9f64736f6c63430008130033",
  "immutableReferences": {},
  "source": "pragma solidity >=0.4.20 <=0.8.19; \r\nimport \"./Brevetto.sol\";\r\npragma experimental ABIEncoderV2;\r\n\r\ncontract Factory{\r\n    Brevetto[] listBrevetti;\r\n\r\n    constructor() {}\r\n\r\n    function createBrevetto(string memory _id, string memory _name, address user, uint256 date) public payable{\r\n        require(msg.value == 3 ether);\r\n        Brevetto b = new Brevetto();\r\n        b.setId(_id);\r\n        b.setName(_name);\r\n        b.setUser(user);\r\n        b.setState(\"attesa\");\r\n        b.setBalance{value: 3 ether}();\r\n        b.setCreationTime(date);\r\n        listBrevetti.push(b);\r\n    }\r\n\r\n    function getList() public view returns(string[] memory){\r\n        string[] memory listId = new string[](listBrevetti.length);\r\n        for(uint i = 0; i < listBrevetti.length; i++){\r\n            listId[i] = listBrevetti[i].getId();\r\n        }\r\n        return listId;\r\n    }\r\n\r\n    function getListBrevetti() public view returns(Brevetto[] memory){\r\n        return listBrevetti;\r\n    }\r\n\r\n    function getBrevettoUser(string memory brevettoId) public view returns (address) {\r\n        for (uint i = 0; i < listBrevetti.length; i++) {\r\n            if (keccak256(abi.encodePacked(listBrevetti[i].getId())) == keccak256(abi.encodePacked(brevettoId))) {\r\n                return listBrevetti[i].getUser();\r\n            }\r\n        }\r\n        revert(\"Brevetto non trovato\");\r\n    }\r\n}",
  "sourcePath": "C:\\Users\\dario\\OneDrive\\Desktop\\Brevetti\\Brevetti_3.0-1\\contracts\\Factory.sol",
  "compiler": {
    "name": "solc",
    "version": "0.8.19+commit.7dd6d404.Emscripten.clang"
  },
  "schemaVersion": "3.4.16",
  "updatedAt": "2024-03-03T18:10:25.971Z",
  "networkType": "ethereum",
  "devdoc": {
    "kind": "dev",
    "methods": {},
    "version": 1
  },
  "userdoc": {
    "kind": "user",
    "methods": {},
    "version": 1
  }
}